{
  "contractName": "SemesterStore",
  "abi": [
    {
      "inputs": [
        {
          "internalType": "uint256",
          "name": "_year",
          "type": "uint256"
        }
      ],
      "payable": false,
      "stateMutability": "nonpayable",
      "type": "constructor"
    },
    {
      "anonymous": false,
      "inputs": [
        {
          "indexed": true,
          "internalType": "uint256",
          "name": "number",
          "type": "uint256"
        },
        {
          "indexed": false,
          "internalType": "string",
          "name": "name",
          "type": "string"
        }
      ],
      "name": "CourseAdded",
      "type": "event"
    },
    {
      "anonymous": false,
      "inputs": [
        {
          "indexed": true,
          "internalType": "uint256",
          "name": "number",
          "type": "uint256"
        },
        {
          "indexed": false,
          "internalType": "string",
          "name": "name",
          "type": "string"
        }
      ],
      "name": "CourseUpdated",
      "type": "event"
    },
    {
      "constant": true,
      "inputs": [
        {
          "internalType": "uint256",
          "name": "",
          "type": "uint256"
        }
      ],
      "name": "courses",
      "outputs": [
        {
          "internalType": "string",
          "name": "",
          "type": "string"
        }
      ],
      "payable": false,
      "stateMutability": "view",
      "type": "function"
    },
    {
      "constant": true,
      "inputs": [],
      "name": "year",
      "outputs": [
        {
          "internalType": "uint256",
          "name": "",
          "type": "uint256"
        }
      ],
      "payable": false,
      "stateMutability": "view",
      "type": "function"
    },
    {
      "constant": false,
      "inputs": [
        {
          "internalType": "uint256",
          "name": "_number",
          "type": "uint256"
        },
        {
          "internalType": "string",
          "name": "_name",
          "type": "string"
        }
      ],
      "name": "setCourse",
      "outputs": [],
      "payable": false,
      "stateMutability": "nonpayable",
      "type": "function"
    }
  ],
  "bytecode": "0x608060405234801561001057600080fd5b506040516106af3803806106af83398181016040526100329190810190610054565b806000819055505061009e565b60008151905061004e81610087565b92915050565b60006020828403121561006657600080fd5b60006100748482850161003f565b91505092915050565b6000819050919050565b6100908161007d565b811461009b57600080fd5b50565b610602806100ad6000396000f3fe608060405234801561001057600080fd5b50600436106100415760003560e01c80631563ce941461004657806396f979d214610062578063f326971614610092575b600080fd5b610060600480360361005b9190810190610397565b6100b0565b005b61007c6004803603610077919081019061036e565b6101aa565b604051610089919061046c565b60405180910390f35b61009a61025a565b6040516100a791906104b0565b60405180910390f35b60006001600084815260200190815260200160002080546001816001161561010002031660029004905014156101455780600160008481526020019081526020016000209080519060200190610107929190610260565b50817f4baff6e1d063f396c07ce2e85db23353a5b405879415449d8f2fcd54b8ede8f982604051610138919061048e565b60405180910390a26101a6565b8060016000848152602001908152602001600020908051906020019061016c929190610260565b50817f61f1b503285f2baf5ae0ec7be5c9605a293c9d47bdaf9bdb36fc15c570615fe68260405161019d919061048e565b60405180910390a25b5050565b60016020528060005260406000206000915090508054600181600116156101000203166002900480601f0160208091040260200160405190810160405280929190818152602001828054600181600116156101000203166002900480156102525780601f1061022757610100808354040283529160200191610252565b820191906000526020600020905b81548152906001019060200180831161023557829003601f168201915b505050505081565b60005481565b828054600181600116156101000203166002900490600052602060002090601f016020900481019282601f106102a157805160ff19168380011785556102cf565b828001600101855582156102cf579182015b828111156102ce5782518255916020019190600101906102b3565b5b5090506102dc91906102e0565b5090565b61030291905b808211156102fe5760008160009055506001016102e6565b5090565b90565b600082601f83011261031657600080fd5b8135610329610324826104f8565b6104cb565b9150808252602083016020830185838301111561034557600080fd5b610350838284610555565b50505092915050565b600081359050610368816105a8565b92915050565b60006020828403121561038057600080fd5b600061038e84828501610359565b91505092915050565b600080604083850312156103aa57600080fd5b60006103b885828601610359565b925050602083013567ffffffffffffffff8111156103d557600080fd5b6103e185828601610305565b9150509250929050565b60006103f68261052f565b610400818561053a565b9350610410818560208601610564565b61041981610597565b840191505092915050565b600061042f82610524565b610439818561053a565b9350610449818560208601610564565b61045281610597565b840191505092915050565b6104668161054b565b82525050565b600060208201905081810360008301526104868184610424565b905092915050565b600060208201905081810360008301526104a881846103eb565b905092915050565b60006020820190506104c5600083018461045d565b92915050565b6000604051905081810181811067ffffffffffffffff821117156104ee57600080fd5b8060405250919050565b600067ffffffffffffffff82111561050f57600080fd5b601f19601f8301169050602081019050919050565b600081519050919050565b600081519050919050565b600082825260208201905092915050565b6000819050919050565b82818337600083830152505050565b60005b83811015610582578082015181840152602081019050610567565b83811115610591576000848401525b50505050565b6000601f19601f8301169050919050565b6105b18161054b565b81146105bc57600080fd5b5056fea365627a7a72315820944a1c85cf9978ba3619c08ada86121b8bdc86e121c459caa26d2e4299da85316c6578706572696d656e74616cf564736f6c63430005100040",
  "source": "pragma solidity 0.5.16;\r\npragma experimental ABIEncoderV2;\r\n\r\n\r\ncontract SemesterStore {\r\n  uint public year;\r\n  mapping(uint => string) public courses;\r\n\r\n  event CourseAdded(uint indexed number, string name);\r\n  event CourseUpdated(uint indexed number, string name);\r\n \r\n  constructor(uint _year) public {\r\n    year = _year;\r\n  }\r\n\r\n  function setCourse(uint _number, string memory _name) public {\r\n    if (bytes(courses[_number]).length == 0) {\r\n      courses[_number] = _name;\r\n      emit CourseAdded(_number, _name);\r\n    } else {\r\n      courses[_number] = _name;\r\n      emit CourseUpdated(_number, _name);\r\n    }\r\n  }\r\n}\r\n\r\ncontract StudentsStore {\r\n  struct Student {\r\n    string universityID;\r\n    string name;\r\n    string program;\r\n    uint submissionYear;\r\n    address[] semesters;\r\n  }\r\n\r\n  mapping(string => Student) private students;\r\n event SemesterEvent(\r\n    string universityID,\r\n    uint semesterIndex,\r\n    uint year\r\n  );\r\n\r\n  constructor() public {\r\n    addStudent(\"00001\", \"John Doe\", \"Computer Science\", 2021);\r\n    addSemester(\"00001\", 2021);\r\n    setCourse(\"00001\", 0, 1, \"Introduction to Computer Science\");\r\n    setCourse(\"00001\", 0, 2, \"Data Structures and Algorithms\");\r\n\r\n    addStudent(\"00002\", \"Jane Doe\", \"Electrical Engineering\", 2022);\r\n    addSemester(\"00002\", 2022);\r\n    setCourse(\"00002\", 0, 1, \"Circuit Analysis\");\r\n    setCourse(\"00002\", 0, 2, \"Electromagnetism\");\r\n  }\r\n\r\n  function addStudent(\r\n    string memory _universityID,\r\n    string memory _name,\r\n    string memory _program,\r\n    uint _submissionYear\r\n  ) public {\r\n    students[_universityID] = Student({\r\n      universityID: _universityID,\r\n      name: _name,\r\n      program: _program,\r\n      submissionYear: _submissionYear,\r\n      semesters: new address[](0)\r\n    });\r\n  }\r\n\r\n  function addSemester(string memory _universityID, uint _year) public {\r\n  Student storage student = students[_universityID];\r\n  require(student.submissionYear <= _year, \"Semester year must be after submission year\");\r\n\r\n  SemesterStore semester = new SemesterStore(_year);\r\n  student.semesters.push(address(semester));\r\n\r\n  // emit the SemesterEvent event when a new semester is added\r\n  emit SemesterEvent(_universityID, student.semesters.length - 1, _year);\r\n}\r\n\r\n  function setCourse(\r\n    string memory _universityID,\r\n    uint _semesterIndex,\r\n    uint _courseNumber,\r\n    string memory _courseName\r\n  ) public {\r\n    Student storage student = students[_universityID];\r\n    require(_semesterIndex < student.semesters.length, \"Semester index out of range\");\r\n\r\n    SemesterStore semester = SemesterStore(student.semesters[_semesterIndex]);\r\n    semester.setCourse(_courseNumber, _courseName);\r\n  }\r\n\r\n  function getStudent(string memory _universityID) public view returns (\r\n    string memory,\r\n    string memory,\r\n    string memory,\r\n    uint,\r\n    address[] memory\r\n  ) {\r\n    Student storage student = students[_universityID];\r\n    return (\r\n      student.universityID,\r\n      student.name,\r\n      student.program,\r\n      student.submissionYear,\r\n      student.semesters\r\n    );\r\n  }\r\n  function getAllStudents() public view returns (Student[] memory) {\r\n  uint studentCount = 0;\r\n\r\n  // create an array to store the student keys\r\n  string[] memory studentKeys = new string[](1000000);\r\n\r\n  // loop through the students mapping and store the keys in the array\r\n  uint i = 0;\r\n  for (i = 0; i < 1000000; i++) {\r\n    string memory universityID = uintToString(i);\r\n    if (bytes(students[universityID].universityID).length > 0) {\r\n      studentKeys[studentCount] = universityID;\r\n      studentCount++;\r\n    }\r\n  }\r\n\r\n  // initialize the result array\r\n  Student[] memory result = new Student[](studentCount);\r\n\r\n  // loop through the student keys and populate the result array\r\n  for (i = 0; i < studentCount; i++) {\r\n    result[i] = students[studentKeys[i]];\r\n  }\r\n\r\n  return result;\r\n}\r\n  // utility function to convert uint to string\r\n  function uintToString(uint v) private pure returns (string memory) {\r\n    uint maxlength = 100;\r\n    bytes memory reversed = new bytes(maxlength);\r\n    uint i = 0;\r\n    while (v != 0) {\r\n      uint remainder = v % 10;\r\n      v = v / 10;\r\n      reversed[i++] = byte(uint8(48 + remainder));\r\n    }\r\n    bytes memory s = new bytes(i);\r\n    for (uint j = 0; j < i; j++) {\r\n      s[j] = reversed[i - j - 1];\r\n    }\r\n    if (s.length == 0) {\r\n      return \"0\";\r\n    } else {\r\n      return string(s);\r\n    }\r\n  }\r\n}\r\n\r\n",
  "sourcePath": "B:\\KSA students\\Projects and Labs\\Student-carrer-eth-app\\backEnd\\contracts\\StudentsStore.sol",
  "compiler": {
    "name": "solc",
    "version": "0.5.16+commit.9c3226ce.Emscripten.clang"
  },
  "schemaVersion": "3.4.13",
  "updatedAt": "2023-05-10T18:32:38.482Z",
  "devdoc": {
    "methods": {}
  },
  "userdoc": {
    "methods": {}
  }
}