{
  "contractName": "StudentsStore",
  "abi": [
    {
      "inputs": [
        {
          "internalType": "address",
          "name": "_usersStoreAddress",
          "type": "address"
        }
      ],
      "stateMutability": "nonpayable",
      "type": "constructor"
    },
    {
      "inputs": [
        {
          "internalType": "uint256",
          "name": "",
          "type": "uint256"
        }
      ],
      "name": "studentIDs",
      "outputs": [
        {
          "internalType": "uint256",
          "name": "",
          "type": "uint256"
        }
      ],
      "stateMutability": "view",
      "type": "function",
      "constant": true
    },
    {
      "inputs": [
        {
          "internalType": "uint256",
          "name": "",
          "type": "uint256"
        }
      ],
      "name": "students",
      "outputs": [
        {
          "internalType": "uint256",
          "name": "universityID",
          "type": "uint256"
        },
        {
          "internalType": "string",
          "name": "name",
          "type": "string"
        },
        {
          "internalType": "string",
          "name": "program",
          "type": "string"
        },
        {
          "internalType": "uint256",
          "name": "submissionYear",
          "type": "uint256"
        },
        {
          "internalType": "address",
          "name": "publicAddress",
          "type": "address"
        },
        {
          "internalType": "string",
          "name": "email",
          "type": "string"
        }
      ],
      "stateMutability": "view",
      "type": "function",
      "constant": true
    },
    {
      "inputs": [],
      "name": "usersStoreAddress",
      "outputs": [
        {
          "internalType": "address",
          "name": "",
          "type": "address"
        }
      ],
      "stateMutability": "view",
      "type": "function",
      "constant": true
    },
    {
      "inputs": [
        {
          "internalType": "uint256",
          "name": "_universityID",
          "type": "uint256"
        },
        {
          "internalType": "string",
          "name": "_name",
          "type": "string"
        },
        {
          "internalType": "string",
          "name": "_program",
          "type": "string"
        },
        {
          "internalType": "uint256",
          "name": "_submissionYear",
          "type": "uint256"
        },
        {
          "internalType": "string",
          "name": "_email",
          "type": "string"
        },
        {
          "internalType": "address",
          "name": "_publicAddress",
          "type": "address"
        }
      ],
      "name": "addStudent",
      "outputs": [],
      "stateMutability": "nonpayable",
      "type": "function"
    },
    {
      "inputs": [
        {
          "internalType": "uint256",
          "name": "_universityID",
          "type": "uint256"
        },
        {
          "internalType": "uint256",
          "name": "_semesterID",
          "type": "uint256"
        }
      ],
      "name": "addSemester",
      "outputs": [],
      "stateMutability": "nonpayable",
      "type": "function"
    },
    {
      "inputs": [
        {
          "internalType": "uint256",
          "name": "_universityID",
          "type": "uint256"
        },
        {
          "internalType": "uint256",
          "name": "_semesterID",
          "type": "uint256"
        },
        {
          "internalType": "string",
          "name": "_courseCode",
          "type": "string"
        },
        {
          "internalType": "string",
          "name": "_courseName",
          "type": "string"
        },
        {
          "internalType": "uint256",
          "name": "_maxGrade",
          "type": "uint256"
        },
        {
          "internalType": "uint256",
          "name": "_studentGrade",
          "type": "uint256"
        }
      ],
      "name": "addCourse",
      "outputs": [],
      "stateMutability": "nonpayable",
      "type": "function"
    },
    {
      "inputs": [
        {
          "internalType": "uint256",
          "name": "_universityID",
          "type": "uint256"
        },
        {
          "internalType": "uint256",
          "name": "_semesterID",
          "type": "uint256"
        }
      ],
      "name": "getStudentCourses",
      "outputs": [
        {
          "internalType": "string[]",
          "name": "",
          "type": "string[]"
        }
      ],
      "stateMutability": "view",
      "type": "function",
      "constant": true
    },
    {
      "inputs": [
        {
          "internalType": "uint256",
          "name": "_universityID",
          "type": "uint256"
        },
        {
          "internalType": "uint256",
          "name": "_semesterID",
          "type": "uint256"
        },
        {
          "internalType": "string",
          "name": "_courseCode",
          "type": "string"
        }
      ],
      "name": "getStudentCourse",
      "outputs": [
        {
          "components": [
            {
              "internalType": "string",
              "name": "courseCode",
              "type": "string"
            },
            {
              "internalType": "string",
              "name": "courseName",
              "type": "string"
            },
            {
              "internalType": "uint256",
              "name": "maxGrade",
              "type": "uint256"
            },
            {
              "internalType": "uint256",
              "name": "studentGrade",
              "type": "uint256"
            }
          ],
          "internalType": "struct StudentsStore.Course",
          "name": "",
          "type": "tuple"
        }
      ],
      "stateMutability": "view",
      "type": "function",
      "constant": true
    },
    {
      "inputs": [
        {
          "internalType": "uint256",
          "name": "_universityID",
          "type": "uint256"
        }
      ],
      "name": "getStudentInfo",
      "outputs": [
        {
          "internalType": "uint256",
          "name": "universityID",
          "type": "uint256"
        },
        {
          "internalType": "string",
          "name": "name",
          "type": "string"
        },
        {
          "internalType": "string",
          "name": "program",
          "type": "string"
        },
        {
          "internalType": "uint256",
          "name": "submissionYear",
          "type": "uint256"
        },
        {
          "internalType": "address",
          "name": "publicAddress",
          "type": "address"
        },
        {
          "internalType": "uint256[]",
          "name": "semesterIDs",
          "type": "uint256[]"
        }
      ],
      "stateMutability": "view",
      "type": "function",
      "constant": true
    },
    {
      "inputs": [],
      "name": "getStudents",
      "outputs": [
        {
          "components": [
            {
              "internalType": "uint256",
              "name": "universityID",
              "type": "uint256"
            },
            {
              "internalType": "string",
              "name": "name",
              "type": "string"
            },
            {
              "internalType": "string",
              "name": "program",
              "type": "string"
            },
            {
              "internalType": "uint256",
              "name": "submissionYear",
              "type": "uint256"
            },
            {
              "internalType": "string",
              "name": "email",
              "type": "string"
            },
            {
              "internalType": "address",
              "name": "publicAddress",
              "type": "address"
            }
          ],
          "internalType": "struct StudentsStore.SimpleStudent[]",
          "name": "",
          "type": "tuple[]"
        }
      ],
      "stateMutability": "view",
      "type": "function",
      "constant": true
    }
  ],
  "bytecode": "0x60806040523480156200001157600080fd5b50604051620020b5380380620020b5833981810160405281019062000037919062000095565b806000806101000a81548173ffffffffffffffffffffffffffffffffffffffff021916908373ffffffffffffffffffffffffffffffffffffffff160217905550506200010f565b6000815190506200008f81620000f5565b92915050565b600060208284031215620000a857600080fd5b6000620000b8848285016200007e565b91505092915050565b6000620000ce82620000d5565b9050919050565b600073ffffffffffffffffffffffffffffffffffffffff82169050919050565b6200010081620000c1565b81146200010c57600080fd5b50565b611f96806200011f6000396000f3fe608060405234801561001057600080fd5b506004361061009e5760003560e01c8063b69185d411610066578063b69185d414610175578063eb41fc72146101a5578063f1d064b3146101c3578063f6238a8c146101e1578063fe7721ea146102115761009e565b806306ead22e146100a35780632ce349be146100d857806365a81d7d146101085780637406be8d1461013d5780638b2b284b14610159575b600080fd5b6100bd60048036038101906100b89190611357565b61022d565b6040516100cf96959493929190611bcc565b60405180910390f35b6100f260048036038101906100ed9190611357565b610421565b6040516100ff9190611b3b565b60405180910390f35b610122600480360381019061011d9190611357565b610445565b60405161013496959493929190611b56565b60405180910390f35b61015760048036038101906101529190611380565b6106ec565b005b610173600480360381019061016e9190611451565b610852565b005b61018f600480360381019061018a9190611451565b610965565b60405161019c9190611ab5565b60405180910390f35b6101ad610b7d565b6040516101ba9190611a42565b60405180910390f35b6101cb610ba1565b6040516101d89190611ad7565b60405180910390f35b6101fb60048036038101906101f6919061148d565b610f04565b6040516102089190611b19565b60405180910390f35b61022b600480360381019061022691906114f4565b6110a4565b005b600160205280600052604060002060009150905080600001549080600101805461025690611e19565b80601f016020809104026020016040519081016040528092919081815260200182805461028290611e19565b80156102cf5780601f106102a4576101008083540402835291602001916102cf565b820191906000526020600020905b8154815290600101906020018083116102b257829003601f168201915b5050505050908060020180546102e490611e19565b80601f016020809104026020016040519081016040528092919081815260200182805461031090611e19565b801561035d5780601f106103325761010080835404028352916020019161035d565b820191906000526020600020905b81548152906001019060200180831161034057829003601f168201915b5050505050908060030154908060040160009054906101000a900473ffffffffffffffffffffffffffffffffffffffff169080600501805461039e90611e19565b80601f01602080910402602001604051908101604052809291908181526020018280546103ca90611e19565b80156104175780601f106103ec57610100808354040283529160200191610417565b820191906000526020600020905b8154815290600101906020018083116103fa57829003601f168201915b5050505050905086565b6002818154811061043157600080fd5b906000526020600020016000915090505481565b6000606080600080606060006001600089815260200190815260200160002090508060000154965080600101805461047c90611e19565b80601f01602080910402602001604051908101604052809291908181526020018280546104a890611e19565b80156104f55780601f106104ca576101008083540402835291602001916104f5565b820191906000526020600020905b8154815290600101906020018083116104d857829003601f168201915b5050505050955080600201805461050b90611e19565b80601f016020809104026020016040519081016040528092919081815260200182805461053790611e19565b80156105845780601f1061055957610100808354040283529160200191610584565b820191906000526020600020905b81548152906001019060200180831161056757829003601f168201915b50505050509450806003015493508060040160009054906101000a900473ffffffffffffffffffffffffffffffffffffffff1692506000816006018054905090508067ffffffffffffffff811115610605577f4e487b7100000000000000000000000000000000000000000000000000000000600052604160045260246000fd5b6040519080825280602002602001820160405280156106335781602001602082028036833780820191505090505b50925060005b818110156106e05782600601818154811061067d577f4e487b7100000000000000000000000000000000000000000000000000000000600052603260045260246000fd5b90600052602060002001548482815181106106c1577f4e487b7100000000000000000000000000000000000000000000000000000000600052603260045260246000fd5b60200260200101818152505080806106d890611e4b565b915050610639565b50505091939550919395565b6000600160008881526020019081526020016000209050868160000181905550858160010190805190602001906107249291906111ae565b508481600201908051906020019061073d9291906111ae565b50838160030181905550818160040160006101000a81548173ffffffffffffffffffffffffffffffffffffffff021916908373ffffffffffffffffffffffffffffffffffffffff160217905550600287908060018154018082558091505060019003906000526020600020016000909190919091505560008060009054906101000a900473ffffffffffffffffffffffffffffffffffffffff1690508073ffffffffffffffffffffffffffffffffffffffff1663c6361c228489876040518463ffffffff1660e01b815260040161081693929190611a5d565b600060405180830381600087803b15801561083057600080fd5b505af1158015610844573d6000803e3d6000fd5b505050505050505050505050565b600060016000848152602001908152602001600020905060005b816006018054905081101561091757828260060182815481106108b8577f4e487b7100000000000000000000000000000000000000000000000000000000600052603260045260246000fd5b90600052602060002001541415610904576040517f08c379a00000000000000000000000000000000000000000000000000000000081526004016108fb90611af9565b60405180910390fd5b808061090f90611e4b565b91505061086c565b50806006018290806001815401808255809150506001900390600052602060002001600090919091909150558181600701600084815260200190815260200160002060000181905550505050565b60606000600160008581526020019081526020016000209050600081600701600085815260200190815260200160002090506000816002018054905067ffffffffffffffff8111156109e0577f4e487b7100000000000000000000000000000000000000000000000000000000600052604160045260246000fd5b604051908082528060200260200182016040528015610a1357816020015b60608152602001906001900390816109fe5790505b50905060005b8260020180549050811015610b705782600101836002018281548110610a68577f4e487b7100000000000000000000000000000000000000000000000000000000600052603260045260246000fd5b90600052602060002001604051610a7f9190611a2b565b90815260200160405180910390206000018054610a9b90611e19565b80601f0160208091040260200160405190810160405280929190818152602001828054610ac790611e19565b8015610b145780601f10610ae957610100808354040283529160200191610b14565b820191906000526020600020905b815481529060010190602001808311610af757829003601f168201915b5050505050828281518110610b52577f4e487b7100000000000000000000000000000000000000000000000000000000600052603260045260246000fd5b60200260200101819052508080610b6890611e4b565b915050610a19565b5080935050505092915050565b60008054906101000a900473ffffffffffffffffffffffffffffffffffffffff1681565b6060600060028054905067ffffffffffffffff811115610bea577f4e487b7100000000000000000000000000000000000000000000000000000000600052604160045260246000fd5b604051908082528060200260200182016040528015610c2357816020015b610c10611234565b815260200190600190039081610c085790505b50905060005b600280549050811015610efc5760006001600060028481548110610c76577f4e487b7100000000000000000000000000000000000000000000000000000000600052603260045260246000fd5b9060005260206000200154815260200190815260200160002090506040518060c0016040528082600001548152602001826001018054610cb590611e19565b80601f0160208091040260200160405190810160405280929190818152602001828054610ce190611e19565b8015610d2e5780601f10610d0357610100808354040283529160200191610d2e565b820191906000526020600020905b815481529060010190602001808311610d1157829003601f168201915b50505050508152602001826002018054610d4790611e19565b80601f0160208091040260200160405190810160405280929190818152602001828054610d7390611e19565b8015610dc05780601f10610d9557610100808354040283529160200191610dc0565b820191906000526020600020905b815481529060010190602001808311610da357829003601f168201915b5050505050815260200182600301548152602001826005018054610de390611e19565b80601f0160208091040260200160405190810160405280929190818152602001828054610e0f90611e19565b8015610e5c5780601f10610e3157610100808354040283529160200191610e5c565b820191906000526020600020905b815481529060010190602001808311610e3f57829003601f168201915b505050505081526020018260040160009054906101000a900473ffffffffffffffffffffffffffffffffffffffff1673ffffffffffffffffffffffffffffffffffffffff16815250838381518110610edd577f4e487b7100000000000000000000000000000000000000000000000000000000600052603260045260246000fd5b6020026020010181905250508080610ef490611e4b565b915050610c29565b508091505090565b610f0c611280565b600060016000868152602001908152602001600020905080600701600085815260200190815260200160002060010183604051610f499190611a14565b9081526020016040518091039020604051806080016040529081600082018054610f7290611e19565b80601f0160208091040260200160405190810160405280929190818152602001828054610f9e90611e19565b8015610feb5780601f10610fc057610100808354040283529160200191610feb565b820191906000526020600020905b815481529060010190602001808311610fce57829003601f168201915b5050505050815260200160018201805461100490611e19565b80601f016020809104026020016040519081016040528092919081815260200182805461103090611e19565b801561107d5780601f106110525761010080835404028352916020019161107d565b820191906000526020600020905b81548152906001019060200180831161106057829003601f168201915b50505050508152602001600282015481526020016003820154815250509150509392505050565b60006001600088815260200190815260200160002090506000816007016000888152602001908152602001600020905060405180608001604052808781526020018681526020018581526020018481525081600101876040516111079190611a14565b908152602001604051809103902060008201518160000190805190602001906111319291906111ae565b50602082015181600101908051906020019061114e9291906111ae565b50604082015181600201556060820151816003015590505080600201869080600181540180825580915050600190039060005260206000200160009091909190915090805190602001906111a39291906111ae565b505050505050505050565b8280546111ba90611e19565b90600052602060002090601f0160209004810192826111dc5760008555611223565b82601f106111f557805160ff1916838001178555611223565b82800160010185558215611223579182015b82811115611222578251825591602001919060010190611207565b5b50905061123091906112a8565b5090565b6040518060c001604052806000815260200160608152602001606081526020016000815260200160608152602001600073ffffffffffffffffffffffffffffffffffffffff1681525090565b6040518060800160405280606081526020016060815260200160008152602001600081525090565b5b808211156112c15760008160009055506001016112a9565b5090565b60006112d86112d384611c73565b611c42565b9050828152602081018484840111156112f057600080fd5b6112fb848285611dd7565b509392505050565b60008135905061131281611f32565b92915050565b600082601f83011261132957600080fd5b81356113398482602086016112c5565b91505092915050565b60008135905061135181611f49565b92915050565b60006020828403121561136957600080fd5b600061137784828501611342565b91505092915050565b60008060008060008060c0878903121561139957600080fd5b60006113a789828a01611342565b965050602087013567ffffffffffffffff8111156113c457600080fd5b6113d089828a01611318565b955050604087013567ffffffffffffffff8111156113ed57600080fd5b6113f989828a01611318565b945050606061140a89828a01611342565b935050608087013567ffffffffffffffff81111561142757600080fd5b61143389828a01611318565b92505060a061144489828a01611303565b9150509295509295509295565b6000806040838503121561146457600080fd5b600061147285828601611342565b925050602061148385828601611342565b9150509250929050565b6000806000606084860312156114a257600080fd5b60006114b086828701611342565b93505060206114c186828701611342565b925050604084013567ffffffffffffffff8111156114de57600080fd5b6114ea86828701611318565b9150509250925092565b60008060008060008060c0878903121561150d57600080fd5b600061151b89828a01611342565b965050602061152c89828a01611342565b955050604087013567ffffffffffffffff81111561154957600080fd5b61155589828a01611318565b945050606087013567ffffffffffffffff81111561157257600080fd5b61157e89828a01611318565b935050608061158f89828a01611342565b92505060a06115a089828a01611342565b9150509295509295509295565b60006115b98383611753565b905092915050565b60006115cd838361195f565b905092915050565b60006115e183836119f6565b60208301905092915050565b6115f681611d9b565b82525050565b61160581611d9b565b82525050565b600061161682611ce8565b6116208185611d3b565b93508360208202850161163285611ca3565b8060005b8581101561166e578484038952815161164f85826115ad565b945061165a83611d14565b925060208a01995050600181019050611636565b50829750879550505050505092915050565b600061168b82611cf3565b6116958185611d4c565b9350836020820285016116a785611cb3565b8060005b858110156116e357848403895281516116c485826115c1565b94506116cf83611d21565b925060208a019950506001810190506116ab565b50829750879550505050505092915050565b600061170082611cfe565b61170a8185611d5d565b935061171583611cc3565b8060005b8381101561174657815161172d88826115d5565b975061173883611d2e565b925050600181019050611719565b5085935050505092915050565b600061175e82611d09565b6117688185611d6e565b9350611778818560208601611de6565b61178181611f21565b840191505092915050565b600061179782611d09565b6117a18185611d7f565b93506117b1818560208601611de6565b6117ba81611f21565b840191505092915050565b60006117d082611d09565b6117da8185611d90565b93506117ea818560208601611de6565b80840191505092915050565b6000815461180381611e19565b61180d8186611d90565b9450600182166000811461182857600181146118395761186c565b60ff1983168652818601935061186c565b61184285611cd3565b60005b8381101561186457815481890152600182019150602081019050611845565b838801955050505b50505092915050565b6000611882601683611d7f565b91507f53656d657374657220616c7265616479206164646564000000000000000000006000830152602082019050919050565b60006118c2600783611d7f565b91507f53747564656e74000000000000000000000000000000000000000000000000006000830152602082019050919050565b600060808301600083015184820360008601526119128282611753565b9150506020830151848203602086015261192c8282611753565b915050604083015161194160408601826119f6565b50606083015161195460608601826119f6565b508091505092915050565b600060c08301600083015161197760008601826119f6565b506020830151848203602086015261198f8282611753565b915050604083015184820360408601526119a98282611753565b91505060608301516119be60608601826119f6565b50608083015184820360808601526119d68282611753565b91505060a08301516119eb60a08601826115ed565b508091505092915050565b6119ff81611dcd565b82525050565b611a0e81611dcd565b82525050565b6000611a2082846117c5565b915081905092915050565b6000611a3782846117f6565b915081905092915050565b6000602082019050611a5760008301846115fc565b92915050565b6000608082019050611a7260008301866115fc565b8181036020830152611a84818561178c565b90508181036040830152611a98818461178c565b90508181036060830152611aab816118b5565b9050949350505050565b60006020820190508181036000830152611acf818461160b565b905092915050565b60006020820190508181036000830152611af18184611680565b905092915050565b60006020820190508181036000830152611b1281611875565b9050919050565b60006020820190508181036000830152611b3381846118f5565b905092915050565b6000602082019050611b506000830184611a05565b92915050565b600060c082019050611b6b6000830189611a05565b8181036020830152611b7d818861178c565b90508181036040830152611b91818761178c565b9050611ba06060830186611a05565b611bad60808301856115fc565b81810360a0830152611bbf81846116f5565b9050979650505050505050565b600060c082019050611be16000830189611a05565b8181036020830152611bf3818861178c565b90508181036040830152611c07818761178c565b9050611c166060830186611a05565b611c2360808301856115fc565b81810360a0830152611c35818461178c565b9050979650505050505050565b6000604051905081810181811067ffffffffffffffff82111715611c6957611c68611ef2565b5b8060405250919050565b600067ffffffffffffffff821115611c8e57611c8d611ef2565b5b601f19601f8301169050602081019050919050565b6000819050602082019050919050565b6000819050602082019050919050565b6000819050602082019050919050565b60008190508160005260206000209050919050565b600081519050919050565b600081519050919050565b600081519050919050565b600081519050919050565b6000602082019050919050565b6000602082019050919050565b6000602082019050919050565b600082825260208201905092915050565b600082825260208201905092915050565b600082825260208201905092915050565b600082825260208201905092915050565b600082825260208201905092915050565b600081905092915050565b6000611da682611dad565b9050919050565b600073ffffffffffffffffffffffffffffffffffffffff82169050919050565b6000819050919050565b82818337600083830152505050565b60005b83811015611e04578082015181840152602081019050611de9565b83811115611e13576000848401525b50505050565b60006002820490506001821680611e3157607f821691505b60208210811415611e4557611e44611ec3565b5b50919050565b6000611e5682611dcd565b91507fffffffffffffffffffffffffffffffffffffffffffffffffffffffffffffffff821415611e8957611e88611e94565b5b600182019050919050565b7f4e487b7100000000000000000000000000000000000000000000000000000000600052601160045260246000fd5b7f4e487b7100000000000000000000000000000000000000000000000000000000600052602260045260246000fd5b7f4e487b7100000000000000000000000000000000000000000000000000000000600052604160045260246000fd5b6000601f19601f8301169050919050565b611f3b81611d9b565b8114611f4657600080fd5b50565b611f5281611dcd565b8114611f5d57600080fd5b5056fea26469706673582212207fa5620d28b19209e43b3938c60fa12f2375c7cf4d1553d44dd16ca43e68295664736f6c63430008000033",
  "immutableReferences": {},
  "source": "pragma solidity ^0.8.0;\r\nimport \"./usersStore.sol\";\r\n\r\ncontract StudentsStore {\r\n    address public usersStoreAddress;\r\n\r\n    struct Course {\r\n        string courseCode;\r\n        string courseName;\r\n        uint maxGrade;\r\n        uint studentGrade;\r\n    }\r\n\r\n   struct Semester {\r\n        uint id;\r\n        mapping(string => Course) courses;\r\n        string[] courseCodes;\r\n    }\r\n\r\n    struct Student {\r\n        uint universityID;\r\n        string name;\r\n        string program;\r\n        uint submissionYear;\r\n        address publicAddress;\r\n        string email;\r\n        uint[] semesterIDs; // Added field to store semester IDs\r\n        mapping(uint => Semester) semesters;\r\n    }\r\n\r\n    struct SimpleStudent {\r\n        uint universityID;\r\n        string name;\r\n        string program;\r\n        uint submissionYear;\r\n        string email;\r\n        address publicAddress;\r\n    }\r\n\r\n    constructor(address _usersStoreAddress) public {\r\n        usersStoreAddress = _usersStoreAddress;\r\n    }\r\n\r\n    mapping(uint => Student) public students;\r\n    uint[] public studentIDs;\r\n\r\n    function addStudent(\r\n        uint _universityID,\r\n        string memory _name,\r\n        string memory _program,\r\n        uint _submissionYear,\r\n        string memory _email,\r\n        address _publicAddress\r\n    ) public {\r\n        Student storage student = students[_universityID];\r\n        student.universityID = _universityID;\r\n        student.name = _name;\r\n        student.program = _program;\r\n        student.submissionYear = _submissionYear;\r\n        student.publicAddress = _publicAddress;\r\n        studentIDs.push(_universityID);\r\n        UsersStore usersStore = UsersStore(usersStoreAddress);\r\n        usersStore.addUser(_publicAddress, _name, _email, \"Student\");\r\n    }\r\n     function addSemester(uint _universityID, uint _semesterID) public {\r\n    Student storage student = students[_universityID];\r\n\r\n    // Check if the semester ID already exists in the semesterIDs array\r\n    for (uint i = 0; i < student.semesterIDs.length; i++) {\r\n        if (student.semesterIDs[i] == _semesterID) {\r\n            revert(\"Semester already added\");\r\n        }\r\n    }\r\n\r\n    // Add the semester ID to the array and set the semester ID in the semesters mapping\r\n    student.semesterIDs.push(_semesterID);\r\n    student.semesters[_semesterID].id = _semesterID;\r\n}\r\n\r\n\r\n   function addCourse(\r\n    uint _universityID,\r\n    uint _semesterID,\r\n    string memory _courseCode,\r\n    string memory _courseName,\r\n    uint _maxGrade,\r\n    uint _studentGrade\r\n) public {\r\n    Student storage student = students[_universityID];\r\n    Semester storage semester = student.semesters[_semesterID];\r\n    semester.courses[_courseCode] = Course(_courseCode, _courseName, _maxGrade, _studentGrade);\r\n    semester.courseCodes.push(_courseCode); // Add the course code to the array\r\n}\r\n\r\n   function getStudentCourses(uint _universityID, uint _semesterID) public view returns (string[] memory) {\r\n    Student storage student = students[_universityID];\r\n    Semester storage semester = student.semesters[_semesterID];\r\n\r\n    // Retrieve the course codes from the semester mapping\r\n    string[] memory courseCodes = new string[](semester.courseCodes.length);\r\n    for (uint i = 0; i < semester.courseCodes.length; i++) {\r\n        courseCodes[i] = semester.courses[semester.courseCodes[i]].courseCode;\r\n    }\r\n\r\n    return courseCodes;\r\n}\r\n\r\n\r\n    function getStudentCourse(\r\n        uint _universityID,\r\n        uint _semesterID,\r\n        string memory _courseCode\r\n    ) public view returns (Course memory) {\r\n        Student storage student = students[_universityID];\r\n        return student.semesters[_semesterID].courses[_courseCode];\r\n    }\r\n    function getStudentInfo(uint _universityID) public view returns (\r\n    uint universityID,\r\n    string memory name,\r\n    string memory program,\r\n    uint submissionYear,\r\n    address publicAddress,\r\n    uint[] memory semesterIDs\r\n) {\r\n    Student storage student = students[_universityID];\r\n    universityID = student.universityID;\r\n    name = student.name;\r\n    program = student.program;\r\n    submissionYear = student.submissionYear;\r\n    publicAddress = student.publicAddress;\r\n\r\n    uint numSemesters = student.semesterIDs.length;\r\n    semesterIDs = new uint[](numSemesters);\r\n\r\n    for (uint i = 0; i < numSemesters; i++) {\r\n        semesterIDs[i] = student.semesterIDs[i];\r\n    }\r\n}\r\n\r\n\r\n    function getStudents() public view returns (SimpleStudent[] memory) {\r\n        // Create an array to store the students\r\n        SimpleStudent[] memory allStudents = new SimpleStudent[](studentIDs.length);\r\n\r\n        // Add the students to the array\r\n        for (uint i = 0; i < studentIDs.length; i++) {\r\n            Student storage student = students[studentIDs[i]];\r\n            allStudents[i] = SimpleStudent(\r\n                student.universityID,\r\n                student.name,\r\n                student.program,\r\n                student.submissionYear,\r\n                student.email,\r\n                student.publicAddress\r\n            );\r\n        }\r\n\r\n        return allStudents;\r\n    }\r\n}\r\n",
  "sourcePath": "B:\\KSA students\\Projects and Labs\\Student-carrer-eth-app\\backEnd\\contracts\\StudentsStore.sol",
  "compiler": {
    "name": "solc",
    "version": "0.8.0+commit.c7dfd78e.Emscripten.clang"
  },
  "schemaVersion": "3.4.13",
  "updatedAt": "2023-06-02T21:23:47.077Z",
  "networkType": "ethereum",
  "devdoc": {
    "kind": "dev",
    "methods": {},
    "version": 1
  },
  "userdoc": {
    "kind": "user",
    "methods": {},
    "version": 1
  }
}