{
  "contractName": "StudentsStore",
  "abi": [
    {
      "inputs": [
        {
          "internalType": "address",
          "name": "_usersStoreAddress",
          "type": "address"
        }
      ],
      "stateMutability": "nonpayable",
      "type": "constructor"
    },
    {
      "inputs": [
        {
          "internalType": "uint256",
          "name": "",
          "type": "uint256"
        }
      ],
      "name": "studentIDs",
      "outputs": [
        {
          "internalType": "uint256",
          "name": "",
          "type": "uint256"
        }
      ],
      "stateMutability": "view",
      "type": "function",
      "constant": true
    },
    {
      "inputs": [
        {
          "internalType": "uint256",
          "name": "",
          "type": "uint256"
        }
      ],
      "name": "students",
      "outputs": [
        {
          "internalType": "uint256",
          "name": "universityID",
          "type": "uint256"
        },
        {
          "internalType": "string",
          "name": "name",
          "type": "string"
        },
        {
          "internalType": "string",
          "name": "program",
          "type": "string"
        },
        {
          "internalType": "uint256",
          "name": "submissionYear",
          "type": "uint256"
        },
        {
          "internalType": "address",
          "name": "publicAddress",
          "type": "address"
        },
        {
          "internalType": "string",
          "name": "email",
          "type": "string"
        }
      ],
      "stateMutability": "view",
      "type": "function",
      "constant": true
    },
    {
      "inputs": [],
      "name": "usersStoreAddress",
      "outputs": [
        {
          "internalType": "address",
          "name": "",
          "type": "address"
        }
      ],
      "stateMutability": "view",
      "type": "function",
      "constant": true
    },
    {
      "inputs": [
        {
          "internalType": "uint256",
          "name": "_universityID",
          "type": "uint256"
        },
        {
          "internalType": "string",
          "name": "_name",
          "type": "string"
        },
        {
          "internalType": "string",
          "name": "_program",
          "type": "string"
        },
        {
          "internalType": "uint256",
          "name": "_submissionYear",
          "type": "uint256"
        },
        {
          "internalType": "string",
          "name": "_email",
          "type": "string"
        },
        {
          "internalType": "address",
          "name": "_publicAddress",
          "type": "address"
        }
      ],
      "name": "addStudent",
      "outputs": [],
      "stateMutability": "nonpayable",
      "type": "function"
    },
    {
      "inputs": [
        {
          "internalType": "uint256",
          "name": "_universityID",
          "type": "uint256"
        },
        {
          "internalType": "uint256",
          "name": "_semesterID",
          "type": "uint256"
        }
      ],
      "name": "addSemester",
      "outputs": [],
      "stateMutability": "nonpayable",
      "type": "function"
    },
    {
      "inputs": [
        {
          "internalType": "uint256",
          "name": "_universityID",
          "type": "uint256"
        },
        {
          "internalType": "uint256",
          "name": "_semesterID",
          "type": "uint256"
        },
        {
          "internalType": "string",
          "name": "_courseCode",
          "type": "string"
        },
        {
          "internalType": "string",
          "name": "_courseName",
          "type": "string"
        },
        {
          "internalType": "uint256",
          "name": "_maxGrade",
          "type": "uint256"
        }
      ],
      "name": "addCourse",
      "outputs": [],
      "stateMutability": "nonpayable",
      "type": "function"
    },
    {
      "inputs": [
        {
          "internalType": "uint256",
          "name": "_universityID",
          "type": "uint256"
        },
        {
          "internalType": "uint256",
          "name": "_semesterID",
          "type": "uint256"
        }
      ],
      "name": "getStudentCourses",
      "outputs": [
        {
          "internalType": "string[]",
          "name": "",
          "type": "string[]"
        }
      ],
      "stateMutability": "view",
      "type": "function",
      "constant": true
    },
    {
      "inputs": [
        {
          "internalType": "uint256",
          "name": "_universityID",
          "type": "uint256"
        },
        {
          "internalType": "uint256",
          "name": "_semesterID",
          "type": "uint256"
        },
        {
          "internalType": "string",
          "name": "_courseCode",
          "type": "string"
        }
      ],
      "name": "getStudentCourse",
      "outputs": [
        {
          "components": [
            {
              "internalType": "string",
              "name": "courseCode",
              "type": "string"
            },
            {
              "internalType": "string",
              "name": "courseName",
              "type": "string"
            },
            {
              "internalType": "uint256",
              "name": "maxGrade",
              "type": "uint256"
            },
            {
              "internalType": "uint256",
              "name": "studentGrade",
              "type": "uint256"
            }
          ],
          "internalType": "struct StudentsStore.Course",
          "name": "",
          "type": "tuple"
        }
      ],
      "stateMutability": "view",
      "type": "function",
      "constant": true
    },
    {
      "inputs": [
        {
          "internalType": "uint256",
          "name": "_universityID",
          "type": "uint256"
        }
      ],
      "name": "getStudentInfo",
      "outputs": [
        {
          "internalType": "uint256",
          "name": "universityID",
          "type": "uint256"
        },
        {
          "internalType": "string",
          "name": "name",
          "type": "string"
        },
        {
          "internalType": "string",
          "name": "program",
          "type": "string"
        },
        {
          "internalType": "uint256",
          "name": "submissionYear",
          "type": "uint256"
        },
        {
          "internalType": "address",
          "name": "publicAddress",
          "type": "address"
        },
        {
          "internalType": "uint256[]",
          "name": "semesterIDs",
          "type": "uint256[]"
        }
      ],
      "stateMutability": "view",
      "type": "function",
      "constant": true
    },
    {
      "inputs": [],
      "name": "getStudents",
      "outputs": [
        {
          "components": [
            {
              "internalType": "uint256",
              "name": "universityID",
              "type": "uint256"
            },
            {
              "internalType": "string",
              "name": "name",
              "type": "string"
            },
            {
              "internalType": "string",
              "name": "program",
              "type": "string"
            },
            {
              "internalType": "uint256",
              "name": "submissionYear",
              "type": "uint256"
            },
            {
              "internalType": "string",
              "name": "email",
              "type": "string"
            },
            {
              "internalType": "address",
              "name": "publicAddress",
              "type": "address"
            }
          ],
          "internalType": "struct StudentsStore.SimpleStudent[]",
          "name": "",
          "type": "tuple[]"
        }
      ],
      "stateMutability": "view",
      "type": "function",
      "constant": true
    }
  ],
  "bytecode": "0x60806040523480156200001157600080fd5b50604051620020a3380380620020a3833981810160405281019062000037919062000095565b806000806101000a81548173ffffffffffffffffffffffffffffffffffffffff021916908373ffffffffffffffffffffffffffffffffffffffff160217905550506200010f565b6000815190506200008f81620000f5565b92915050565b600060208284031215620000a857600080fd5b6000620000b8848285016200007e565b91505092915050565b6000620000ce82620000d5565b9050919050565b600073ffffffffffffffffffffffffffffffffffffffff82169050919050565b6200010081620000c1565b81146200010c57600080fd5b50565b611f84806200011f6000396000f3fe608060405234801561001057600080fd5b506004361061009e5760003560e01c8063b69185d411610066578063b69185d414610175578063bc89527e146101a5578063eb41fc72146101c1578063f1d064b3146101df578063f6238a8c146101fd5761009e565b806306ead22e146100a35780632ce349be146100d857806365a81d7d146101085780637406be8d1461013d5780638b2b284b14610159575b600080fd5b6100bd60048036038101906100b89190611357565b61022d565b6040516100cf96959493929190611bba565b60405180910390f35b6100f260048036038101906100ed9190611357565b610421565b6040516100ff9190611b29565b60405180910390f35b610122600480360381019061011d9190611357565b610445565b60405161013496959493929190611b44565b60405180910390f35b61015760048036038101906101529190611380565b6106ec565b005b610173600480360381019061016e9190611451565b610852565b005b61018f600480360381019061018a9190611451565b610965565b60405161019c9190611aa3565b60405180910390f35b6101bf60048036038101906101ba91906114f4565b610b7d565b005b6101c9610c87565b6040516101d69190611a30565b60405180910390f35b6101e7610cab565b6040516101f49190611ac5565b60405180910390f35b6102176004803603810190610212919061148d565b61100e565b6040516102249190611b07565b60405180910390f35b600160205280600052604060002060009150905080600001549080600101805461025690611e07565b80601f016020809104026020016040519081016040528092919081815260200182805461028290611e07565b80156102cf5780601f106102a4576101008083540402835291602001916102cf565b820191906000526020600020905b8154815290600101906020018083116102b257829003601f168201915b5050505050908060020180546102e490611e07565b80601f016020809104026020016040519081016040528092919081815260200182805461031090611e07565b801561035d5780601f106103325761010080835404028352916020019161035d565b820191906000526020600020905b81548152906001019060200180831161034057829003601f168201915b5050505050908060030154908060040160009054906101000a900473ffffffffffffffffffffffffffffffffffffffff169080600501805461039e90611e07565b80601f01602080910402602001604051908101604052809291908181526020018280546103ca90611e07565b80156104175780601f106103ec57610100808354040283529160200191610417565b820191906000526020600020905b8154815290600101906020018083116103fa57829003601f168201915b5050505050905086565b6002818154811061043157600080fd5b906000526020600020016000915090505481565b6000606080600080606060006001600089815260200190815260200160002090508060000154965080600101805461047c90611e07565b80601f01602080910402602001604051908101604052809291908181526020018280546104a890611e07565b80156104f55780601f106104ca576101008083540402835291602001916104f5565b820191906000526020600020905b8154815290600101906020018083116104d857829003601f168201915b5050505050955080600201805461050b90611e07565b80601f016020809104026020016040519081016040528092919081815260200182805461053790611e07565b80156105845780601f1061055957610100808354040283529160200191610584565b820191906000526020600020905b81548152906001019060200180831161056757829003601f168201915b50505050509450806003015493508060040160009054906101000a900473ffffffffffffffffffffffffffffffffffffffff1692506000816006018054905090508067ffffffffffffffff811115610605577f4e487b7100000000000000000000000000000000000000000000000000000000600052604160045260246000fd5b6040519080825280602002602001820160405280156106335781602001602082028036833780820191505090505b50925060005b818110156106e05782600601818154811061067d577f4e487b7100000000000000000000000000000000000000000000000000000000600052603260045260246000fd5b90600052602060002001548482815181106106c1577f4e487b7100000000000000000000000000000000000000000000000000000000600052603260045260246000fd5b60200260200101818152505080806106d890611e39565b915050610639565b50505091939550919395565b6000600160008881526020019081526020016000209050868160000181905550858160010190805190602001906107249291906111ae565b508481600201908051906020019061073d9291906111ae565b50838160030181905550818160040160006101000a81548173ffffffffffffffffffffffffffffffffffffffff021916908373ffffffffffffffffffffffffffffffffffffffff160217905550600287908060018154018082558091505060019003906000526020600020016000909190919091505560008060009054906101000a900473ffffffffffffffffffffffffffffffffffffffff1690508073ffffffffffffffffffffffffffffffffffffffff1663c6361c228489876040518463ffffffff1660e01b815260040161081693929190611a4b565b600060405180830381600087803b15801561083057600080fd5b505af1158015610844573d6000803e3d6000fd5b505050505050505050505050565b600060016000848152602001908152602001600020905060005b816006018054905081101561091757828260060182815481106108b8577f4e487b7100000000000000000000000000000000000000000000000000000000600052603260045260246000fd5b90600052602060002001541415610904576040517f08c379a00000000000000000000000000000000000000000000000000000000081526004016108fb90611ae7565b60405180910390fd5b808061090f90611e39565b91505061086c565b50806006018290806001815401808255809150506001900390600052602060002001600090919091909150558181600701600084815260200190815260200160002060000181905550505050565b60606000600160008581526020019081526020016000209050600081600701600085815260200190815260200160002090506000816002018054905067ffffffffffffffff8111156109e0577f4e487b7100000000000000000000000000000000000000000000000000000000600052604160045260246000fd5b604051908082528060200260200182016040528015610a1357816020015b60608152602001906001900390816109fe5790505b50905060005b8260020180549050811015610b705782600101836002018281548110610a68577f4e487b7100000000000000000000000000000000000000000000000000000000600052603260045260246000fd5b90600052602060002001604051610a7f9190611a19565b90815260200160405180910390206000018054610a9b90611e07565b80601f0160208091040260200160405190810160405280929190818152602001828054610ac790611e07565b8015610b145780601f10610ae957610100808354040283529160200191610b14565b820191906000526020600020905b815481529060010190602001808311610af757829003601f168201915b5050505050828281518110610b52577f4e487b7100000000000000000000000000000000000000000000000000000000600052603260045260246000fd5b60200260200101819052508080610b6890611e39565b915050610a19565b5080935050505092915050565b600060016000878152602001908152602001600020905060008160070160008781526020019081526020016000209050604051806080016040528086815260200185815260200184815260200160008152508160010186604051610be19190611a02565b90815260200160405180910390206000820151816000019080519060200190610c0b9291906111ae565b506020820151816001019080519060200190610c289291906111ae565b5060408201518160020155606082015181600301559050508060020185908060018154018082558091505060019003906000526020600020016000909190919091509080519060200190610c7d9291906111ae565b5050505050505050565b60008054906101000a900473ffffffffffffffffffffffffffffffffffffffff1681565b6060600060028054905067ffffffffffffffff811115610cf4577f4e487b7100000000000000000000000000000000000000000000000000000000600052604160045260246000fd5b604051908082528060200260200182016040528015610d2d57816020015b610d1a611234565b815260200190600190039081610d125790505b50905060005b6002805490508110156110065760006001600060028481548110610d80577f4e487b7100000000000000000000000000000000000000000000000000000000600052603260045260246000fd5b9060005260206000200154815260200190815260200160002090506040518060c0016040528082600001548152602001826001018054610dbf90611e07565b80601f0160208091040260200160405190810160405280929190818152602001828054610deb90611e07565b8015610e385780601f10610e0d57610100808354040283529160200191610e38565b820191906000526020600020905b815481529060010190602001808311610e1b57829003601f168201915b50505050508152602001826002018054610e5190611e07565b80601f0160208091040260200160405190810160405280929190818152602001828054610e7d90611e07565b8015610eca5780601f10610e9f57610100808354040283529160200191610eca565b820191906000526020600020905b815481529060010190602001808311610ead57829003601f168201915b5050505050815260200182600301548152602001826005018054610eed90611e07565b80601f0160208091040260200160405190810160405280929190818152602001828054610f1990611e07565b8015610f665780601f10610f3b57610100808354040283529160200191610f66565b820191906000526020600020905b815481529060010190602001808311610f4957829003601f168201915b505050505081526020018260040160009054906101000a900473ffffffffffffffffffffffffffffffffffffffff1673ffffffffffffffffffffffffffffffffffffffff16815250838381518110610fe7577f4e487b7100000000000000000000000000000000000000000000000000000000600052603260045260246000fd5b6020026020010181905250508080610ffe90611e39565b915050610d33565b508091505090565b611016611280565b6000600160008681526020019081526020016000209050806007016000858152602001908152602001600020600101836040516110539190611a02565b908152602001604051809103902060405180608001604052908160008201805461107c90611e07565b80601f01602080910402602001604051908101604052809291908181526020018280546110a890611e07565b80156110f55780601f106110ca576101008083540402835291602001916110f5565b820191906000526020600020905b8154815290600101906020018083116110d857829003601f168201915b5050505050815260200160018201805461110e90611e07565b80601f016020809104026020016040519081016040528092919081815260200182805461113a90611e07565b80156111875780601f1061115c57610100808354040283529160200191611187565b820191906000526020600020905b81548152906001019060200180831161116a57829003601f168201915b50505050508152602001600282015481526020016003820154815250509150509392505050565b8280546111ba90611e07565b90600052602060002090601f0160209004810192826111dc5760008555611223565b82601f106111f557805160ff1916838001178555611223565b82800160010185558215611223579182015b82811115611222578251825591602001919060010190611207565b5b50905061123091906112a8565b5090565b6040518060c001604052806000815260200160608152602001606081526020016000815260200160608152602001600073ffffffffffffffffffffffffffffffffffffffff1681525090565b6040518060800160405280606081526020016060815260200160008152602001600081525090565b5b808211156112c15760008160009055506001016112a9565b5090565b60006112d86112d384611c61565b611c30565b9050828152602081018484840111156112f057600080fd5b6112fb848285611dc5565b509392505050565b60008135905061131281611f20565b92915050565b600082601f83011261132957600080fd5b81356113398482602086016112c5565b91505092915050565b60008135905061135181611f37565b92915050565b60006020828403121561136957600080fd5b600061137784828501611342565b91505092915050565b60008060008060008060c0878903121561139957600080fd5b60006113a789828a01611342565b965050602087013567ffffffffffffffff8111156113c457600080fd5b6113d089828a01611318565b955050604087013567ffffffffffffffff8111156113ed57600080fd5b6113f989828a01611318565b945050606061140a89828a01611342565b935050608087013567ffffffffffffffff81111561142757600080fd5b61143389828a01611318565b92505060a061144489828a01611303565b9150509295509295509295565b6000806040838503121561146457600080fd5b600061147285828601611342565b925050602061148385828601611342565b9150509250929050565b6000806000606084860312156114a257600080fd5b60006114b086828701611342565b93505060206114c186828701611342565b925050604084013567ffffffffffffffff8111156114de57600080fd5b6114ea86828701611318565b9150509250925092565b600080600080600060a0868803121561150c57600080fd5b600061151a88828901611342565b955050602061152b88828901611342565b945050604086013567ffffffffffffffff81111561154857600080fd5b61155488828901611318565b935050606086013567ffffffffffffffff81111561157157600080fd5b61157d88828901611318565b925050608061158e88828901611342565b9150509295509295909350565b60006115a78383611741565b905092915050565b60006115bb838361194d565b905092915050565b60006115cf83836119e4565b60208301905092915050565b6115e481611d89565b82525050565b6115f381611d89565b82525050565b600061160482611cd6565b61160e8185611d29565b93508360208202850161162085611c91565b8060005b8581101561165c578484038952815161163d858261159b565b945061164883611d02565b925060208a01995050600181019050611624565b50829750879550505050505092915050565b600061167982611ce1565b6116838185611d3a565b93508360208202850161169585611ca1565b8060005b858110156116d157848403895281516116b285826115af565b94506116bd83611d0f565b925060208a01995050600181019050611699565b50829750879550505050505092915050565b60006116ee82611cec565b6116f88185611d4b565b935061170383611cb1565b8060005b8381101561173457815161171b88826115c3565b975061172683611d1c565b925050600181019050611707565b5085935050505092915050565b600061174c82611cf7565b6117568185611d5c565b9350611766818560208601611dd4565b61176f81611f0f565b840191505092915050565b600061178582611cf7565b61178f8185611d6d565b935061179f818560208601611dd4565b6117a881611f0f565b840191505092915050565b60006117be82611cf7565b6117c88185611d7e565b93506117d8818560208601611dd4565b80840191505092915050565b600081546117f181611e07565b6117fb8186611d7e565b9450600182166000811461181657600181146118275761185a565b60ff1983168652818601935061185a565b61183085611cc1565b60005b8381101561185257815481890152600182019150602081019050611833565b838801955050505b50505092915050565b6000611870601683611d6d565b91507f53656d657374657220616c7265616479206164646564000000000000000000006000830152602082019050919050565b60006118b0600783611d6d565b91507f53747564656e74000000000000000000000000000000000000000000000000006000830152602082019050919050565b600060808301600083015184820360008601526119008282611741565b9150506020830151848203602086015261191a8282611741565b915050604083015161192f60408601826119e4565b50606083015161194260608601826119e4565b508091505092915050565b600060c08301600083015161196560008601826119e4565b506020830151848203602086015261197d8282611741565b915050604083015184820360408601526119978282611741565b91505060608301516119ac60608601826119e4565b50608083015184820360808601526119c48282611741565b91505060a08301516119d960a08601826115db565b508091505092915050565b6119ed81611dbb565b82525050565b6119fc81611dbb565b82525050565b6000611a0e82846117b3565b915081905092915050565b6000611a2582846117e4565b915081905092915050565b6000602082019050611a4560008301846115ea565b92915050565b6000608082019050611a6060008301866115ea565b8181036020830152611a72818561177a565b90508181036040830152611a86818461177a565b90508181036060830152611a99816118a3565b9050949350505050565b60006020820190508181036000830152611abd81846115f9565b905092915050565b60006020820190508181036000830152611adf818461166e565b905092915050565b60006020820190508181036000830152611b0081611863565b9050919050565b60006020820190508181036000830152611b2181846118e3565b905092915050565b6000602082019050611b3e60008301846119f3565b92915050565b600060c082019050611b5960008301896119f3565b8181036020830152611b6b818861177a565b90508181036040830152611b7f818761177a565b9050611b8e60608301866119f3565b611b9b60808301856115ea565b81810360a0830152611bad81846116e3565b9050979650505050505050565b600060c082019050611bcf60008301896119f3565b8181036020830152611be1818861177a565b90508181036040830152611bf5818761177a565b9050611c0460608301866119f3565b611c1160808301856115ea565b81810360a0830152611c23818461177a565b9050979650505050505050565b6000604051905081810181811067ffffffffffffffff82111715611c5757611c56611ee0565b5b8060405250919050565b600067ffffffffffffffff821115611c7c57611c7b611ee0565b5b601f19601f8301169050602081019050919050565b6000819050602082019050919050565b6000819050602082019050919050565b6000819050602082019050919050565b60008190508160005260206000209050919050565b600081519050919050565b600081519050919050565b600081519050919050565b600081519050919050565b6000602082019050919050565b6000602082019050919050565b6000602082019050919050565b600082825260208201905092915050565b600082825260208201905092915050565b600082825260208201905092915050565b600082825260208201905092915050565b600082825260208201905092915050565b600081905092915050565b6000611d9482611d9b565b9050919050565b600073ffffffffffffffffffffffffffffffffffffffff82169050919050565b6000819050919050565b82818337600083830152505050565b60005b83811015611df2578082015181840152602081019050611dd7565b83811115611e01576000848401525b50505050565b60006002820490506001821680611e1f57607f821691505b60208210811415611e3357611e32611eb1565b5b50919050565b6000611e4482611dbb565b91507fffffffffffffffffffffffffffffffffffffffffffffffffffffffffffffffff821415611e7757611e76611e82565b5b600182019050919050565b7f4e487b7100000000000000000000000000000000000000000000000000000000600052601160045260246000fd5b7f4e487b7100000000000000000000000000000000000000000000000000000000600052602260045260246000fd5b7f4e487b7100000000000000000000000000000000000000000000000000000000600052604160045260246000fd5b6000601f19601f8301169050919050565b611f2981611d89565b8114611f3457600080fd5b50565b611f4081611dbb565b8114611f4b57600080fd5b5056fea26469706673582212208097a4f603422756055524b6d927dd7230d165ec930c42bdc2cb359b308b246064736f6c63430008000033",
  "immutableReferences": {},
  "source": "pragma solidity ^0.8.0;\r\nimport \"./usersStore.sol\";\r\n\r\ncontract StudentsStore {\r\n    address public usersStoreAddress;\r\n\r\n    struct Course {\r\n        string courseCode;\r\n        string courseName;\r\n        uint maxGrade;\r\n        uint studentGrade;\r\n    }\r\n\r\n   struct Semester {\r\n        uint id;\r\n        mapping(string => Course) courses;\r\n        string[] courseCodes;\r\n    }\r\n\r\n    struct Student {\r\n        uint universityID;\r\n        string name;\r\n        string program;\r\n        uint submissionYear;\r\n        address publicAddress;\r\n        string email;\r\n        uint[] semesterIDs; // Added field to store semester IDs\r\n        mapping(uint => Semester) semesters;\r\n    }\r\n\r\n    struct SimpleStudent {\r\n        uint universityID;\r\n        string name;\r\n        string program;\r\n        uint submissionYear;\r\n        string email;\r\n        address publicAddress;\r\n    }\r\n\r\n    constructor(address _usersStoreAddress) public {\r\n        usersStoreAddress = _usersStoreAddress;\r\n    }\r\n\r\n    mapping(uint => Student) public students;\r\n    uint[] public studentIDs;\r\n\r\n    function addStudent(\r\n        uint _universityID,\r\n        string memory _name,\r\n        string memory _program,\r\n        uint _submissionYear,\r\n        string memory _email,\r\n        address _publicAddress\r\n    ) public {\r\n        Student storage student = students[_universityID];\r\n        student.universityID = _universityID;\r\n        student.name = _name;\r\n        student.program = _program;\r\n        student.submissionYear = _submissionYear;\r\n        student.publicAddress = _publicAddress;\r\n        studentIDs.push(_universityID);\r\n        UsersStore usersStore = UsersStore(usersStoreAddress);\r\n        usersStore.addUser(_publicAddress, _name, _email, \"Student\");\r\n    }\r\n     function addSemester(uint _universityID, uint _semesterID) public {\r\n    Student storage student = students[_universityID];\r\n\r\n    // Check if the semester ID already exists in the semesterIDs array\r\n    for (uint i = 0; i < student.semesterIDs.length; i++) {\r\n        if (student.semesterIDs[i] == _semesterID) {\r\n            revert(\"Semester already added\");\r\n        }\r\n    }\r\n\r\n    // Add the semester ID to the array and set the semester ID in the semesters mapping\r\n    student.semesterIDs.push(_semesterID);\r\n    student.semesters[_semesterID].id = _semesterID;\r\n}\r\n\r\n\r\n   function addCourse(\r\n    uint _universityID,\r\n    uint _semesterID,\r\n    string memory _courseCode,\r\n    string memory _courseName,\r\n    uint _maxGrade\r\n) public {\r\n    Student storage student = students[_universityID];\r\n    Semester storage semester = student.semesters[_semesterID];\r\n    semester.courses[_courseCode] = Course(_courseCode, _courseName, _maxGrade, 0);\r\n    semester.courseCodes.push(_courseCode); // Add the course code to the array\r\n}\r\n\r\n   function getStudentCourses(uint _universityID, uint _semesterID) public view returns (string[] memory) {\r\n    Student storage student = students[_universityID];\r\n    Semester storage semester = student.semesters[_semesterID];\r\n\r\n    // Retrieve the course codes from the semester mapping\r\n    string[] memory courseCodes = new string[](semester.courseCodes.length);\r\n    for (uint i = 0; i < semester.courseCodes.length; i++) {\r\n        courseCodes[i] = semester.courses[semester.courseCodes[i]].courseCode;\r\n    }\r\n\r\n    return courseCodes;\r\n}\r\n\r\n\r\n    function getStudentCourse(\r\n        uint _universityID,\r\n        uint _semesterID,\r\n        string memory _courseCode\r\n    ) public view returns (Course memory) {\r\n        Student storage student = students[_universityID];\r\n        return student.semesters[_semesterID].courses[_courseCode];\r\n    }\r\n    function getStudentInfo(uint _universityID) public view returns (\r\n    uint universityID,\r\n    string memory name,\r\n    string memory program,\r\n    uint submissionYear,\r\n    address publicAddress,\r\n    uint[] memory semesterIDs\r\n) {\r\n    Student storage student = students[_universityID];\r\n    universityID = student.universityID;\r\n    name = student.name;\r\n    program = student.program;\r\n    submissionYear = student.submissionYear;\r\n    publicAddress = student.publicAddress;\r\n\r\n    uint numSemesters = student.semesterIDs.length;\r\n    semesterIDs = new uint[](numSemesters);\r\n\r\n    for (uint i = 0; i < numSemesters; i++) {\r\n        semesterIDs[i] = student.semesterIDs[i];\r\n    }\r\n}\r\n\r\n\r\n    function getStudents() public view returns (SimpleStudent[] memory) {\r\n        // Create an array to store the students\r\n        SimpleStudent[] memory allStudents = new SimpleStudent[](studentIDs.length);\r\n\r\n        // Add the students to the array\r\n        for (uint i = 0; i < studentIDs.length; i++) {\r\n            Student storage student = students[studentIDs[i]];\r\n            allStudents[i] = SimpleStudent(\r\n                student.universityID,\r\n                student.name,\r\n                student.program,\r\n                student.submissionYear,\r\n                student.email,\r\n                student.publicAddress\r\n            );\r\n        }\r\n\r\n        return allStudents;\r\n    }\r\n}\r\n",
  "sourcePath": "B:\\KSA students\\Projects and Labs\\Student-carrer-eth-app\\backEnd\\contracts\\StudentsStore.sol",
  "compiler": {
    "name": "solc",
    "version": "0.8.0+commit.c7dfd78e.Emscripten.clang"
  },
  "schemaVersion": "3.4.13",
  "updatedAt": "2023-05-28T21:35:46.775Z",
  "networkType": "ethereum",
  "devdoc": {
    "kind": "dev",
    "methods": {},
    "version": 1
  },
  "userdoc": {
    "kind": "user",
    "methods": {},
    "version": 1
  }
}