{
  "contractName": "StudentsStore",
  "abi": [
    {
      "inputs": [
        {
          "internalType": "address",
          "name": "_usersStoreAddress",
          "type": "address"
        },
        {
          "internalType": "address",
          "name": "_tokenContractAddress",
          "type": "address"
        }
      ],
      "stateMutability": "nonpayable",
      "type": "constructor"
    },
    {
      "inputs": [
        {
          "internalType": "uint256",
          "name": "",
          "type": "uint256"
        }
      ],
      "name": "studentIDs",
      "outputs": [
        {
          "internalType": "uint256",
          "name": "",
          "type": "uint256"
        }
      ],
      "stateMutability": "view",
      "type": "function",
      "constant": true
    },
    {
      "inputs": [
        {
          "internalType": "uint256",
          "name": "",
          "type": "uint256"
        }
      ],
      "name": "students",
      "outputs": [
        {
          "internalType": "uint256",
          "name": "universityID",
          "type": "uint256"
        },
        {
          "internalType": "string",
          "name": "name",
          "type": "string"
        },
        {
          "internalType": "string",
          "name": "program",
          "type": "string"
        },
        {
          "internalType": "uint256",
          "name": "submissionYear",
          "type": "uint256"
        },
        {
          "internalType": "address",
          "name": "publicAddress",
          "type": "address"
        },
        {
          "internalType": "string",
          "name": "email",
          "type": "string"
        }
      ],
      "stateMutability": "view",
      "type": "function",
      "constant": true
    },
    {
      "inputs": [],
      "name": "tokenContractAddress",
      "outputs": [
        {
          "internalType": "address",
          "name": "",
          "type": "address"
        }
      ],
      "stateMutability": "view",
      "type": "function",
      "constant": true
    },
    {
      "inputs": [],
      "name": "usersStoreAddress",
      "outputs": [
        {
          "internalType": "address",
          "name": "",
          "type": "address"
        }
      ],
      "stateMutability": "view",
      "type": "function",
      "constant": true
    },
    {
      "inputs": [
        {
          "internalType": "uint256",
          "name": "_universityID",
          "type": "uint256"
        },
        {
          "internalType": "string",
          "name": "_name",
          "type": "string"
        },
        {
          "internalType": "string",
          "name": "_program",
          "type": "string"
        },
        {
          "internalType": "uint256",
          "name": "_submissionYear",
          "type": "uint256"
        },
        {
          "internalType": "string",
          "name": "_email",
          "type": "string"
        },
        {
          "internalType": "address",
          "name": "_publicAddress",
          "type": "address"
        },
        {
          "internalType": "uint256",
          "name": "_initialTokenAmount",
          "type": "uint256"
        }
      ],
      "name": "addStudent",
      "outputs": [],
      "stateMutability": "nonpayable",
      "type": "function"
    },
    {
      "inputs": [
        {
          "internalType": "uint256",
          "name": "_universityID",
          "type": "uint256"
        },
        {
          "internalType": "uint256",
          "name": "_semesterID",
          "type": "uint256"
        }
      ],
      "name": "addSemester",
      "outputs": [],
      "stateMutability": "nonpayable",
      "type": "function"
    },
    {
      "inputs": [
        {
          "internalType": "uint256",
          "name": "_universityID",
          "type": "uint256"
        },
        {
          "internalType": "uint256",
          "name": "_semesterID",
          "type": "uint256"
        },
        {
          "internalType": "string",
          "name": "_courseCode",
          "type": "string"
        },
        {
          "internalType": "string",
          "name": "_courseName",
          "type": "string"
        },
        {
          "internalType": "uint256",
          "name": "_maxGrade",
          "type": "uint256"
        },
        {
          "internalType": "uint256",
          "name": "_studentGrade",
          "type": "uint256"
        }
      ],
      "name": "addCourse",
      "outputs": [],
      "stateMutability": "nonpayable",
      "type": "function"
    },
    {
      "inputs": [
        {
          "internalType": "uint256",
          "name": "_universityID",
          "type": "uint256"
        },
        {
          "internalType": "uint256",
          "name": "_semesterID",
          "type": "uint256"
        }
      ],
      "name": "getStudentCourses",
      "outputs": [
        {
          "internalType": "string[]",
          "name": "",
          "type": "string[]"
        }
      ],
      "stateMutability": "view",
      "type": "function",
      "constant": true
    },
    {
      "inputs": [
        {
          "internalType": "uint256",
          "name": "_universityID",
          "type": "uint256"
        },
        {
          "internalType": "uint256",
          "name": "_semesterID",
          "type": "uint256"
        },
        {
          "internalType": "string",
          "name": "_courseCode",
          "type": "string"
        }
      ],
      "name": "getStudentCourse",
      "outputs": [
        {
          "components": [
            {
              "internalType": "string",
              "name": "courseCode",
              "type": "string"
            },
            {
              "internalType": "string",
              "name": "courseName",
              "type": "string"
            },
            {
              "internalType": "uint256",
              "name": "maxGrade",
              "type": "uint256"
            },
            {
              "internalType": "uint256",
              "name": "studentGrade",
              "type": "uint256"
            }
          ],
          "internalType": "struct StudentsStore.Course",
          "name": "",
          "type": "tuple"
        }
      ],
      "stateMutability": "view",
      "type": "function",
      "constant": true
    },
    {
      "inputs": [
        {
          "internalType": "uint256",
          "name": "_universityID",
          "type": "uint256"
        }
      ],
      "name": "getStudentInfo",
      "outputs": [
        {
          "internalType": "uint256",
          "name": "universityID",
          "type": "uint256"
        },
        {
          "internalType": "string",
          "name": "name",
          "type": "string"
        },
        {
          "internalType": "string",
          "name": "program",
          "type": "string"
        },
        {
          "internalType": "uint256",
          "name": "submissionYear",
          "type": "uint256"
        },
        {
          "internalType": "address",
          "name": "publicAddress",
          "type": "address"
        },
        {
          "internalType": "uint256[]",
          "name": "semesterIDs",
          "type": "uint256[]"
        }
      ],
      "stateMutability": "view",
      "type": "function",
      "constant": true
    },
    {
      "inputs": [],
      "name": "getStudents",
      "outputs": [
        {
          "components": [
            {
              "internalType": "uint256",
              "name": "universityID",
              "type": "uint256"
            },
            {
              "internalType": "string",
              "name": "name",
              "type": "string"
            },
            {
              "internalType": "string",
              "name": "program",
              "type": "string"
            },
            {
              "internalType": "uint256",
              "name": "submissionYear",
              "type": "uint256"
            },
            {
              "internalType": "string",
              "name": "email",
              "type": "string"
            },
            {
              "internalType": "address",
              "name": "publicAddress",
              "type": "address"
            }
          ],
          "internalType": "struct StudentsStore.SimpleStudent[]",
          "name": "",
          "type": "tuple[]"
        }
      ],
      "stateMutability": "view",
      "type": "function",
      "constant": true
    },
    {
      "inputs": [
        {
          "internalType": "uint256",
          "name": "_universityID",
          "type": "uint256"
        }
      ],
      "name": "showStudentInfoByToken",
      "outputs": [
        {
          "internalType": "uint256",
          "name": "universityID",
          "type": "uint256"
        },
        {
          "internalType": "string",
          "name": "name",
          "type": "string"
        },
        {
          "internalType": "string",
          "name": "program",
          "type": "string"
        },
        {
          "internalType": "uint256",
          "name": "submissionYear",
          "type": "uint256"
        },
        {
          "internalType": "address",
          "name": "publicAddress",
          "type": "address"
        },
        {
          "internalType": "uint256[]",
          "name": "semesterIDs",
          "type": "uint256[]"
        }
      ],
      "stateMutability": "view",
      "type": "function",
      "constant": true
    },
    {
      "inputs": [
        {
          "internalType": "uint256",
          "name": "_universityID",
          "type": "uint256"
        },
        {
          "internalType": "address",
          "name": "_employer",
          "type": "address"
        }
      ],
      "name": "grantTokenAllowance",
      "outputs": [],
      "stateMutability": "nonpayable",
      "type": "function"
    }
  ],
  "bytecode": "0x60806040523480156200001157600080fd5b50604051620029b7380380620029b78339818101604052810190620000379190620000d7565b816000806101000a81548173ffffffffffffffffffffffffffffffffffffffff021916908373ffffffffffffffffffffffffffffffffffffffff16021790555080600160006101000a81548173ffffffffffffffffffffffffffffffffffffffff021916908373ffffffffffffffffffffffffffffffffffffffff160217905550505062000166565b600081519050620000d1816200014c565b92915050565b60008060408385031215620000eb57600080fd5b6000620000fb85828601620000c0565b92505060206200010e85828601620000c0565b9150509250929050565b600062000125826200012c565b9050919050565b600073ffffffffffffffffffffffffffffffffffffffff82169050919050565b620001578162000118565b81146200016357600080fd5b50565b61284180620001766000396000f3fe608060405234801561001057600080fd5b50600436106100cf5760003560e01c8063b3bfc9d71161008c578063eb41fc7211610066578063eb41fc7214610245578063f1d064b314610263578063f6238a8c14610281578063fe7721ea146102b1576100cf565b8063b3bfc9d7146101dd578063b69185d4146101f9578063dbbd4bfa14610229576100cf565b806306ead22e146100d45780632ce349be146101095780632d405c461461013957806365a81d7d1461016e57806382edaf94146101a35780638b2b284b146101c1575b600080fd5b6100ee60048036038101906100e991906119c3565b6102cd565b60405161010096959493929190612477565b60405180910390f35b610123600480360381019061011e91906119c3565b6104c1565b60405161013091906123e6565b60405180910390f35b610153600480360381019061014e91906119c3565b6104e5565b60405161016596959493929190612401565b60405180910390f35b610188600480360381019061018391906119c3565b610848565b60405161019a96959493929190612401565b60405180910390f35b6101ab610aef565b6040516101b89190612228565b60405180910390f35b6101db60048036038101906101d69190611b37565b610b15565b005b6101f760048036038101906101f29190611a15565b610c28565b005b610213600480360381019061020e9190611b37565b610d81565b60405161022091906122e0565b60405180910390f35b610243600480360381019061023e9190611a51565b610f99565b005b61024d6111b2565b60405161025a9190612228565b60405180910390f35b61026b6111d6565b6040516102789190612302565b60405180910390f35b61029b60048036038101906102969190611b73565b611539565b6040516102a891906123c4565b60405180910390f35b6102cb60048036038101906102c69190611bda565b6116d9565b005b60026020528060005260406000206000915090508060000154908060010180546102f6906126c4565b80601f0160208091040260200160405190810160405280929190818152602001828054610322906126c4565b801561036f5780601f106103445761010080835404028352916020019161036f565b820191906000526020600020905b81548152906001019060200180831161035257829003601f168201915b505050505090806002018054610384906126c4565b80601f01602080910402602001604051908101604052809291908181526020018280546103b0906126c4565b80156103fd5780601f106103d2576101008083540402835291602001916103fd565b820191906000526020600020905b8154815290600101906020018083116103e057829003601f168201915b5050505050908060030154908060040160009054906101000a900473ffffffffffffffffffffffffffffffffffffffff169080600501805461043e906126c4565b80601f016020809104026020016040519081016040528092919081815260200182805461046a906126c4565b80156104b75780601f1061048c576101008083540402835291602001916104b7565b820191906000526020600020905b81548152906001019060200180831161049a57829003601f168201915b5050505050905086565b600381815481106104d157600080fd5b906000526020600020016000915090505481565b600060608060008060606000600160009054906101000a900473ffffffffffffffffffffffffffffffffffffffff16905060008173ffffffffffffffffffffffffffffffffffffffff166370a08231336040518263ffffffff1660e01b81526004016105519190612228565b60206040518083038186803b15801561056957600080fd5b505afa15801561057d573d6000803e3d6000fd5b505050506040513d601f19601f820116820180604052508101906105a191906119ec565b116105e1576040517f08c379a00000000000000000000000000000000000000000000000000000000081526004016105d890612384565b60405180910390fd5b6004600089815260200190815260200160002060003373ffffffffffffffffffffffffffffffffffffffff1673ffffffffffffffffffffffffffffffffffffffff16815260200190815260200160002060009054906101000a900460ff1661067e576040517f08c379a000000000000000000000000000000000000000000000000000000000815260040161067590612364565b60405180910390fd5b6000600260008a81526020019081526020016000209050806000015497508060010180546106ab906126c4565b80601f01602080910402602001604051908101604052809291908181526020018280546106d7906126c4565b80156107245780601f106106f957610100808354040283529160200191610724565b820191906000526020600020905b81548152906001019060200180831161070757829003601f168201915b5050505050965080600201805461073a906126c4565b80601f0160208091040260200160405190810160405280929190818152602001828054610766906126c4565b80156107b35780601f10610788576101008083540402835291602001916107b3565b820191906000526020600020905b81548152906001019060200180831161079657829003601f168201915b50505050509550806003015494508060040160009054906101000a900473ffffffffffffffffffffffffffffffffffffffff1693508060060180548060200260200160405190810160405280929190818152602001828054801561083657602002820191906000526020600020905b815481526020019060010190808311610822575b50505050509250505091939550919395565b6000606080600080606060006002600089815260200190815260200160002090508060000154965080600101805461087f906126c4565b80601f01602080910402602001604051908101604052809291908181526020018280546108ab906126c4565b80156108f85780601f106108cd576101008083540402835291602001916108f8565b820191906000526020600020905b8154815290600101906020018083116108db57829003601f168201915b5050505050955080600201805461090e906126c4565b80601f016020809104026020016040519081016040528092919081815260200182805461093a906126c4565b80156109875780601f1061095c57610100808354040283529160200191610987565b820191906000526020600020905b81548152906001019060200180831161096a57829003601f168201915b50505050509450806003015493508060040160009054906101000a900473ffffffffffffffffffffffffffffffffffffffff1692506000816006018054905090508067ffffffffffffffff811115610a08577f4e487b7100000000000000000000000000000000000000000000000000000000600052604160045260246000fd5b604051908082528060200260200182016040528015610a365781602001602082028036833780820191505090505b50925060005b81811015610ae357826006018181548110610a80577f4e487b7100000000000000000000000000000000000000000000000000000000600052603260045260246000fd5b9060005260206000200154848281518110610ac4577f4e487b7100000000000000000000000000000000000000000000000000000000600052603260045260246000fd5b6020026020010181815250508080610adb906126f6565b915050610a3c565b50505091939550919395565b600160009054906101000a900473ffffffffffffffffffffffffffffffffffffffff1681565b600060026000848152602001908152602001600020905060005b8160060180549050811015610bda5782826006018281548110610b7b577f4e487b7100000000000000000000000000000000000000000000000000000000600052603260045260246000fd5b90600052602060002001541415610bc7576040517f08c379a0000000000000000000000000000000000000000000000000000000008152600401610bbe90612324565b60405180910390fd5b8080610bd2906126f6565b915050610b2f565b50806006018290806001815401808255809150506001900390600052602060002001600090919091909150558181600701600084815260200190815260200160002060000181905550505050565b610c31826117e3565b610c70576040517f08c379a0000000000000000000000000000000000000000000000000000000008152600401610c6790612344565b60405180910390fd5b6002600083815260200190815260200160002060040160009054906101000a900473ffffffffffffffffffffffffffffffffffffffff1673ffffffffffffffffffffffffffffffffffffffff163373ffffffffffffffffffffffffffffffffffffffff1614610d14576040517f08c379a0000000000000000000000000000000000000000000000000000000008152600401610d0b906123a4565b60405180910390fd5b60016004600084815260200190815260200160002060008373ffffffffffffffffffffffffffffffffffffffff1673ffffffffffffffffffffffffffffffffffffffff16815260200190815260200160002060006101000a81548160ff0219169083151502179055505050565b60606000600260008581526020019081526020016000209050600081600701600085815260200190815260200160002090506000816002018054905067ffffffffffffffff811115610dfc577f4e487b7100000000000000000000000000000000000000000000000000000000600052604160045260246000fd5b604051908082528060200260200182016040528015610e2f57816020015b6060815260200190600190039081610e1a5790505b50905060005b8260020180549050811015610f8c5782600101836002018281548110610e84577f4e487b7100000000000000000000000000000000000000000000000000000000600052603260045260246000fd5b90600052602060002001604051610e9b9190612211565b90815260200160405180910390206000018054610eb7906126c4565b80601f0160208091040260200160405190810160405280929190818152602001828054610ee3906126c4565b8015610f305780601f10610f0557610100808354040283529160200191610f30565b820191906000526020600020905b815481529060010190602001808311610f1357829003601f168201915b5050505050828281518110610f6e577f4e487b7100000000000000000000000000000000000000000000000000000000600052603260045260246000fd5b60200260200101819052508080610f84906126f6565b915050610e35565b5080935050505092915050565b600060026000898152602001908152602001600020905087816000018190555086816001019080519060200190610fd1929190611805565b5085816002019080519060200190610fea929190611805565b50848160030181905550828160040160006101000a81548173ffffffffffffffffffffffffffffffffffffffff021916908373ffffffffffffffffffffffffffffffffffffffff1602179055508381600501908051906020019061104f929190611805565b5060038890806001815401808255809150506001900390600052602060002001600090919091909150556000600160009054906101000a900473ffffffffffffffffffffffffffffffffffffffff1690508073ffffffffffffffffffffffffffffffffffffffff1663dced9e01858533876040518563ffffffff1660e01b81526004016110df949392919061229b565b600060405180830381600087803b1580156110f957600080fd5b505af115801561110d573d6000803e3d6000fd5b5050505060008060009054906101000a900473ffffffffffffffffffffffffffffffffffffffff1690508073ffffffffffffffffffffffffffffffffffffffff1663c6361c22868b896040518463ffffffff1660e01b815260040161117493929190612243565b600060405180830381600087803b15801561118e57600080fd5b505af11580156111a2573d6000803e3d6000fd5b5050505050505050505050505050565b60008054906101000a900473ffffffffffffffffffffffffffffffffffffffff1681565b6060600060038054905067ffffffffffffffff81111561121f577f4e487b7100000000000000000000000000000000000000000000000000000000600052604160045260246000fd5b60405190808252806020026020018201604052801561125857816020015b61124561188b565b81526020019060019003908161123d5790505b50905060005b60038054905081101561153157600060026000600384815481106112ab577f4e487b7100000000000000000000000000000000000000000000000000000000600052603260045260246000fd5b9060005260206000200154815260200190815260200160002090506040518060c00160405280826000015481526020018260010180546112ea906126c4565b80601f0160208091040260200160405190810160405280929190818152602001828054611316906126c4565b80156113635780601f1061133857610100808354040283529160200191611363565b820191906000526020600020905b81548152906001019060200180831161134657829003601f168201915b5050505050815260200182600201805461137c906126c4565b80601f01602080910402602001604051908101604052809291908181526020018280546113a8906126c4565b80156113f55780601f106113ca576101008083540402835291602001916113f5565b820191906000526020600020905b8154815290600101906020018083116113d857829003601f168201915b5050505050815260200182600301548152602001826005018054611418906126c4565b80601f0160208091040260200160405190810160405280929190818152602001828054611444906126c4565b80156114915780601f1061146657610100808354040283529160200191611491565b820191906000526020600020905b81548152906001019060200180831161147457829003601f168201915b505050505081526020018260040160009054906101000a900473ffffffffffffffffffffffffffffffffffffffff1673ffffffffffffffffffffffffffffffffffffffff16815250838381518110611512577f4e487b7100000000000000000000000000000000000000000000000000000000600052603260045260246000fd5b6020026020010181905250508080611529906126f6565b91505061125e565b508091505090565b6115416118d7565b60006002600086815260200190815260200160002090508060070160008581526020019081526020016000206001018360405161157e91906121fa565b90815260200160405180910390206040518060800160405290816000820180546115a7906126c4565b80601f01602080910402602001604051908101604052809291908181526020018280546115d3906126c4565b80156116205780601f106115f557610100808354040283529160200191611620565b820191906000526020600020905b81548152906001019060200180831161160357829003601f168201915b50505050508152602001600182018054611639906126c4565b80601f0160208091040260200160405190810160405280929190818152602001828054611665906126c4565b80156116b25780601f10611687576101008083540402835291602001916116b2565b820191906000526020600020905b81548152906001019060200180831161169557829003601f168201915b50505050508152602001600282015481526020016003820154815250509150509392505050565b600060026000888152602001908152602001600020905060008160070160008881526020019081526020016000209050604051806080016040528087815260200186815260200185815260200184815250816001018760405161173c91906121fa565b90815260200160405180910390206000820151816000019080519060200190611766929190611805565b506020820151816001019080519060200190611783929190611805565b50604082015181600201556060820151816003015590505080600201869080600181540180825580915050600190039060005260206000200160009091909190915090805190602001906117d8929190611805565b505050505050505050565b6000816002600084815260200190815260200160002060000154149050919050565b828054611811906126c4565b90600052602060002090601f016020900481019282611833576000855561187a565b82601f1061184c57805160ff191683800117855561187a565b8280016001018555821561187a579182015b8281111561187957825182559160200191906001019061185e565b5b50905061188791906118ff565b5090565b6040518060c001604052806000815260200160608152602001606081526020016000815260200160608152602001600073ffffffffffffffffffffffffffffffffffffffff1681525090565b6040518060800160405280606081526020016060815260200160008152602001600081525090565b5b80821115611918576000816000905550600101611900565b5090565b600061192f61192a8461251e565b6124ed565b90508281526020810184848401111561194757600080fd5b611952848285612682565b509392505050565b600081359050611969816127dd565b92915050565b600082601f83011261198057600080fd5b813561199084826020860161191c565b91505092915050565b6000813590506119a8816127f4565b92915050565b6000815190506119bd816127f4565b92915050565b6000602082840312156119d557600080fd5b60006119e384828501611999565b91505092915050565b6000602082840312156119fe57600080fd5b6000611a0c848285016119ae565b91505092915050565b60008060408385031215611a2857600080fd5b6000611a3685828601611999565b9250506020611a478582860161195a565b9150509250929050565b600080600080600080600060e0888a031215611a6c57600080fd5b6000611a7a8a828b01611999565b975050602088013567ffffffffffffffff811115611a9757600080fd5b611aa38a828b0161196f565b965050604088013567ffffffffffffffff811115611ac057600080fd5b611acc8a828b0161196f565b9550506060611add8a828b01611999565b945050608088013567ffffffffffffffff811115611afa57600080fd5b611b068a828b0161196f565b93505060a0611b178a828b0161195a565b92505060c0611b288a828b01611999565b91505092959891949750929550565b60008060408385031215611b4a57600080fd5b6000611b5885828601611999565b9250506020611b6985828601611999565b9150509250929050565b600080600060608486031215611b8857600080fd5b6000611b9686828701611999565b9350506020611ba786828701611999565b925050604084013567ffffffffffffffff811115611bc457600080fd5b611bd08682870161196f565b9150509250925092565b60008060008060008060c08789031215611bf357600080fd5b6000611c0189828a01611999565b9650506020611c1289828a01611999565b955050604087013567ffffffffffffffff811115611c2f57600080fd5b611c3b89828a0161196f565b945050606087013567ffffffffffffffff811115611c5857600080fd5b611c6489828a0161196f565b9350506080611c7589828a01611999565b92505060a0611c8689828a01611999565b9150509295509295509295565b6000611c9f8383611e39565b905092915050565b6000611cb38383612145565b905092915050565b6000611cc783836121dc565b60208301905092915050565b611cdc81612646565b82525050565b611ceb81612646565b82525050565b6000611cfc82612593565b611d0681856125e6565b935083602082028501611d188561254e565b8060005b85811015611d545784840389528151611d358582611c93565b9450611d40836125bf565b925060208a01995050600181019050611d1c565b50829750879550505050505092915050565b6000611d718261259e565b611d7b81856125f7565b935083602082028501611d8d8561255e565b8060005b85811015611dc95784840389528151611daa8582611ca7565b9450611db5836125cc565b925060208a01995050600181019050611d91565b50829750879550505050505092915050565b6000611de6826125a9565b611df08185612608565b9350611dfb8361256e565b8060005b83811015611e2c578151611e138882611cbb565b9750611e1e836125d9565b925050600181019050611dff565b5085935050505092915050565b6000611e44826125b4565b611e4e8185612619565b9350611e5e818560208601612691565b611e67816127cc565b840191505092915050565b6000611e7d826125b4565b611e87818561262a565b9350611e97818560208601612691565b611ea0816127cc565b840191505092915050565b6000611eb6826125b4565b611ec0818561263b565b9350611ed0818560208601612691565b80840191505092915050565b60008154611ee9816126c4565b611ef3818661263b565b94506001821660008114611f0e5760018114611f1f57611f52565b60ff19831686528186019350611f52565b611f288561257e565b60005b83811015611f4a57815481890152600182019150602081019050611f2b565b838801955050505b50505092915050565b6000611f6860168361262a565b91507f53656d657374657220616c7265616479206164646564000000000000000000006000830152602082019050919050565b6000611fa860168361262a565b91507f53747564656e7420646f6573206e6f74206578697374000000000000000000006000830152602082019050919050565b6000611fe8601b8361262a565b91507f546f6b656e20616c6c6f77616e6365206e6f74206772616e74656400000000006000830152602082019050919050565b600061202860078361262a565b91507f53747564656e74000000000000000000000000000000000000000000000000006000830152602082019050919050565b600061206860108361262a565b91507f4e6f20746f6b656e2062616c616e6365000000000000000000000000000000006000830152602082019050919050565b60006120a8600e8361262a565b91507f4e6f7420617574686f72697a65640000000000000000000000000000000000006000830152602082019050919050565b600060808301600083015184820360008601526120f88282611e39565b915050602083015184820360208601526121128282611e39565b915050604083015161212760408601826121dc565b50606083015161213a60608601826121dc565b508091505092915050565b600060c08301600083015161215d60008601826121dc565b50602083015184820360208601526121758282611e39565b9150506040830151848203604086015261218f8282611e39565b91505060608301516121a460608601826121dc565b50608083015184820360808601526121bc8282611e39565b91505060a08301516121d160a0860182611cd3565b508091505092915050565b6121e581612678565b82525050565b6121f481612678565b82525050565b60006122068284611eab565b915081905092915050565b600061221d8284611edc565b915081905092915050565b600060208201905061223d6000830184611ce2565b92915050565b60006080820190506122586000830186611ce2565b818103602083015261226a8185611e72565b9050818103604083015261227e8184611e72565b905081810360608301526122918161201b565b9050949350505050565b60006080820190506122b06000830187611ce2565b6122bd60208301866121eb565b6122ca6040830185611ce2565b6122d760608301846121eb565b95945050505050565b600060208201905081810360008301526122fa8184611cf1565b905092915050565b6000602082019050818103600083015261231c8184611d66565b905092915050565b6000602082019050818103600083015261233d81611f5b565b9050919050565b6000602082019050818103600083015261235d81611f9b565b9050919050565b6000602082019050818103600083015261237d81611fdb565b9050919050565b6000602082019050818103600083015261239d8161205b565b9050919050565b600060208201905081810360008301526123bd8161209b565b9050919050565b600060208201905081810360008301526123de81846120db565b905092915050565b60006020820190506123fb60008301846121eb565b92915050565b600060c08201905061241660008301896121eb565b81810360208301526124288188611e72565b9050818103604083015261243c8187611e72565b905061244b60608301866121eb565b6124586080830185611ce2565b81810360a083015261246a8184611ddb565b9050979650505050505050565b600060c08201905061248c60008301896121eb565b818103602083015261249e8188611e72565b905081810360408301526124b28187611e72565b90506124c160608301866121eb565b6124ce6080830185611ce2565b81810360a08301526124e08184611e72565b9050979650505050505050565b6000604051905081810181811067ffffffffffffffff821117156125145761251361279d565b5b8060405250919050565b600067ffffffffffffffff8211156125395761253861279d565b5b601f19601f8301169050602081019050919050565b6000819050602082019050919050565b6000819050602082019050919050565b6000819050602082019050919050565b60008190508160005260206000209050919050565b600081519050919050565b600081519050919050565b600081519050919050565b600081519050919050565b6000602082019050919050565b6000602082019050919050565b6000602082019050919050565b600082825260208201905092915050565b600082825260208201905092915050565b600082825260208201905092915050565b600082825260208201905092915050565b600082825260208201905092915050565b600081905092915050565b600061265182612658565b9050919050565b600073ffffffffffffffffffffffffffffffffffffffff82169050919050565b6000819050919050565b82818337600083830152505050565b60005b838110156126af578082015181840152602081019050612694565b838111156126be576000848401525b50505050565b600060028204905060018216806126dc57607f821691505b602082108114156126f0576126ef61276e565b5b50919050565b600061270182612678565b91507fffffffffffffffffffffffffffffffffffffffffffffffffffffffffffffffff8214156127345761273361273f565b5b600182019050919050565b7f4e487b7100000000000000000000000000000000000000000000000000000000600052601160045260246000fd5b7f4e487b7100000000000000000000000000000000000000000000000000000000600052602260045260246000fd5b7f4e487b7100000000000000000000000000000000000000000000000000000000600052604160045260246000fd5b6000601f19601f8301169050919050565b6127e681612646565b81146127f157600080fd5b50565b6127fd81612678565b811461280857600080fd5b5056fea2646970667358221220d703a037ffd37427ed15dd1759a280aeac36203c494b3253f3e8a96438a69cc164736f6c63430008000033",
  "immutableReferences": {},
  "source": "pragma solidity ^0.8.0;\r\n\r\nimport \"./UsersStore.sol\";\r\nimport \"./TokenStore.sol\";\r\n\r\ncontract StudentsStore {\r\n    address public usersStoreAddress;\r\n    address public tokenContractAddress;\r\n\r\n    struct Course {\r\n        string courseCode;\r\n        string courseName;\r\n        uint maxGrade;\r\n        uint studentGrade;\r\n    }\r\n\r\n    struct Semester {\r\n        uint id;\r\n        mapping(string => Course) courses;\r\n        string[] courseCodes;\r\n    }\r\n\r\n    struct Student {\r\n        uint universityID;\r\n        string name;\r\n        string program;\r\n        uint submissionYear;\r\n        address publicAddress;\r\n        string email;\r\n        uint[] semesterIDs;\r\n        mapping(uint => Semester) semesters;\r\n    }\r\n\r\n    struct SimpleStudent {\r\n        uint universityID;\r\n        string name;\r\n        string program;\r\n        uint submissionYear;\r\n        string email;\r\n        address publicAddress;\r\n    }\r\n\r\n    constructor(address _usersStoreAddress, address _tokenContractAddress) {\r\n        usersStoreAddress = _usersStoreAddress;\r\n        tokenContractAddress = _tokenContractAddress;\r\n    }\r\n\r\n    mapping(uint => Student) public students;\r\n    uint[] public studentIDs;\r\n\r\n    mapping(uint => mapping(address => bool)) private tokenAllowance;\r\n\r\n    function addStudent(\r\n        uint _universityID,\r\n        string memory _name,\r\n        string memory _program,\r\n        uint _submissionYear,\r\n        string memory _email,\r\n        address _publicAddress,\r\n        uint256 _initialTokenAmount\r\n    ) public {\r\n        Student storage student = students[_universityID];\r\n        student.universityID = _universityID;\r\n        student.name = _name;\r\n        student.program = _program;\r\n        student.submissionYear = _submissionYear;\r\n        student.publicAddress = _publicAddress;\r\n        student.email = _email;\r\n        studentIDs.push(_universityID);\r\n\r\n        // Set initial balance and allowance for the student\r\n        TokenStore tokenContract = TokenStore(tokenContractAddress);\r\n        tokenContract.mintTokensAndSetAllowance(_publicAddress, _initialTokenAmount, msg.sender, _initialTokenAmount);\r\n\r\n        UsersStore usersStore = UsersStore(usersStoreAddress);\r\n        usersStore.addUser(_publicAddress, _name, _email, \"Student\");\r\n    }\r\n\r\n    function addSemester(uint _universityID, uint _semesterID) public {\r\n        Student storage student = students[_universityID];\r\n\r\n        // Check if the semester ID already exists in the semesterIDs array\r\n        for (uint i = 0; i < student.semesterIDs.length; i++) {\r\n            if (student.semesterIDs[i] == _semesterID) {\r\n                revert(\"Semester already added\");\r\n            }\r\n        }\r\n\r\n        // Add the semester ID to the array and set the semester ID in the semesters mapping\r\n        student.semesterIDs.push(_semesterID);\r\n        student.semesters[_semesterID].id = _semesterID;\r\n    }\r\n\r\n    function addCourse(\r\n        uint _universityID,\r\n        uint _semesterID,\r\n        string memory _courseCode,\r\n        string memory _courseName,\r\n        uint _maxGrade,\r\n        uint _studentGrade\r\n    ) public {\r\n        Student storage student = students[_universityID];\r\n        Semester storage semester = student.semesters[_semesterID];\r\n        semester.courses[_courseCode] = Course(_courseCode, _courseName, _maxGrade, _studentGrade);\r\n        semester.courseCodes.push(_courseCode); // Add the course code to the array\r\n    }\r\n\r\n    function getStudentCourses(uint _universityID, uint _semesterID) public view returns (string[] memory) {\r\n        Student storage student = students[_universityID];\r\n        Semester storage semester = student.semesters[_semesterID];\r\n\r\n        // Retrieve the course codes from the semester mapping\r\n        string[] memory courseCodes = new string[](semester.courseCodes.length);\r\n        for (uint i = 0; i < semester.courseCodes.length; i++) {\r\n            courseCodes[i] = semester.courses[semester.courseCodes[i]].courseCode;\r\n        }\r\n\r\n        return courseCodes;\r\n    }\r\n\r\n    function getStudentCourse(\r\n        uint _universityID,\r\n        uint _semesterID,\r\n        string memory _courseCode\r\n    ) public view returns (Course memory) {\r\n        Student storage student = students[_universityID];\r\n        return student.semesters[_semesterID].courses[_courseCode];\r\n    }\r\n\r\n    function getStudentInfo(uint _universityID) public view returns (\r\n        uint universityID,\r\n        string memory name,\r\n        string memory program,\r\n        uint submissionYear,\r\n        address publicAddress,\r\n        uint[] memory semesterIDs\r\n    ) {\r\n        Student storage student = students[_universityID];\r\n        universityID = student.universityID;\r\n        name = student.name;\r\n        program = student.program;\r\n        submissionYear = student.submissionYear;\r\n        publicAddress = student.publicAddress;\r\n\r\n        uint numSemesters = student.semesterIDs.length;\r\n        semesterIDs = new uint[](numSemesters);\r\n\r\n        for (uint i = 0; i < numSemesters; i++) {\r\n            semesterIDs[i] = student.semesterIDs[i];\r\n        }\r\n    }\r\n\r\n    function getStudents() public view returns (SimpleStudent[] memory) {\r\n        // Create an array to store the students\r\n        SimpleStudent[] memory allStudents = new SimpleStudent[](studentIDs.length);\r\n\r\n        // Add the students to the array\r\n        for (uint i = 0; i < studentIDs.length; i++) {\r\n            Student storage student = students[studentIDs[i]];\r\n            allStudents[i] = SimpleStudent(\r\n                student.universityID,\r\n                student.name,\r\n                student.program,\r\n                student.submissionYear,\r\n                student.email,\r\n                student.publicAddress\r\n            );\r\n        }\r\n\r\n        return allStudents;\r\n    }\r\n\r\n    function showStudentInfoByToken(uint _universityID) public view returns (\r\n    uint universityID,\r\n    string memory name,\r\n    string memory program,\r\n    uint submissionYear,\r\n    address publicAddress,\r\n    uint[] memory semesterIDs\r\n) {\r\n    // Check if the employer has a token\r\n     TokenStore tokoenContract = TokenStore(tokenContractAddress);\r\n    require(tokoenContract.balanceOf(msg.sender) > 0, \"No token balance\");\r\n    \r\n    require(tokenAllowance[_universityID][msg.sender], \"Token allowance not granted\");\r\n\r\n\r\n        Student storage student = students[_universityID];\r\n        universityID = student.universityID;\r\n        name = student.name;\r\n        program = student.program;\r\n        submissionYear = student.submissionYear;\r\n        publicAddress = student.publicAddress;\r\n        semesterIDs = student.semesterIDs;\r\n    }\r\n\r\n    function grantTokenAllowance(uint _universityID, address _employer) public {\r\n        require(studentExists(_universityID), \"Student does not exist\");\r\n        require(msg.sender == students[_universityID].publicAddress, \"Not authorized\");\r\n\r\n        tokenAllowance[_universityID][_employer] = true;\r\n    }\r\n\r\n    function studentExists(uint _universityID) private view returns (bool) {\r\n        return students[_universityID].universityID == _universityID;\r\n    }\r\n}",
  "sourcePath": "B:\\KSA students\\Projects and Labs\\Student-carrer-eth-app\\backEnd\\contracts\\StudentsStore.sol",
  "compiler": {
    "name": "solc",
    "version": "0.8.0+commit.c7dfd78e.Emscripten.clang"
  },
  "schemaVersion": "3.4.13",
  "updatedAt": "2023-06-05T01:20:38.362Z",
  "networkType": "ethereum",
  "devdoc": {
    "kind": "dev",
    "methods": {},
    "version": 1
  },
  "userdoc": {
    "kind": "user",
    "methods": {},
    "version": 1
  }
}