{
  "contractName": "StudentContract",
  "abi": [
    {
      "inputs": [
        {
          "internalType": "address",
          "name": "_usersStoreAddress",
          "type": "address"
        }
      ],
      "stateMutability": "nonpayable",
      "type": "constructor"
    },
    {
      "inputs": [
        {
          "internalType": "uint256",
          "name": "",
          "type": "uint256"
        }
      ],
      "name": "studentIDs",
      "outputs": [
        {
          "internalType": "uint256",
          "name": "",
          "type": "uint256"
        }
      ],
      "stateMutability": "view",
      "type": "function"
    },
    {
      "inputs": [
        {
          "internalType": "uint256",
          "name": "",
          "type": "uint256"
        }
      ],
      "name": "students",
      "outputs": [
        {
          "internalType": "uint256",
          "name": "universityID",
          "type": "uint256"
        },
        {
          "internalType": "string",
          "name": "name",
          "type": "string"
        },
        {
          "internalType": "string",
          "name": "program",
          "type": "string"
        },
        {
          "internalType": "uint256",
          "name": "submissionYear",
          "type": "uint256"
        },
        {
          "internalType": "address",
          "name": "publicAddress",
          "type": "address"
        },
        {
          "internalType": "string",
          "name": "email",
          "type": "string"
        }
      ],
      "stateMutability": "view",
      "type": "function"
    },
    {
      "inputs": [],
      "name": "usersStoreAddress",
      "outputs": [
        {
          "internalType": "address",
          "name": "",
          "type": "address"
        }
      ],
      "stateMutability": "view",
      "type": "function"
    },
    {
      "inputs": [
        {
          "internalType": "uint256",
          "name": "_universityID",
          "type": "uint256"
        },
        {
          "internalType": "string",
          "name": "_name",
          "type": "string"
        },
        {
          "internalType": "string",
          "name": "_program",
          "type": "string"
        },
        {
          "internalType": "uint256",
          "name": "_submissionYear",
          "type": "uint256"
        },
        {
          "internalType": "string",
          "name": "_email",
          "type": "string"
        },
        {
          "internalType": "address",
          "name": "_publicAddress",
          "type": "address"
        }
      ],
      "name": "addStudent",
      "outputs": [],
      "stateMutability": "nonpayable",
      "type": "function"
    },
    {
      "inputs": [
        {
          "internalType": "uint256",
          "name": "_universityID",
          "type": "uint256"
        },
        {
          "internalType": "uint256",
          "name": "_semesterID",
          "type": "uint256"
        }
      ],
      "name": "addSemester",
      "outputs": [],
      "stateMutability": "nonpayable",
      "type": "function"
    },
    {
      "inputs": [
        {
          "internalType": "uint256",
          "name": "_universityID",
          "type": "uint256"
        },
        {
          "internalType": "uint256",
          "name": "_semesterID",
          "type": "uint256"
        },
        {
          "internalType": "string",
          "name": "_courseCode",
          "type": "string"
        },
        {
          "internalType": "string",
          "name": "_courseName",
          "type": "string"
        },
        {
          "internalType": "uint256",
          "name": "_maxGrade",
          "type": "uint256"
        }
      ],
      "name": "addCourse",
      "outputs": [],
      "stateMutability": "nonpayable",
      "type": "function"
    },
    {
      "inputs": [
        {
          "internalType": "uint256",
          "name": "_universityID",
          "type": "uint256"
        }
      ],
      "name": "getStudentInfo",
      "outputs": [
        {
          "internalType": "uint256",
          "name": "universityID",
          "type": "uint256"
        },
        {
          "internalType": "string",
          "name": "name",
          "type": "string"
        },
        {
          "internalType": "string",
          "name": "program",
          "type": "string"
        },
        {
          "internalType": "uint256",
          "name": "submissionYear",
          "type": "uint256"
        },
        {
          "internalType": "address",
          "name": "",
          "type": "address"
        }
      ],
      "stateMutability": "view",
      "type": "function"
    },
    {
      "inputs": [
        {
          "internalType": "uint256",
          "name": "_universityID",
          "type": "uint256"
        },
        {
          "internalType": "uint256",
          "name": "_semesterID",
          "type": "uint256"
        }
      ],
      "name": "getStudentCourses",
      "outputs": [
        {
          "components": [
            {
              "internalType": "string",
              "name": "courseCode",
              "type": "string"
            },
            {
              "internalType": "string",
              "name": "courseName",
              "type": "string"
            },
            {
              "internalType": "uint256",
              "name": "maxGrade",
              "type": "uint256"
            },
            {
              "internalType": "uint256",
              "name": "studentGrade",
              "type": "uint256"
            }
          ],
          "internalType": "struct StudentContract.Course[]",
          "name": "",
          "type": "tuple[]"
        }
      ],
      "stateMutability": "view",
      "type": "function"
    },
    {
      "inputs": [],
      "name": "getStudents",
      "outputs": [
        {
          "components": [
            {
              "internalType": "uint256",
              "name": "universityID",
              "type": "uint256"
            },
            {
              "internalType": "string",
              "name": "name",
              "type": "string"
            },
            {
              "internalType": "string",
              "name": "program",
              "type": "string"
            },
            {
              "internalType": "uint256",
              "name": "submissionYear",
              "type": "uint256"
            },
            {
              "internalType": "string",
              "name": "email",
              "type": "string"
            },
            {
              "internalType": "address",
              "name": "publicAddress",
              "type": "address"
            }
          ],
          "internalType": "struct StudentContract.SimpleStudent[]",
          "name": "",
          "type": "tuple[]"
        }
      ],
      "stateMutability": "view",
      "type": "function"
    }
  ],
  "bytecode": "0x60806040523480156200001157600080fd5b5060405162001bcc38038062001bcc833981810160405281019062000037919062000095565b806000806101000a81548173ffffffffffffffffffffffffffffffffffffffff021916908373ffffffffffffffffffffffffffffffffffffffff160217905550506200010f565b6000815190506200008f81620000f5565b92915050565b600060208284031215620000a857600080fd5b6000620000b8848285016200007e565b91505092915050565b6000620000ce82620000d5565b9050919050565b600073ffffffffffffffffffffffffffffffffffffffff82169050919050565b6200010081620000c1565b81146200010c57600080fd5b50565b611aad806200011f6000396000f3fe608060405234801561001057600080fd5b50600436106100935760003560e01c80638b2b284b116100665780638b2b284b1461014d578063b69185d414610169578063bc89527e14610199578063eb41fc72146101b5578063f1d064b3146101d357610093565b806306ead22e146100985780632ce349be146100cd57806365a81d7d146100fd5780637406be8d14610131575b600080fd5b6100b260048036038101906100ad919061102d565b6101f1565b6040516100c49695949392919061171c565b60405180910390f35b6100e760048036038101906100e2919061102d565b6103e5565b6040516100f491906116a0565b60405180910390f35b6101176004803603810190610112919061102d565b610409565b6040516101289594939291906116bb565b60405180910390f35b61014b60048036038101906101469190611056565b61058b565b005b61016760048036038101906101629190611127565b6106f1565b005b610183600480360381019061017e9190611127565b61072a565b604051610190919061165c565b60405180910390f35b6101b360048036038101906101ae9190611163565b6109f9565b005b6101bd610afd565b6040516101ca91906115e9565b60405180910390f35b6101db610b21565b6040516101e8919061167e565b60405180910390f35b600160205280600052604060002060009150905080600001549080600101805461021a90611930565b80601f016020809104026020016040519081016040528092919081815260200182805461024690611930565b80156102935780601f1061026857610100808354040283529160200191610293565b820191906000526020600020905b81548152906001019060200180831161027657829003601f168201915b5050505050908060020180546102a890611930565b80601f01602080910402602001604051908101604052809291908181526020018280546102d490611930565b80156103215780601f106102f657610100808354040283529160200191610321565b820191906000526020600020905b81548152906001019060200180831161030457829003601f168201915b5050505050908060030154908060040160009054906101000a900473ffffffffffffffffffffffffffffffffffffffff169080600501805461036290611930565b80601f016020809104026020016040519081016040528092919081815260200182805461038e90611930565b80156103db5780601f106103b0576101008083540402835291602001916103db565b820191906000526020600020905b8154815290600101906020018083116103be57829003601f168201915b5050505050905086565b600281815481106103f557600080fd5b906000526020600020016000915090505481565b600060608060008060006001600088815260200190815260200160002090508060000154816001018260020183600301548460040160009054906101000a900473ffffffffffffffffffffffffffffffffffffffff1683805461046b90611930565b80601f016020809104026020016040519081016040528092919081815260200182805461049790611930565b80156104e45780601f106104b9576101008083540402835291602001916104e4565b820191906000526020600020905b8154815290600101906020018083116104c757829003601f168201915b505050505093508280546104f790611930565b80601f016020809104026020016040519081016040528092919081815260200182805461052390611930565b80156105705780601f1061054557610100808354040283529160200191610570565b820191906000526020600020905b81548152906001019060200180831161055357829003601f168201915b50505050509250955095509550955095505091939590929450565b6000600160008881526020019081526020016000209050868160000181905550858160010190805190602001906105c3929190610e84565b50848160020190805190602001906105dc929190610e84565b50838160030181905550818160040160006101000a81548173ffffffffffffffffffffffffffffffffffffffff021916908373ffffffffffffffffffffffffffffffffffffffff160217905550600287908060018154018082558091505060019003906000526020600020016000909190919091505560008060009054906101000a900473ffffffffffffffffffffffffffffffffffffffff1690508073ffffffffffffffffffffffffffffffffffffffff1663c6361c228489876040518463ffffffff1660e01b81526004016106b593929190611604565b600060405180830381600087803b1580156106cf57600080fd5b505af11580156106e3573d6000803e3d6000fd5b505050505050505050505050565b60006001600084815260200190815260200160002060060160008381526020019081526020016000209050818160000181905550505050565b6060600060016000858152602001908152602001600020600601600084815260200190815260200160002090506000816002018054905067ffffffffffffffff8111156107a0577f4e487b7100000000000000000000000000000000000000000000000000000000600052604160045260246000fd5b6040519080825280602002602001820160405280156107d957816020015b6107c6610f0a565b8152602001906001900390816107be5790505b50905060005b82600201805490508110156109ed578260010183600201828154811061082e577f4e487b7100000000000000000000000000000000000000000000000000000000600052603260045260246000fd5b9060005260206000200160405161084591906115d2565b908152602001604051809103902060405180608001604052908160008201805461086e90611930565b80601f016020809104026020016040519081016040528092919081815260200182805461089a90611930565b80156108e75780601f106108bc576101008083540402835291602001916108e7565b820191906000526020600020905b8154815290600101906020018083116108ca57829003601f168201915b5050505050815260200160018201805461090090611930565b80601f016020809104026020016040519081016040528092919081815260200182805461092c90611930565b80156109795780601f1061094e57610100808354040283529160200191610979565b820191906000526020600020905b81548152906001019060200180831161095c57829003601f168201915b50505050508152602001600282015481526020016003820154815250508282815181106109cf577f4e487b7100000000000000000000000000000000000000000000000000000000600052603260045260246000fd5b602002602001018190525080806109e590611962565b9150506107df565b50809250505092915050565b60006001600087815260200190815260200160002060060160008681526020019081526020016000209050604051806080016040528085815260200184815260200183815260200160008152508160010185604051610a5891906115bb565b90815260200160405180910390206000820151816000019080519060200190610a82929190610e84565b506020820151816001019080519060200190610a9f929190610e84565b5060408201518160020155606082015181600301559050508060020184908060018154018082558091505060019003906000526020600020016000909190919091509080519060200190610af4929190610e84565b50505050505050565b60008054906101000a900473ffffffffffffffffffffffffffffffffffffffff1681565b6060600060028054905067ffffffffffffffff811115610b6a577f4e487b7100000000000000000000000000000000000000000000000000000000600052604160045260246000fd5b604051908082528060200260200182016040528015610ba357816020015b610b90610f32565b815260200190600190039081610b885790505b50905060005b600280549050811015610e7c5760006001600060028481548110610bf6577f4e487b7100000000000000000000000000000000000000000000000000000000600052603260045260246000fd5b9060005260206000200154815260200190815260200160002090506040518060c0016040528082600001548152602001826001018054610c3590611930565b80601f0160208091040260200160405190810160405280929190818152602001828054610c6190611930565b8015610cae5780601f10610c8357610100808354040283529160200191610cae565b820191906000526020600020905b815481529060010190602001808311610c9157829003601f168201915b50505050508152602001826002018054610cc790611930565b80601f0160208091040260200160405190810160405280929190818152602001828054610cf390611930565b8015610d405780601f10610d1557610100808354040283529160200191610d40565b820191906000526020600020905b815481529060010190602001808311610d2357829003601f168201915b5050505050815260200182600301548152602001826005018054610d6390611930565b80601f0160208091040260200160405190810160405280929190818152602001828054610d8f90611930565b8015610ddc5780601f10610db157610100808354040283529160200191610ddc565b820191906000526020600020905b815481529060010190602001808311610dbf57829003601f168201915b505050505081526020018260040160009054906101000a900473ffffffffffffffffffffffffffffffffffffffff1673ffffffffffffffffffffffffffffffffffffffff16815250838381518110610e5d577f4e487b7100000000000000000000000000000000000000000000000000000000600052603260045260246000fd5b6020026020010181905250508080610e7490611962565b915050610ba9565b508091505090565b828054610e9090611930565b90600052602060002090601f016020900481019282610eb25760008555610ef9565b82601f10610ecb57805160ff1916838001178555610ef9565b82800160010185558215610ef9579182015b82811115610ef8578251825591602001919060010190610edd565b5b509050610f069190610f7e565b5090565b6040518060800160405280606081526020016060815260200160008152602001600081525090565b6040518060c001604052806000815260200160608152602001606081526020016000815260200160608152602001600073ffffffffffffffffffffffffffffffffffffffff1681525090565b5b80821115610f97576000816000905550600101610f7f565b5090565b6000610fae610fa9846117c3565b611792565b905082815260208101848484011115610fc657600080fd5b610fd18482856118ee565b509392505050565b600081359050610fe881611a49565b92915050565b600082601f830112610fff57600080fd5b813561100f848260208601610f9b565b91505092915050565b60008135905061102781611a60565b92915050565b60006020828403121561103f57600080fd5b600061104d84828501611018565b91505092915050565b60008060008060008060c0878903121561106f57600080fd5b600061107d89828a01611018565b965050602087013567ffffffffffffffff81111561109a57600080fd5b6110a689828a01610fee565b955050604087013567ffffffffffffffff8111156110c357600080fd5b6110cf89828a01610fee565b94505060606110e089828a01611018565b935050608087013567ffffffffffffffff8111156110fd57600080fd5b61110989828a01610fee565b92505060a061111a89828a01610fd9565b9150509295509295509295565b6000806040838503121561113a57600080fd5b600061114885828601611018565b925050602061115985828601611018565b9150509250929050565b600080600080600060a0868803121561117b57600080fd5b600061118988828901611018565b955050602061119a88828901611018565b945050604086013567ffffffffffffffff8111156111b757600080fd5b6111c388828901610fee565b935050606086013567ffffffffffffffff8111156111e057600080fd5b6111ec88828901610fee565b92505060806111fd88828901611018565b9150509295509295909350565b6000611216838361149c565b905092915050565b600061122a8383611506565b905092915050565b61123b816118b2565b82525050565b61124a816118b2565b82525050565b600061125b82611828565b6112658185611863565b935083602082028501611277856117f3565b8060005b858110156112b35784840389528151611294858261120a565b945061129f83611849565b925060208a0199505060018101905061127b565b50829750879550505050505092915050565b60006112d082611833565b6112da8185611874565b9350836020820285016112ec85611803565b8060005b858110156113285784840389528151611309858261121e565b945061131483611856565b925060208a019950506001810190506112f0565b50829750879550505050505092915050565b60006113458261183e565b61134f8185611885565b935061135f8185602086016118fd565b61136881611a38565b840191505092915050565b600061137e8261183e565b6113888185611896565b93506113988185602086016118fd565b6113a181611a38565b840191505092915050565b60006113b78261183e565b6113c181856118a7565b93506113d18185602086016118fd565b80840191505092915050565b600081546113ea81611930565b6113f481866118a7565b9450600182166000811461140f576001811461142057611453565b60ff19831686528186019350611453565b61142985611813565b60005b8381101561144b5781548189015260018201915060208101905061142c565b838801955050505b50505092915050565b6000611469600783611896565b91507f53747564656e74000000000000000000000000000000000000000000000000006000830152602082019050919050565b600060808301600083015184820360008601526114b9828261133a565b915050602083015184820360208601526114d3828261133a565b91505060408301516114e8604086018261159d565b5060608301516114fb606086018261159d565b508091505092915050565b600060c08301600083015161151e600086018261159d565b5060208301518482036020860152611536828261133a565b91505060408301518482036040860152611550828261133a565b9150506060830151611565606086018261159d565b506080830151848203608086015261157d828261133a565b91505060a083015161159260a0860182611232565b508091505092915050565b6115a6816118e4565b82525050565b6115b5816118e4565b82525050565b60006115c782846113ac565b915081905092915050565b60006115de82846113dd565b915081905092915050565b60006020820190506115fe6000830184611241565b92915050565b60006080820190506116196000830186611241565b818103602083015261162b8185611373565b9050818103604083015261163f8184611373565b905081810360608301526116528161145c565b9050949350505050565b600060208201905081810360008301526116768184611250565b905092915050565b6000602082019050818103600083015261169881846112c5565b905092915050565b60006020820190506116b560008301846115ac565b92915050565b600060a0820190506116d060008301886115ac565b81810360208301526116e28187611373565b905081810360408301526116f68186611373565b905061170560608301856115ac565b6117126080830184611241565b9695505050505050565b600060c08201905061173160008301896115ac565b81810360208301526117438188611373565b905081810360408301526117578187611373565b905061176660608301866115ac565b6117736080830185611241565b81810360a08301526117858184611373565b9050979650505050505050565b6000604051905081810181811067ffffffffffffffff821117156117b9576117b8611a09565b5b8060405250919050565b600067ffffffffffffffff8211156117de576117dd611a09565b5b601f19601f8301169050602081019050919050565b6000819050602082019050919050565b6000819050602082019050919050565b60008190508160005260206000209050919050565b600081519050919050565b600081519050919050565b600081519050919050565b6000602082019050919050565b6000602082019050919050565b600082825260208201905092915050565b600082825260208201905092915050565b600082825260208201905092915050565b600082825260208201905092915050565b600081905092915050565b60006118bd826118c4565b9050919050565b600073ffffffffffffffffffffffffffffffffffffffff82169050919050565b6000819050919050565b82818337600083830152505050565b60005b8381101561191b578082015181840152602081019050611900565b8381111561192a576000848401525b50505050565b6000600282049050600182168061194857607f821691505b6020821081141561195c5761195b6119da565b5b50919050565b600061196d826118e4565b91507fffffffffffffffffffffffffffffffffffffffffffffffffffffffffffffffff8214156119a05761199f6119ab565b5b600182019050919050565b7f4e487b7100000000000000000000000000000000000000000000000000000000600052601160045260246000fd5b7f4e487b7100000000000000000000000000000000000000000000000000000000600052602260045260246000fd5b7f4e487b7100000000000000000000000000000000000000000000000000000000600052604160045260246000fd5b6000601f19601f8301169050919050565b611a52816118b2565b8114611a5d57600080fd5b50565b611a69816118e4565b8114611a7457600080fd5b5056fea2646970667358221220319ecce389549d2a8c079387c9e4b7ebc7c0df3d3a00ae0bf2df3e10ca67c6cb64736f6c63430008000033",
  "immutableReferences": {},
  "source": "pragma solidity ^0.8.0;\r\nimport \"./usersStore.sol\";\r\n\r\ncontract StudentContract {\r\n        address public usersStoreAddress;\r\n\r\n    struct Course {\r\n        string courseCode;\r\n        string courseName;\r\n        uint maxGrade;\r\n        uint studentGrade;\r\n    }\r\n\r\n    struct Semester {\r\n        uint id;\r\n        mapping(string => Course) courses;\r\n        string[] courseCodes;\r\n    }\r\n\r\n    struct Student {\r\n        uint universityID;\r\n        string name;\r\n        string program;\r\n        uint submissionYear;\r\n        address publicAddress;\r\n        string email;\r\n        mapping(uint => Semester) semesters;\r\n    }\r\n\r\n    struct SimpleStudent {\r\n        uint universityID;\r\n        string name;\r\n        string program;\r\n        uint submissionYear;\r\n        string email;\r\n        address publicAddress;\r\n    }\r\n     constructor(address _usersStoreAddress) public {\r\n        usersStoreAddress = _usersStoreAddress;\r\n    }\r\n\r\n\r\n    mapping(uint => Student) public students;\r\n    uint[] public studentIDs;\r\n\r\n    function addStudent(\r\n        uint _universityID,\r\n        string memory _name,\r\n        string memory _program,\r\n        uint _submissionYear,\r\n        string memory _email,\r\n        address _publicAddress\r\n    ) public {\r\n        Student storage student = students[_universityID];\r\n        student.universityID = _universityID;\r\n        student.name = _name;\r\n        student.program = _program;\r\n        student.submissionYear = _submissionYear;\r\n        student.publicAddress = _publicAddress;\r\n        studentIDs.push(_universityID);\r\nUsersStore usersStore = UsersStore(usersStoreAddress);\r\n        usersStore.addUser(_publicAddress, _name, _email, \"Student\");\r\n    }\r\n\r\n    function addSemester(uint _universityID, uint _semesterID) public {\r\n        Semester storage semester = students[_universityID].semesters[_semesterID];\r\n        semester.id = _semesterID;\r\n    }\r\n\r\n    function addCourse(\r\n        uint _universityID,\r\n        uint _semesterID,\r\n        string memory _courseCode,\r\n        string memory _courseName,\r\n        uint _maxGrade\r\n    ) public {\r\n        Semester storage semester = students[_universityID].semesters[_semesterID];\r\n        semester.courses[_courseCode] = Course(\r\n            _courseCode,\r\n            _courseName,\r\n            _maxGrade,\r\n            0\r\n        );\r\n        semester.courseCodes.push(_courseCode);\r\n    }\r\n\r\n    function getStudentInfo(uint _universityID)\r\n        public\r\n        view\r\n        returns (\r\n            uint universityID,\r\n            string memory name,\r\n            string memory program,\r\n            uint submissionYear,\r\n            address        )\r\n    {\r\n        Student storage student = students[_universityID];\r\n        return (\r\n            student.universityID,\r\n            student.name,\r\n            student.program,\r\n            student.submissionYear,\r\n            student.publicAddress\r\n        );\r\n    }\r\n\r\n    function getStudentCourses(uint _universityID, uint _semesterID)\r\n        public\r\n        view\r\n        returns (Course[] memory)\r\n    {\r\n        Semester storage semester = students[_universityID].semesters[_semesterID];\r\n\r\n        // Create an array to store the courses\r\n        Course[] memory courses = new Course[](semester.courseCodes.length);\r\n\r\n        // Add the courses to the array\r\n        for (uint i = 0; i < semester.courseCodes.length; i++) {\r\n            courses[i] = semester.courses[semester.courseCodes[i]];\r\n        }\r\n\r\n        return courses;\r\n    }\r\n\r\n    function getStudents() public view returns (SimpleStudent[] memory) {\r\n        // Create an array to store the students\r\n        SimpleStudent[] memory allStudents = new SimpleStudent[](studentIDs.length);\r\n\r\n        // Add the students to the array\r\n        for (uint i = 0; i < studentIDs.length; i++) {\r\n            Student storage student = students[studentIDs[i]];\r\n            allStudents[i] = SimpleStudent(\r\n                student.universityID,\r\n                student.name,\r\n                student.program,\r\n                student.submissionYear,\r\n                student.email,\r\n                student.publicAddress\r\n            );\r\n        }\r\n\r\n        return allStudents;\r\n    }\r\n}\r\n",
  "sourcePath": "B:\\KSA students\\Projects and Labs\\Student-carrer-eth-app\\backEnd\\contracts\\StudentsStore.sol",
  "compiler": {
    "name": "solc",
    "version": "0.8.0+commit.c7dfd78e.Emscripten.clang"
  },
  "schemaVersion": "3.4.13",
  "updatedAt": "2023-05-28T02:52:31.920Z",
  "devdoc": {
    "kind": "dev",
    "methods": {},
    "version": 1
  },
  "userdoc": {
    "kind": "user",
    "methods": {},
    "version": 1
  }
}