{
  "contractName": "StudentsStore",
  "abi": [
    {
      "inputs": [
        {
          "internalType": "address",
          "name": "_usersStoreAddress",
          "type": "address"
        }
      ],
      "payable": false,
      "stateMutability": "nonpayable",
      "type": "constructor"
    },
    {
      "constant": true,
      "inputs": [],
      "name": "studentCount",
      "outputs": [
        {
          "internalType": "uint256",
          "name": "",
          "type": "uint256"
        }
      ],
      "payable": false,
      "stateMutability": "view",
      "type": "function"
    },
    {
      "constant": true,
      "inputs": [],
      "name": "usersStoreAddress",
      "outputs": [
        {
          "internalType": "address",
          "name": "",
          "type": "address"
        }
      ],
      "payable": false,
      "stateMutability": "view",
      "type": "function"
    },
    {
      "constant": false,
      "inputs": [
        {
          "internalType": "uint256",
          "name": "universityID",
          "type": "uint256"
        },
        {
          "internalType": "string",
          "name": "name",
          "type": "string"
        },
        {
          "internalType": "string",
          "name": "program",
          "type": "string"
        },
        {
          "internalType": "uint256",
          "name": "submissionYear",
          "type": "uint256"
        },
        {
          "internalType": "string",
          "name": "email",
          "type": "string"
        },
        {
          "internalType": "address",
          "name": "publicAddress",
          "type": "address"
        }
      ],
      "name": "addStudent",
      "outputs": [],
      "payable": false,
      "stateMutability": "nonpayable",
      "type": "function"
    },
    {
      "constant": false,
      "inputs": [
        {
          "internalType": "uint256",
          "name": "studentIndex",
          "type": "uint256"
        },
        {
          "internalType": "uint256",
          "name": "year",
          "type": "uint256"
        },
        {
          "internalType": "uint256",
          "name": "numberOfCourses",
          "type": "uint256"
        }
      ],
      "name": "addSemester",
      "outputs": [],
      "payable": false,
      "stateMutability": "nonpayable",
      "type": "function"
    },
    {
      "constant": false,
      "inputs": [
        {
          "internalType": "uint256",
          "name": "studentIndex",
          "type": "uint256"
        },
        {
          "internalType": "uint256",
          "name": "year",
          "type": "uint256"
        },
        {
          "internalType": "uint256",
          "name": "courseIndex",
          "type": "uint256"
        },
        {
          "internalType": "string",
          "name": "courseCode",
          "type": "string"
        },
        {
          "internalType": "string",
          "name": "courseName",
          "type": "string"
        },
        {
          "internalType": "uint256",
          "name": "maxGrade",
          "type": "uint256"
        },
        {
          "internalType": "uint256",
          "name": "studentGrade",
          "type": "uint256"
        }
      ],
      "name": "addCourse",
      "outputs": [],
      "payable": false,
      "stateMutability": "nonpayable",
      "type": "function"
    },
    {
      "constant": true,
      "inputs": [
        {
          "internalType": "uint256",
          "name": "studentIndex",
          "type": "uint256"
        }
      ],
      "name": "getStudent",
      "outputs": [
        {
          "internalType": "uint256",
          "name": "",
          "type": "uint256"
        },
        {
          "internalType": "string",
          "name": "",
          "type": "string"
        },
        {
          "internalType": "string",
          "name": "",
          "type": "string"
        },
        {
          "internalType": "uint256",
          "name": "",
          "type": "uint256"
        },
        {
          "internalType": "address",
          "name": "",
          "type": "address"
        }
      ],
      "payable": false,
      "stateMutability": "view",
      "type": "function"
    },
    {
      "constant": true,
      "inputs": [
        {
          "internalType": "uint256",
          "name": "studentIndex",
          "type": "uint256"
        },
        {
          "internalType": "uint256",
          "name": "year",
          "type": "uint256"
        }
      ],
      "name": "getSemester",
      "outputs": [
        {
          "internalType": "uint256",
          "name": "",
          "type": "uint256"
        },
        {
          "internalType": "uint256",
          "name": "",
          "type": "uint256"
        }
      ],
      "payable": false,
      "stateMutability": "view",
      "type": "function"
    },
    {
      "constant": true,
      "inputs": [
        {
          "internalType": "uint256",
          "name": "studentIndex",
          "type": "uint256"
        },
        {
          "internalType": "uint256",
          "name": "year",
          "type": "uint256"
        },
        {
          "internalType": "uint256",
          "name": "courseIndex",
          "type": "uint256"
        }
      ],
      "name": "getCourse",
      "outputs": [
        {
          "internalType": "string",
          "name": "",
          "type": "string"
        },
        {
          "internalType": "string",
          "name": "",
          "type": "string"
        },
        {
          "internalType": "uint256",
          "name": "",
          "type": "uint256"
        },
        {
          "internalType": "uint256",
          "name": "",
          "type": "uint256"
        }
      ],
      "payable": false,
      "stateMutability": "view",
      "type": "function"
    },
    {
      "constant": true,
      "inputs": [],
      "name": "getAllStudents",
      "outputs": [
        {
          "internalType": "uint256[]",
          "name": "",
          "type": "uint256[]"
        },
        {
          "internalType": "string[]",
          "name": "",
          "type": "string[]"
        },
        {
          "internalType": "string[]",
          "name": "",
          "type": "string[]"
        },
        {
          "internalType": "uint256[]",
          "name": "",
          "type": "uint256[]"
        },
        {
          "internalType": "address[]",
          "name": "",
          "type": "address[]"
        }
      ],
      "payable": false,
      "stateMutability": "view",
      "type": "function"
    }
  ],
  "bytecode": "0x60806040523480156200001157600080fd5b506040516200181a3803806200181a833981810160405262000037919081019062000095565b806000806101000a81548173ffffffffffffffffffffffffffffffffffffffff021916908373ffffffffffffffffffffffffffffffffffffffff160217905550506200010f565b6000815190506200008f81620000f5565b92915050565b600060208284031215620000a857600080fd5b6000620000b8848285016200007e565b91505092915050565b6000620000ce82620000d5565b9050919050565b600073ffffffffffffffffffffffffffffffffffffffff82169050919050565b6200010081620000c1565b81146200010c57600080fd5b50565b6116fb806200011f6000396000f3fe608060405234801561001057600080fd5b50600436106100935760003560e01c8063b7d774fb11610066578063b7d774fb14610120578063ca05ba7f14610151578063e581f9ee14610184578063e9e30927146101a2578063eb41fc72146101c457610093565b80630632481c14610098578063574c2775146100b4578063642f9163146100d05780637406be8d14610104575b600080fd5b6100b260048036036100ad9190810190610f5e565b6101e2565b005b6100ce60048036036100c99190810190610fad565b61023a565b005b6100ea60048036036100e59190810190610e28565b6102f0565b6040516100fb959493929190611435565b60405180910390f35b61011e60048036036101199190810190610e51565b6104d4565b005b61013a60048036036101359190810190610f22565b61066e565b604051610148929190611496565b60405180910390f35b61016b60048036036101669190810190610f5e565b6106d2565b60405161017b94939291906113c7565b60405180910390f35b61018c61091b565b604051610199919061141a565b60405180910390f35b6101aa610921565b6040516101bb959493929190611351565b60405180910390f35b6101cc610ce0565b6040516101d991906112de565b60405180910390f35b6040518060400160405280838152602001828152506001600085815260200190815260200160002060050160008481526020019081526020016000206000820151816000015560208201518160010155905050505050565b604051806080016040528085815260200184815260200183815260200182815250600160008981526020019081526020016000206005016000888152602001908152602001600020600201600087815260200190815260200160002060008201518160000190805190602001906102b2929190610d05565b5060208201518160010190805190602001906102cf929190610d05565b50604082015181600201556060820151816003015590505050505050505050565b600060608060008060016000878152602001908152602001600020600001546001600088815260200190815260200160002060010160016000898152602001908152602001600020600201600160008a815260200190815260200160002060030154600160008b815260200190815260200160002060040160009054906101000a900473ffffffffffffffffffffffffffffffffffffffff16838054600181600116156101000203166002900480601f01602080910402602001604051908101604052809291908181526020018280546001816001161561010002031660029004801561041e5780601f106103f35761010080835404028352916020019161041e565b820191906000526020600020905b81548152906001019060200180831161040157829003601f168201915b50505050509350828054600181600116156101000203166002900480601f0160208091040260200160405190810160405280929190818152602001828054600181600116156101000203166002900480156104ba5780601f1061048f576101008083540402835291602001916104ba565b820191906000526020600020905b81548152906001019060200180831161049d57829003601f168201915b505050505092509450945094509450945091939590929450565b6040518060a001604052808781526020018681526020018581526020018481526020018273ffffffffffffffffffffffffffffffffffffffff1681525060016000600254815260200190815260200160002060008201518160000155602082015181600101908051906020019061054c929190610d05565b506040820151816002019080519060200190610569929190610d05565b506060820151816003015560808201518160040160006101000a81548173ffffffffffffffffffffffffffffffffffffffff021916908373ffffffffffffffffffffffffffffffffffffffff16021790555090505060026000815480929190600101919050555060008060009054906101000a900473ffffffffffffffffffffffffffffffffffffffff1690508073ffffffffffffffffffffffffffffffffffffffff1663c6361c228388866040518463ffffffff1660e01b8152600401610633939291906112f9565b600060405180830381600087803b15801561064d57600080fd5b505af1158015610661573d6000803e3d6000fd5b5050505050505050505050565b6000806001600085815260200190815260200160002060050160008481526020019081526020016000206000015460016000868152602001908152602001600020600501600085815260200190815260200160002060010154915091509250929050565b60608060008060016000888152602001908152602001600020600501600087815260200190815260200160002060020160008681526020019081526020016000206000016001600089815260200190815260200160002060050160008881526020019081526020016000206002016000878152602001908152602001600020600101600160008a81526020019081526020016000206005016000898152602001908152602001600020600201600088815260200190815260200160002060020154600160008b815260200190815260200160002060050160008a8152602001908152602001600020600201600089815260200190815260200160002060030154838054600181600116156101000203166002900480601f0160208091040260200160405190810160405280929190818152602001828054600181600116156101000203166002900480156108675780601f1061083c57610100808354040283529160200191610867565b820191906000526020600020905b81548152906001019060200180831161084a57829003601f168201915b50505050509350828054600181600116156101000203166002900480601f0160208091040260200160405190810160405280929190818152602001828054600181600116156101000203166002900480156109035780601f106108d857610100808354040283529160200191610903565b820191906000526020600020905b8154815290600101906020018083116108e657829003601f168201915b50505050509250935093509350935093509350935093565b60025481565b60608060608060608060025460405190808252806020026020018201604052801561095b5781602001602082028038833980820191505090505b509050606060025460405190808252806020026020018201604052801561099657816020015b60608152602001906001900390816109815790505b50905060606002546040519080825280602002602001820160405280156109d157816020015b60608152602001906001900390816109bc5790505b5090506060600254604051908082528060200260200182016040528015610a075781602001602082028038833980820191505090505b5090506060600254604051908082528060200260200182016040528015610a3d5781602001602082028038833980820191505090505b50905060008090505b600254811015610cc4576001600082815260200190815260200160002060000154868281518110610a7357fe5b602002602001018181525050600160008281526020019081526020016000206001018054600181600116156101000203166002900480601f016020809104026020016040519081016040528092919081815260200182805460018160011615610100020316600290048015610b295780601f10610afe57610100808354040283529160200191610b29565b820191906000526020600020905b815481529060010190602001808311610b0c57829003601f168201915b5050505050858281518110610b3a57fe5b6020026020010181905250600160008281526020019081526020016000206002018054600181600116156101000203166002900480601f016020809104026020016040519081016040528092919081815260200182805460018160011615610100020316600290048015610bef5780601f10610bc457610100808354040283529160200191610bef565b820191906000526020600020905b815481529060010190602001808311610bd257829003601f168201915b5050505050848281518110610c0057fe5b60200260200101819052506001600082815260200190815260200160002060030154838281518110610c2e57fe5b6020026020010181815250506001600082815260200190815260200160002060040160009054906101000a900473ffffffffffffffffffffffffffffffffffffffff16828281518110610c7d57fe5b602002602001019073ffffffffffffffffffffffffffffffffffffffff16908173ffffffffffffffffffffffffffffffffffffffff16815250508080600101915050610a46565b5084848484849950995099509950995050505050509091929394565b6000809054906101000a900473ffffffffffffffffffffffffffffffffffffffff1681565b828054600181600116156101000203166002900490600052602060002090601f016020900481019282601f10610d4657805160ff1916838001178555610d74565b82800160010185558215610d74579182015b82811115610d73578251825591602001919060010190610d58565b5b509050610d819190610d85565b5090565b610da791905b80821115610da3576000816000905550600101610d8b565b5090565b90565b600081359050610db98161168a565b92915050565b600082601f830112610dd057600080fd5b8135610de3610dde826114ec565b6114bf565b91508082526020830160208301858383011115610dff57600080fd5b610e0a838284611637565b50505092915050565b600081359050610e22816116a1565b92915050565b600060208284031215610e3a57600080fd5b6000610e4884828501610e13565b91505092915050565b60008060008060008060c08789031215610e6a57600080fd5b6000610e7889828a01610e13565b965050602087013567ffffffffffffffff811115610e9557600080fd5b610ea189828a01610dbf565b955050604087013567ffffffffffffffff811115610ebe57600080fd5b610eca89828a01610dbf565b9450506060610edb89828a01610e13565b935050608087013567ffffffffffffffff811115610ef857600080fd5b610f0489828a01610dbf565b92505060a0610f1589828a01610daa565b9150509295509295509295565b60008060408385031215610f3557600080fd5b6000610f4385828601610e13565b9250506020610f5485828601610e13565b9150509250929050565b600080600060608486031215610f7357600080fd5b6000610f8186828701610e13565b9350506020610f9286828701610e13565b9250506040610fa386828701610e13565b9150509250925092565b600080600080600080600060e0888a031215610fc857600080fd5b6000610fd68a828b01610e13565b9750506020610fe78a828b01610e13565b9650506040610ff88a828b01610e13565b955050606088013567ffffffffffffffff81111561101557600080fd5b6110218a828b01610dbf565b945050608088013567ffffffffffffffff81111561103e57600080fd5b61104a8a828b01610dbf565b93505060a061105b8a828b01610e13565b92505060c061106c8a828b01610e13565b91505092959891949750929550565b600061108783836110bf565b60208301905092915050565b600061109f8383611247565b905092915050565b60006110b383836112c0565b60208301905092915050565b6110c8816115fb565b82525050565b6110d7816115fb565b82525050565b60006110e882611548565b6110f281856115a6565b93506110fd83611518565b8060005b8381101561112e578151611115888261107b565b97506111208361157f565b925050600181019050611101565b5085935050505092915050565b600061114682611553565b61115081856115b7565b93508360208202850161116285611528565b8060005b8581101561119e578484038952815161117f8582611093565b945061118a8361158c565b925060208a01995050600181019050611166565b50829750879550505050505092915050565b60006111bb8261155e565b6111c581856115c8565b93506111d083611538565b8060005b838110156112015781516111e888826110a7565b97506111f383611599565b9250506001810190506111d4565b5085935050505092915050565b600061121982611574565b61122381856115ea565b9350611233818560208601611646565b61123c81611679565b840191505092915050565b600061125282611569565b61125c81856115d9565b935061126c818560208601611646565b61127581611679565b840191505092915050565b600061128d6007836115ea565b91507f53747564656e74000000000000000000000000000000000000000000000000006000830152602082019050919050565b6112c98161162d565b82525050565b6112d88161162d565b82525050565b60006020820190506112f360008301846110ce565b92915050565b600060808201905061130e60008301866110ce565b8181036020830152611320818561120e565b90508181036040830152611334818461120e565b9050818103606083015261134781611280565b9050949350505050565b600060a082019050818103600083015261136b81886111b0565b9050818103602083015261137f818761113b565b90508181036040830152611393818661113b565b905081810360608301526113a781856111b0565b905081810360808301526113bb81846110dd565b90509695505050505050565b600060808201905081810360008301526113e1818761120e565b905081810360208301526113f5818661120e565b905061140460408301856112cf565b61141160608301846112cf565b95945050505050565b600060208201905061142f60008301846112cf565b92915050565b600060a08201905061144a60008301886112cf565b818103602083015261145c818761120e565b90508181036040830152611470818661120e565b905061147f60608301856112cf565b61148c60808301846110ce565b9695505050505050565b60006040820190506114ab60008301856112cf565b6114b860208301846112cf565b9392505050565b6000604051905081810181811067ffffffffffffffff821117156114e257600080fd5b8060405250919050565b600067ffffffffffffffff82111561150357600080fd5b601f19601f8301169050602081019050919050565b6000819050602082019050919050565b6000819050602082019050919050565b6000819050602082019050919050565b600081519050919050565b600081519050919050565b600081519050919050565b600081519050919050565b600081519050919050565b6000602082019050919050565b6000602082019050919050565b6000602082019050919050565b600082825260208201905092915050565b600082825260208201905092915050565b600082825260208201905092915050565b600082825260208201905092915050565b600082825260208201905092915050565b60006116068261160d565b9050919050565b600073ffffffffffffffffffffffffffffffffffffffff82169050919050565b6000819050919050565b82818337600083830152505050565b60005b83811015611664578082015181840152602081019050611649565b83811115611673576000848401525b50505050565b6000601f19601f8301169050919050565b611693816115fb565b811461169e57600080fd5b50565b6116aa8161162d565b81146116b557600080fd5b5056fea365627a7a723158203e19abad3382e04f52482b5042044bba06806c1ce8381ee7a58cff7cecfa6cf16c6578706572696d656e74616cf564736f6c63430005100040",
  "source": "pragma solidity 0.5.16;\r\npragma experimental ABIEncoderV2;\r\n\r\nimport \"./UsersStore.sol\";\r\n\r\ncontract StudentsStore {\r\n    address public usersStoreAddress;\r\n\r\n    struct Semester {\r\n        uint year;\r\n        uint numberOfCourses;\r\n        mapping(uint => Course) courses;\r\n    }\r\n\r\n    struct Course {\r\n        string courseCode;\r\n        string courseName;\r\n        uint maxGrade;\r\n        uint studentGrade;\r\n    }\r\n\r\n    struct Student {\r\n        uint universityID;\r\n        string name;\r\n        string program;\r\n        uint submissionYear;\r\n        address publicAddress;\r\n        mapping(uint => Semester) semesters;\r\n    }\r\n\r\n    mapping(uint => Student) students;\r\n    uint public studentCount;\r\n\r\n    constructor(address _usersStoreAddress) public {\r\n        usersStoreAddress = _usersStoreAddress;\r\n        // Additional initialization code if needed\r\n    }\r\n\r\n    function addStudent(uint universityID, string memory name, string memory program, uint submissionYear, string memory email, address publicAddress) public {\r\n        students[studentCount] = Student(universityID, name, program, submissionYear, publicAddress);\r\n        studentCount++;\r\n\r\n        UsersStore usersStore = UsersStore(usersStoreAddress);\r\n        usersStore.addUser(publicAddress, name, email, \"Student\");\r\n    }\r\n\r\n    function addSemester(uint studentIndex, uint year, uint numberOfCourses) public {\r\n        students[studentIndex].semesters[year] = Semester(year, numberOfCourses);\r\n    }\r\n\r\n    function addCourse(uint studentIndex, uint year, uint courseIndex, string memory courseCode, string memory courseName, uint maxGrade, uint studentGrade) public {\r\n        students[studentIndex].semesters[year].courses[courseIndex] = Course(courseCode, courseName, maxGrade, studentGrade);\r\n    }\r\n\r\n    function getStudent(uint studentIndex) public view returns (uint, string memory, string memory, uint, address) {\r\n        return (students[studentIndex].universityID, students[studentIndex].name, students[studentIndex].program, students[studentIndex].submissionYear, students[studentIndex].publicAddress);\r\n    }\r\n\r\n    function getSemester(uint studentIndex, uint year) public view returns (uint, uint) {\r\n        return (students[studentIndex].semesters[year].year, students[studentIndex].semesters[year].numberOfCourses);\r\n    }\r\n\r\n    function getCourse(uint studentIndex, uint year, uint courseIndex) public view returns (string memory, string memory, uint, uint) {\r\n        return (students[studentIndex].semesters[year].courses[courseIndex].courseCode, students[studentIndex].semesters[year].courses[courseIndex].courseName, students[studentIndex].semesters[year].courses[courseIndex].maxGrade, students[studentIndex].semesters[year].courses[courseIndex].studentGrade);\r\n    }\r\n\r\n    function getAllStudents() public view returns (uint[] memory, string[] memory, string[] memory, uint[] memory, address[] memory) {\r\n        uint[] memory universityIDs = new uint[](studentCount);\r\n        string[] memory names = new string[](studentCount);\r\n        string[] memory programs = new string[](studentCount);\r\n        uint[] memory submissionYears = new uint[](studentCount);\r\n        address[] memory publicAddresses = new address[](studentCount);\r\n\r\n        for (uint i = 0; i < studentCount; i++) {\r\n            universityIDs[i] = students[i].universityID;\r\n            names[i] = students[i].name;\r\n            programs[i] = students[i].program;\r\n            submissionYears[i] = students[i].submissionYear;\r\n            publicAddresses[i] = students[i].publicAddress;\r\n        }\r\n\r\n        return (universityIDs, names, programs, submissionYears, publicAddresses);\r\n    }\r\n}\r\n",
  "sourcePath": "B:\\KSA students\\Projects and Labs\\Student-carrer-eth-app\\backEnd\\contracts\\StudentsStore.sol",
  "compiler": {
    "name": "solc",
    "version": "0.5.16+commit.9c3226ce.Emscripten.clang"
  },
  "schemaVersion": "3.4.13",
  "updatedAt": "2023-05-27T01:38:23.413Z",
  "networkType": "ethereum",
  "devdoc": {
    "methods": {}
  },
  "userdoc": {
    "methods": {}
  }
}