{
  "contractName": "StudentsStore",
  "abi": [
    {
      "inputs": [],
      "payable": false,
      "stateMutability": "nonpayable",
      "type": "constructor"
    },
    {
      "constant": true,
      "inputs": [],
      "name": "studentCount",
      "outputs": [
        {
          "internalType": "uint256",
          "name": "",
          "type": "uint256"
        }
      ],
      "payable": false,
      "stateMutability": "view",
      "type": "function"
    },
    {
      "constant": false,
      "inputs": [
        {
          "internalType": "uint256",
          "name": "universityID",
          "type": "uint256"
        },
        {
          "internalType": "string",
          "name": "name",
          "type": "string"
        },
        {
          "internalType": "string",
          "name": "program",
          "type": "string"
        },
        {
          "internalType": "uint256",
          "name": "submissionYear",
          "type": "uint256"
        }
      ],
      "name": "addStudent",
      "outputs": [],
      "payable": false,
      "stateMutability": "nonpayable",
      "type": "function"
    },
    {
      "constant": false,
      "inputs": [
        {
          "internalType": "uint256",
          "name": "studentIndex",
          "type": "uint256"
        },
        {
          "internalType": "uint256",
          "name": "year",
          "type": "uint256"
        },
        {
          "internalType": "uint256",
          "name": "numberOfCourses",
          "type": "uint256"
        }
      ],
      "name": "addSemester",
      "outputs": [],
      "payable": false,
      "stateMutability": "nonpayable",
      "type": "function"
    },
    {
      "constant": false,
      "inputs": [
        {
          "internalType": "uint256",
          "name": "studentIndex",
          "type": "uint256"
        },
        {
          "internalType": "uint256",
          "name": "year",
          "type": "uint256"
        },
        {
          "internalType": "uint256",
          "name": "courseIndex",
          "type": "uint256"
        },
        {
          "internalType": "string",
          "name": "courseCode",
          "type": "string"
        },
        {
          "internalType": "string",
          "name": "courseName",
          "type": "string"
        },
        {
          "internalType": "uint256",
          "name": "maxGrade",
          "type": "uint256"
        },
        {
          "internalType": "uint256",
          "name": "studentGrade",
          "type": "uint256"
        }
      ],
      "name": "addCourse",
      "outputs": [],
      "payable": false,
      "stateMutability": "nonpayable",
      "type": "function"
    },
    {
      "constant": true,
      "inputs": [
        {
          "internalType": "uint256",
          "name": "studentIndex",
          "type": "uint256"
        }
      ],
      "name": "getStudent",
      "outputs": [
        {
          "internalType": "uint256",
          "name": "",
          "type": "uint256"
        },
        {
          "internalType": "string",
          "name": "",
          "type": "string"
        },
        {
          "internalType": "string",
          "name": "",
          "type": "string"
        },
        {
          "internalType": "uint256",
          "name": "",
          "type": "uint256"
        }
      ],
      "payable": false,
      "stateMutability": "view",
      "type": "function"
    },
    {
      "constant": true,
      "inputs": [
        {
          "internalType": "uint256",
          "name": "studentIndex",
          "type": "uint256"
        },
        {
          "internalType": "uint256",
          "name": "year",
          "type": "uint256"
        }
      ],
      "name": "getSemester",
      "outputs": [
        {
          "internalType": "uint256",
          "name": "",
          "type": "uint256"
        },
        {
          "internalType": "uint256",
          "name": "",
          "type": "uint256"
        }
      ],
      "payable": false,
      "stateMutability": "view",
      "type": "function"
    },
    {
      "constant": true,
      "inputs": [
        {
          "internalType": "uint256",
          "name": "studentIndex",
          "type": "uint256"
        },
        {
          "internalType": "uint256",
          "name": "year",
          "type": "uint256"
        },
        {
          "internalType": "uint256",
          "name": "courseIndex",
          "type": "uint256"
        }
      ],
      "name": "getCourse",
      "outputs": [
        {
          "internalType": "string",
          "name": "",
          "type": "string"
        },
        {
          "internalType": "string",
          "name": "",
          "type": "string"
        },
        {
          "internalType": "uint256",
          "name": "",
          "type": "uint256"
        },
        {
          "internalType": "uint256",
          "name": "",
          "type": "uint256"
        }
      ],
      "payable": false,
      "stateMutability": "view",
      "type": "function"
    },
    {
      "constant": true,
      "inputs": [],
      "name": "getAllStudents",
      "outputs": [
        {
          "internalType": "uint256[]",
          "name": "",
          "type": "uint256[]"
        },
        {
          "internalType": "string[]",
          "name": "",
          "type": "string[]"
        },
        {
          "internalType": "string[]",
          "name": "",
          "type": "string[]"
        },
        {
          "internalType": "uint256[]",
          "name": "",
          "type": "uint256[]"
        }
      ],
      "payable": false,
      "stateMutability": "view",
      "type": "function"
    }
  ],
  "bytecode": "0x60806040523480156200001157600080fd5b5062000093607b6040518060400160405280600581526020017f416c6963650000000000000000000000000000000000000000000000000000008152506040518060400160405280601081526020017f436f6d707574657220536369656e6365000000000000000000000000000000008152506107e56200019d60201b60201c565b620001156101c86040518060400160405280600381526020017f426f6200000000000000000000000000000000000000000000000000000000008152506040518060400160405280601681526020017f4d656368616e6963616c20456e67696e656572696e67000000000000000000008152506107e46200019d60201b60201c565b620001976103156040518060400160405280600781526020017f436861726c6965000000000000000000000000000000000000000000000000008152506040518060400160405280601681526020017f456c656374726963616c20456e67696e656572696e67000000000000000000008152506107e66200019d60201b60201c565b620002ee565b6040518060800160405280858152602001848152602001838152602001828152506000806001548152602001908152602001600020600082015181600001556020820151816001019080519060200190620001fa9291906200023f565b506040820151816002019080519060200190620002199291906200023f565b506060820151816003015590505060016000815480929190600101919050555050505050565b828054600181600116156101000203166002900490600052602060002090601f016020900481019282601f106200028257805160ff1916838001178555620002b3565b82800160010185558215620002b3579182015b82811115620002b257825182559160200191906001019062000295565b5b509050620002c29190620002c6565b5090565b620002eb91905b80821115620002e7576000816000905550600101620002cd565b5090565b90565b61126b80620002fe6000396000f3fe608060405234801561001057600080fd5b50600436106100885760003560e01c8063b7d774fb1161005b578063b7d774fb14610114578063ca05ba7f14610145578063e581f9ee14610178578063e9e309271461019657610088565b80630632481c1461008d578063531c7c32146100a9578063574c2775146100c5578063642f9163146100e1575b600080fd5b6100a760048036036100a29190810190610cba565b6101b7565b005b6100c360048036036100be9190810190610beb565b61020e565b005b6100df60048036036100da9190810190610d09565b6102ac565b005b6100fb60048036036100f69190810190610bc2565b610361565b60405161010b9493929190611035565b60405180910390f35b61012e60048036036101299190810190610c7e565b610505565b60405161013c929190611088565b60405180910390f35b61015f600480360361015a9190810190610cba565b610567565b60405161016f9493929190610fc7565b60405180910390f35b6101806107ac565b60405161018d919061101a565b60405180910390f35b61019e6107b2565b6040516101ae9493929190610f66565b60405180910390f35b60405180604001604052808381526020018281525060008085815260200190815260200160002060040160008481526020019081526020016000206000820151816000015560208201518160010155905050505050565b6040518060800160405280858152602001848152602001838152602001828152506000806001548152602001908152602001600020600082015181600001556020820151816001019080519060200190610269929190610ab4565b506040820151816002019080519060200190610286929190610ab4565b506060820151816003015590505060016000815480929190600101919050555050505050565b604051806080016040528085815260200184815260200183815260200182815250600080898152602001908152602001600020600401600088815260200190815260200160002060020160008781526020019081526020016000206000820151816000019080519060200190610323929190610ab4565b506020820151816001019080519060200190610340929190610ab4565b50604082015181600201556060820151816003015590505050505050505050565b600060608060008060008681526020019081526020016000206000015460008087815260200190815260200160002060010160008088815260200190815260200160002060020160008089815260200190815260200160002060030154828054600181600116156101000203166002900480601f0160208091040260200160405190810160405280929190818152602001828054600181600116156101000203166002900480156104535780601f1061042857610100808354040283529160200191610453565b820191906000526020600020905b81548152906001019060200180831161043657829003601f168201915b50505050509250818054600181600116156101000203166002900480601f0160208091040260200160405190810160405280929190818152602001828054600181600116156101000203166002900480156104ef5780601f106104c4576101008083540402835291602001916104ef565b820191906000526020600020905b8154815290600101906020018083116104d257829003601f168201915b5050505050915093509350935093509193509193565b600080600080858152602001908152602001600020600401600084815260200190815260200160002060000154600080868152602001908152602001600020600401600085815260200190815260200160002060010154915091509250929050565b60608060008060008088815260200190815260200160002060040160008781526020019081526020016000206002016000868152602001908152602001600020600001600080898152602001908152602001600020600401600088815260200190815260200160002060020160008781526020019081526020016000206001016000808a815260200190815260200160002060040160008981526020019081526020016000206002016000888152602001908152602001600020600201546000808b815260200190815260200160002060040160008a8152602001908152602001600020600201600089815260200190815260200160002060030154838054600181600116156101000203166002900480601f0160208091040260200160405190810160405280929190818152602001828054600181600116156101000203166002900480156106f85780601f106106cd576101008083540402835291602001916106f8565b820191906000526020600020905b8154815290600101906020018083116106db57829003601f168201915b50505050509350828054600181600116156101000203166002900480601f0160208091040260200160405190810160405280929190818152602001828054600181600116156101000203166002900480156107945780601f1061076957610100808354040283529160200191610794565b820191906000526020600020905b81548152906001019060200180831161077757829003601f168201915b50505050509250935093509350935093509350935093565b60015481565b60608060608060606001546040519080825280602002602001820160405280156107eb5781602001602082028038833980820191505090505b509050606060015460405190808252806020026020018201604052801561082657816020015b60608152602001906001900390816108115790505b509050606060015460405190808252806020026020018201604052801561086157816020015b606081526020019060019003908161084c5790505b50905060606001546040519080825280602002602001820160405280156108975781602001602082028038833980820191505090505b50905060008090505b600154811015610a9d57600080828152602001908152602001600020600001548582815181106108cc57fe5b6020026020010181815250506000808281526020019081526020016000206001018054600181600116156101000203166002900480601f0160208091040260200160405190810160405280929190818152602001828054600181600116156101000203166002900480156109815780601f1061095657610100808354040283529160200191610981565b820191906000526020600020905b81548152906001019060200180831161096457829003601f168201915b505050505084828151811061099257fe5b60200260200101819052506000808281526020019081526020016000206002018054600181600116156101000203166002900480601f016020809104026020016040519081016040528092919081815260200182805460018160011615610100020316600290048015610a465780601f10610a1b57610100808354040283529160200191610a46565b820191906000526020600020905b815481529060010190602001808311610a2957829003601f168201915b5050505050838281518110610a5757fe5b602002602001018190525060008082815260200190815260200160002060030154828281518110610a8457fe5b60200260200101818152505080806001019150506108a0565b508383838397509750975097505050505090919293565b828054600181600116156101000203166002900490600052602060002090601f016020900481019282601f10610af557805160ff1916838001178555610b23565b82800160010185558215610b23579182015b82811115610b22578251825591602001919060010190610b07565b5b509050610b309190610b34565b5090565b610b5691905b80821115610b52576000816000905550600101610b3a565b5090565b90565b600082601f830112610b6a57600080fd5b8135610b7d610b78826110de565b6110b1565b91508082526020830160208301858383011115610b9957600080fd5b610ba48382846111be565b50505092915050565b600081359050610bbc81611211565b92915050565b600060208284031215610bd457600080fd5b6000610be284828501610bad565b91505092915050565b60008060008060808587031215610c0157600080fd5b6000610c0f87828801610bad565b945050602085013567ffffffffffffffff811115610c2c57600080fd5b610c3887828801610b59565b935050604085013567ffffffffffffffff811115610c5557600080fd5b610c6187828801610b59565b9250506060610c7287828801610bad565b91505092959194509250565b60008060408385031215610c9157600080fd5b6000610c9f85828601610bad565b9250506020610cb085828601610bad565b9150509250929050565b600080600060608486031215610ccf57600080fd5b6000610cdd86828701610bad565b9350506020610cee86828701610bad565b9250506040610cff86828701610bad565b9150509250925092565b600080600080600080600060e0888a031215610d2457600080fd5b6000610d328a828b01610bad565b9750506020610d438a828b01610bad565b9650506040610d548a828b01610bad565b955050606088013567ffffffffffffffff811115610d7157600080fd5b610d7d8a828b01610b59565b945050608088013567ffffffffffffffff811115610d9a57600080fd5b610da68a828b01610b59565b93505060a0610db78a828b01610bad565b92505060c0610dc88a828b01610bad565b91505092959891949750929550565b6000610de38383610f0f565b905092915050565b6000610df78383610f48565b60208301905092915050565b6000610e0e8261112a565b610e188185611170565b935083602082028501610e2a8561110a565b8060005b85811015610e665784840389528151610e478582610dd7565b9450610e5283611156565b925060208a01995050600181019050610e2e565b50829750879550505050505092915050565b6000610e8382611135565b610e8d8185611181565b9350610e988361111a565b8060005b83811015610ec9578151610eb08882610deb565b9750610ebb83611163565b925050600181019050610e9c565b5085935050505092915050565b6000610ee18261114b565b610eeb81856111a3565b9350610efb8185602086016111cd565b610f0481611200565b840191505092915050565b6000610f1a82611140565b610f248185611192565b9350610f348185602086016111cd565b610f3d81611200565b840191505092915050565b610f51816111b4565b82525050565b610f60816111b4565b82525050565b60006080820190508181036000830152610f808187610e78565b90508181036020830152610f948186610e03565b90508181036040830152610fa88185610e03565b90508181036060830152610fbc8184610e78565b905095945050505050565b60006080820190508181036000830152610fe18187610ed6565b90508181036020830152610ff58186610ed6565b90506110046040830185610f57565b6110116060830184610f57565b95945050505050565b600060208201905061102f6000830184610f57565b92915050565b600060808201905061104a6000830187610f57565b818103602083015261105c8186610ed6565b905081810360408301526110708185610ed6565b905061107f6060830184610f57565b95945050505050565b600060408201905061109d6000830185610f57565b6110aa6020830184610f57565b9392505050565b6000604051905081810181811067ffffffffffffffff821117156110d457600080fd5b8060405250919050565b600067ffffffffffffffff8211156110f557600080fd5b601f19601f8301169050602081019050919050565b6000819050602082019050919050565b6000819050602082019050919050565b600081519050919050565b600081519050919050565b600081519050919050565b600081519050919050565b6000602082019050919050565b6000602082019050919050565b600082825260208201905092915050565b600082825260208201905092915050565b600082825260208201905092915050565b600082825260208201905092915050565b6000819050919050565b82818337600083830152505050565b60005b838110156111eb5780820151818401526020810190506111d0565b838111156111fa576000848401525b50505050565b6000601f19601f8301169050919050565b61121a816111b4565b811461122557600080fd5b5056fea365627a7a723158207a3a4c9897d4babf2b21183fce72bf71155cc913992dfb1f81c4abac791118916c6578706572696d656e74616cf564736f6c63430005100040",
  "source": "pragma solidity  0.5.16;\r\npragma experimental ABIEncoderV2;\r\n\r\ncontract StudentsStore {\r\n    \r\n    struct Semester {\r\n        uint year;\r\n        uint numberOfCourses;\r\n        mapping(uint => Course) courses;\r\n    }\r\n    \r\n    struct Course {\r\n        string courseCode;\r\n        string courseName;\r\n        uint maxGrade;\r\n        uint studentGrade;\r\n    }\r\n    \r\n    struct Student {\r\n        uint universityID;\r\n        string name;\r\n        string program;\r\n        uint submissionYear;\r\n        mapping(uint => Semester) semesters;\r\n    }\r\n    \r\n    mapping(uint => Student) students;\r\n    uint public studentCount;\r\n    \r\n     constructor() public {\r\n        addStudent(123, \"Alice\", \"Computer Science\", 2021);\r\n        addStudent(456, \"Bob\", \"Mechanical Engineering\", 2020);\r\n        addStudent(789, \"Charlie\", \"Electrical Engineering\", 2022);\r\n    }\r\n    \r\n    function addStudent(uint universityID, string memory name, string memory program, uint submissionYear) public {\r\n        students[studentCount] = Student(universityID, name, program, submissionYear);\r\n        studentCount++;\r\n    }\r\n    \r\n    function addSemester(uint studentIndex, uint year, uint numberOfCourses) public {\r\n        students[studentIndex].semesters[year] = Semester(year, numberOfCourses);\r\n    }\r\n    \r\n    function addCourse(uint studentIndex, uint year, uint courseIndex, string memory courseCode, string memory courseName, uint maxGrade, uint studentGrade) public {\r\n        students[studentIndex].semesters[year].courses[courseIndex] = Course(courseCode, courseName, maxGrade, studentGrade);\r\n    }\r\n    \r\n    function getStudent(uint studentIndex) public view returns (uint, string memory, string memory, uint) {\r\n        return (students[studentIndex].universityID, students[studentIndex].name, students[studentIndex].program, students[studentIndex].submissionYear);\r\n    }\r\n    \r\n    function getSemester(uint studentIndex, uint year) public view returns (uint, uint) {\r\n        return (students[studentIndex].semesters[year].year, students[studentIndex].semesters[year].numberOfCourses);\r\n    }\r\n    \r\n    function getCourse(uint studentIndex, uint year, uint courseIndex) public view returns (string memory, string memory, uint, uint) {\r\n        return (students[studentIndex].semesters[year].courses[courseIndex].courseCode, students[studentIndex].semesters[year].courses[courseIndex].courseName, students[studentIndex].semesters[year].courses[courseIndex].maxGrade, students[studentIndex].semesters[year].courses[courseIndex].studentGrade);\r\n    }\r\n    \r\n    function getAllStudents() public view returns (uint[] memory, string[] memory, string[] memory, uint[] memory) {\r\n        uint[] memory universityIDs = new uint[](studentCount);\r\n        string[] memory names = new string[](studentCount);\r\n        string[] memory programs = new string[](studentCount);\r\n        uint[] memory submissionYears = new uint[](studentCount);\r\n        \r\n        for (uint i = 0; i < studentCount; i++) {\r\n            universityIDs[i] = students[i].universityID;\r\n            names[i] = students[i].name;\r\n            programs[i] = students[i].program;\r\n            submissionYears[i] = students[i].submissionYear;\r\n        }\r\n        \r\n        return (universityIDs, names, programs, submissionYears);\r\n    }\r\n}",
  "sourcePath": "B:\\KSA students\\Projects and Labs\\Student-carrer-eth-app\\backEnd\\contracts\\StudentsStore.sol",
  "compiler": {
    "name": "solc",
    "version": "0.5.16+commit.9c3226ce.Emscripten.clang"
  },
  "schemaVersion": "3.4.13",
  "updatedAt": "2023-05-17T14:42:40.884Z",
  "devdoc": {
    "methods": {}
  },
  "userdoc": {
    "methods": {}
  }
}