{
  "contractName": "TokenStore",
  "abi": [
    {
      "inputs": [
        {
          "internalType": "string",
          "name": "_name",
          "type": "string"
        },
        {
          "internalType": "string",
          "name": "_symbol",
          "type": "string"
        },
        {
          "internalType": "uint8",
          "name": "_decimals",
          "type": "uint8"
        },
        {
          "internalType": "uint256",
          "name": "_totalSupply",
          "type": "uint256"
        }
      ],
      "stateMutability": "nonpayable",
      "type": "constructor"
    },
    {
      "anonymous": false,
      "inputs": [
        {
          "indexed": true,
          "internalType": "address",
          "name": "owner",
          "type": "address"
        },
        {
          "indexed": true,
          "internalType": "address",
          "name": "spender",
          "type": "address"
        },
        {
          "indexed": false,
          "internalType": "uint256",
          "name": "value",
          "type": "uint256"
        }
      ],
      "name": "Approval",
      "type": "event"
    },
    {
      "anonymous": false,
      "inputs": [
        {
          "indexed": true,
          "internalType": "address",
          "name": "from",
          "type": "address"
        },
        {
          "indexed": true,
          "internalType": "address",
          "name": "to",
          "type": "address"
        },
        {
          "indexed": false,
          "internalType": "uint256",
          "name": "value",
          "type": "uint256"
        }
      ],
      "name": "Transfer",
      "type": "event"
    },
    {
      "inputs": [
        {
          "internalType": "address",
          "name": "",
          "type": "address"
        },
        {
          "internalType": "address",
          "name": "",
          "type": "address"
        }
      ],
      "name": "allowances",
      "outputs": [
        {
          "internalType": "uint256",
          "name": "",
          "type": "uint256"
        }
      ],
      "stateMutability": "view",
      "type": "function",
      "constant": true
    },
    {
      "inputs": [
        {
          "internalType": "address",
          "name": "",
          "type": "address"
        }
      ],
      "name": "balances",
      "outputs": [
        {
          "internalType": "uint256",
          "name": "",
          "type": "uint256"
        }
      ],
      "stateMutability": "view",
      "type": "function",
      "constant": true
    },
    {
      "inputs": [],
      "name": "decimals",
      "outputs": [
        {
          "internalType": "uint8",
          "name": "",
          "type": "uint8"
        }
      ],
      "stateMutability": "view",
      "type": "function",
      "constant": true
    },
    {
      "inputs": [],
      "name": "name",
      "outputs": [
        {
          "internalType": "string",
          "name": "",
          "type": "string"
        }
      ],
      "stateMutability": "view",
      "type": "function",
      "constant": true
    },
    {
      "inputs": [],
      "name": "symbol",
      "outputs": [
        {
          "internalType": "string",
          "name": "",
          "type": "string"
        }
      ],
      "stateMutability": "view",
      "type": "function",
      "constant": true
    },
    {
      "inputs": [],
      "name": "totalSupply",
      "outputs": [
        {
          "internalType": "uint256",
          "name": "",
          "type": "uint256"
        }
      ],
      "stateMutability": "view",
      "type": "function",
      "constant": true
    },
    {
      "inputs": [
        {
          "internalType": "address",
          "name": "_to",
          "type": "address"
        },
        {
          "internalType": "uint256",
          "name": "_value",
          "type": "uint256"
        }
      ],
      "name": "transfer",
      "outputs": [
        {
          "internalType": "bool",
          "name": "",
          "type": "bool"
        }
      ],
      "stateMutability": "nonpayable",
      "type": "function"
    },
    {
      "inputs": [
        {
          "internalType": "address",
          "name": "_from",
          "type": "address"
        },
        {
          "internalType": "address",
          "name": "_to",
          "type": "address"
        },
        {
          "internalType": "uint256",
          "name": "_value",
          "type": "uint256"
        }
      ],
      "name": "transferFrom",
      "outputs": [
        {
          "internalType": "bool",
          "name": "",
          "type": "bool"
        }
      ],
      "stateMutability": "nonpayable",
      "type": "function"
    },
    {
      "inputs": [
        {
          "internalType": "address",
          "name": "_spender",
          "type": "address"
        },
        {
          "internalType": "uint256",
          "name": "_value",
          "type": "uint256"
        }
      ],
      "name": "approve",
      "outputs": [
        {
          "internalType": "bool",
          "name": "",
          "type": "bool"
        }
      ],
      "stateMutability": "nonpayable",
      "type": "function"
    },
    {
      "inputs": [
        {
          "internalType": "address",
          "name": "_to",
          "type": "address"
        },
        {
          "internalType": "uint256",
          "name": "_tokenAmount",
          "type": "uint256"
        },
        {
          "internalType": "address",
          "name": "_spender",
          "type": "address"
        },
        {
          "internalType": "uint256",
          "name": "_allowanceAmount",
          "type": "uint256"
        }
      ],
      "name": "mintTokensAndSetAllowance",
      "outputs": [],
      "stateMutability": "nonpayable",
      "type": "function"
    },
    {
      "inputs": [
        {
          "internalType": "address",
          "name": "account",
          "type": "address"
        }
      ],
      "name": "balanceOf",
      "outputs": [
        {
          "internalType": "uint256",
          "name": "",
          "type": "uint256"
        }
      ],
      "stateMutability": "view",
      "type": "function",
      "constant": true
    },
    {
      "inputs": [
        {
          "internalType": "address",
          "name": "owner",
          "type": "address"
        },
        {
          "internalType": "address",
          "name": "spender",
          "type": "address"
        }
      ],
      "name": "allowance",
      "outputs": [
        {
          "internalType": "uint256",
          "name": "",
          "type": "uint256"
        }
      ],
      "stateMutability": "view",
      "type": "function",
      "constant": true
    }
  ],
  "bytecode": "0x60806040523480156200001157600080fd5b5060405162001640380380620016408339818101604052810190620000379190620002aa565b83600090805190602001906200004f9291906200015a565b508260019080519060200190620000689291906200015a565b5081600260006101000a81548160ff021916908360ff1602179055508060038190555080600460003373ffffffffffffffffffffffffffffffffffffffff1673ffffffffffffffffffffffffffffffffffffffff1681526020019081526020016000208190555080600560003373ffffffffffffffffffffffffffffffffffffffff1673ffffffffffffffffffffffffffffffffffffffff16815260200190815260200160002060003373ffffffffffffffffffffffffffffffffffffffff1673ffffffffffffffffffffffffffffffffffffffff1681526020019081526020016000208190555050505050620004c4565b8280546200016890620003fc565b90600052602060002090601f0160209004810192826200018c5760008555620001d8565b82601f10620001a757805160ff1916838001178555620001d8565b82800160010185558215620001d8579182015b82811115620001d7578251825591602001919060010190620001ba565b5b509050620001e79190620001eb565b5090565b5b8082111562000206576000816000905550600101620001ec565b5090565b6000620002216200021b846200037c565b62000348565b9050828152602081018484840111156200023a57600080fd5b62000247848285620003c6565b509392505050565b600082601f8301126200026157600080fd5b8151620002738482602086016200020a565b91505092915050565b6000815190506200028d8162000490565b92915050565b600081519050620002a481620004aa565b92915050565b60008060008060808587031215620002c157600080fd5b600085015167ffffffffffffffff811115620002dc57600080fd5b620002ea878288016200024f565b945050602085015167ffffffffffffffff8111156200030857600080fd5b62000316878288016200024f565b9350506040620003298782880162000293565b92505060606200033c878288016200027c565b91505092959194509250565b6000604051905081810181811067ffffffffffffffff8211171562000372576200037162000461565b5b8060405250919050565b600067ffffffffffffffff8211156200039a576200039962000461565b5b601f19601f8301169050602081019050919050565b6000819050919050565b600060ff82169050919050565b60005b83811015620003e6578082015181840152602081019050620003c9565b83811115620003f6576000848401525b50505050565b600060028204905060018216806200041557607f821691505b602082108114156200042c576200042b62000432565b5b50919050565b7f4e487b7100000000000000000000000000000000000000000000000000000000600052602260045260246000fd5b7f4e487b7100000000000000000000000000000000000000000000000000000000600052604160045260246000fd5b6200049b81620003af565b8114620004a757600080fd5b50565b620004b581620003b9565b8114620004c157600080fd5b50565b61116c80620004d46000396000f3fe608060405234801561001057600080fd5b50600436106100b45760003560e01c806355b6ed5c1161007157806355b6ed5c146101a357806370a08231146101d357806395d89b4114610203578063a9059cbb14610221578063dced9e0114610251578063dd62ed3e1461026d576100b4565b806306fdde03146100b9578063095ea7b3146100d757806318160ddd1461010757806323b872dd1461012557806327e235e314610155578063313ce56714610185575b600080fd5b6100c161029d565b6040516100ce9190610ea1565b60405180910390f35b6100f160048036038101906100ec9190610d01565b61032b565b6040516100fe9190610e86565b60405180910390f35b61010f61041d565b60405161011c9190610f03565b60405180910390f35b61013f600480360381019061013a9190610cb2565b610423565b60405161014c9190610e86565b60405180910390f35b61016f600480360381019061016a9190610c4d565b610715565b60405161017c9190610f03565b60405180910390f35b61018d61072d565b60405161019a9190610f1e565b60405180910390f35b6101bd60048036038101906101b89190610c76565b610740565b6040516101ca9190610f03565b60405180910390f35b6101ed60048036038101906101e89190610c4d565b610765565b6040516101fa9190610f03565b60405180910390f35b61020b6107ae565b6040516102189190610ea1565b60405180910390f35b61023b60048036038101906102369190610d01565b61083c565b6040516102489190610e86565b60405180910390f35b61026b60048036038101906102669190610d3d565b6109db565b005b61028760048036038101906102829190610c76565b610b9c565b6040516102949190610f03565b60405180910390f35b600080546102aa90611067565b80601f01602080910402602001604051908101604052809291908181526020018280546102d690611067565b80156103235780601f106102f857610100808354040283529160200191610323565b820191906000526020600020905b81548152906001019060200180831161030657829003601f168201915b505050505081565b600081600560003373ffffffffffffffffffffffffffffffffffffffff1673ffffffffffffffffffffffffffffffffffffffff16815260200190815260200160002060008573ffffffffffffffffffffffffffffffffffffffff1673ffffffffffffffffffffffffffffffffffffffff168152602001908152602001600020819055508273ffffffffffffffffffffffffffffffffffffffff163373ffffffffffffffffffffffffffffffffffffffff167f8c5be1e5ebec7d5bd14f71427d1e84f3dd0314c0f7b2291e5b200ac8c7c3b9258460405161040b9190610f03565b60405180910390a36001905092915050565b60035481565b6000600460008573ffffffffffffffffffffffffffffffffffffffff1673ffffffffffffffffffffffffffffffffffffffff168152602001908152602001600020548211156104a7576040517f08c379a000000000000000000000000000000000000000000000000000000000815260040161049e90610ee3565b60405180910390fd5b600560008573ffffffffffffffffffffffffffffffffffffffff1673ffffffffffffffffffffffffffffffffffffffff16815260200190815260200160002060003373ffffffffffffffffffffffffffffffffffffffff1673ffffffffffffffffffffffffffffffffffffffff16815260200190815260200160002054821115610566576040517f08c379a000000000000000000000000000000000000000000000000000000000815260040161055d90610ec3565b60405180910390fd5b81600460008673ffffffffffffffffffffffffffffffffffffffff1673ffffffffffffffffffffffffffffffffffffffff16815260200190815260200160002060008282546105b59190610fab565b9250508190555081600460008573ffffffffffffffffffffffffffffffffffffffff1673ffffffffffffffffffffffffffffffffffffffff168152602001908152602001600020600082825461060b9190610f55565b9250508190555081600560008673ffffffffffffffffffffffffffffffffffffffff1673ffffffffffffffffffffffffffffffffffffffff16815260200190815260200160002060003373ffffffffffffffffffffffffffffffffffffffff1673ffffffffffffffffffffffffffffffffffffffff168152602001908152602001600020600082825461069e9190610fab565b925050819055508273ffffffffffffffffffffffffffffffffffffffff168473ffffffffffffffffffffffffffffffffffffffff167fddf252ad1be2c89b69c2b068fc378daa952ba7f163c4a11628f55a4df523b3ef846040516107029190610f03565b60405180910390a3600190509392505050565b60046020528060005260406000206000915090505481565b600260009054906101000a900460ff1681565b6005602052816000526040600020602052806000526040600020600091509150505481565b6000600460008373ffffffffffffffffffffffffffffffffffffffff1673ffffffffffffffffffffffffffffffffffffffff168152602001908152602001600020549050919050565b600180546107bb90611067565b80601f01602080910402602001604051908101604052809291908181526020018280546107e790611067565b80156108345780601f1061080957610100808354040283529160200191610834565b820191906000526020600020905b81548152906001019060200180831161081757829003601f168201915b505050505081565b6000600460003373ffffffffffffffffffffffffffffffffffffffff1673ffffffffffffffffffffffffffffffffffffffff168152602001908152602001600020548211156108c0576040517f08c379a00000000000000000000000000000000000000000000000000000000081526004016108b790610ee3565b60405180910390fd5b81600460003373ffffffffffffffffffffffffffffffffffffffff1673ffffffffffffffffffffffffffffffffffffffff168152602001908152602001600020600082825461090f9190610fab565b9250508190555081600460008573ffffffffffffffffffffffffffffffffffffffff1673ffffffffffffffffffffffffffffffffffffffff16815260200190815260200160002060008282546109659190610f55565b925050819055508273ffffffffffffffffffffffffffffffffffffffff163373ffffffffffffffffffffffffffffffffffffffff167fddf252ad1be2c89b69c2b068fc378daa952ba7f163c4a11628f55a4df523b3ef846040516109c99190610f03565b60405180910390a36001905092915050565b82600460008673ffffffffffffffffffffffffffffffffffffffff1673ffffffffffffffffffffffffffffffffffffffff1681526020019081526020016000206000828254610a2a9190610f55565b9250508190555080600560008673ffffffffffffffffffffffffffffffffffffffff1673ffffffffffffffffffffffffffffffffffffffff16815260200190815260200160002060008473ffffffffffffffffffffffffffffffffffffffff1673ffffffffffffffffffffffffffffffffffffffff168152602001908152602001600020819055508260036000828254610ac49190610f55565b925050819055508373ffffffffffffffffffffffffffffffffffffffff16600073ffffffffffffffffffffffffffffffffffffffff167fddf252ad1be2c89b69c2b068fc378daa952ba7f163c4a11628f55a4df523b3ef85604051610b299190610f03565b60405180910390a38173ffffffffffffffffffffffffffffffffffffffff168473ffffffffffffffffffffffffffffffffffffffff167f8c5be1e5ebec7d5bd14f71427d1e84f3dd0314c0f7b2291e5b200ac8c7c3b92583604051610b8e9190610f03565b60405180910390a350505050565b6000600560008473ffffffffffffffffffffffffffffffffffffffff1673ffffffffffffffffffffffffffffffffffffffff16815260200190815260200160002060008373ffffffffffffffffffffffffffffffffffffffff1673ffffffffffffffffffffffffffffffffffffffff16815260200190815260200160002054905092915050565b600081359050610c3281611108565b92915050565b600081359050610c478161111f565b92915050565b600060208284031215610c5f57600080fd5b6000610c6d84828501610c23565b91505092915050565b60008060408385031215610c8957600080fd5b6000610c9785828601610c23565b9250506020610ca885828601610c23565b9150509250929050565b600080600060608486031215610cc757600080fd5b6000610cd586828701610c23565b9350506020610ce686828701610c23565b9250506040610cf786828701610c38565b9150509250925092565b60008060408385031215610d1457600080fd5b6000610d2285828601610c23565b9250506020610d3385828601610c38565b9150509250929050565b60008060008060808587031215610d5357600080fd5b6000610d6187828801610c23565b9450506020610d7287828801610c38565b9350506040610d8387828801610c23565b9250506060610d9487828801610c38565b91505092959194509250565b610da981610ff1565b82525050565b6000610dba82610f39565b610dc48185610f44565b9350610dd4818560208601611034565b610ddd816110f7565b840191505092915050565b6000610df5601683610f44565b91507f496e73756666696369656e7420616c6c6f77616e6365000000000000000000006000830152602082019050919050565b6000610e35601483610f44565b91507f496e73756666696369656e742062616c616e63650000000000000000000000006000830152602082019050919050565b610e718161101d565b82525050565b610e8081611027565b82525050565b6000602082019050610e9b6000830184610da0565b92915050565b60006020820190508181036000830152610ebb8184610daf565b905092915050565b60006020820190508181036000830152610edc81610de8565b9050919050565b60006020820190508181036000830152610efc81610e28565b9050919050565b6000602082019050610f186000830184610e68565b92915050565b6000602082019050610f336000830184610e77565b92915050565b600081519050919050565b600082825260208201905092915050565b6000610f608261101d565b9150610f6b8361101d565b9250827fffffffffffffffffffffffffffffffffffffffffffffffffffffffffffffffff03821115610fa057610f9f611099565b5b828201905092915050565b6000610fb68261101d565b9150610fc18361101d565b925082821015610fd457610fd3611099565b5b828203905092915050565b6000610fea82610ffd565b9050919050565b60008115159050919050565b600073ffffffffffffffffffffffffffffffffffffffff82169050919050565b6000819050919050565b600060ff82169050919050565b60005b83811015611052578082015181840152602081019050611037565b83811115611061576000848401525b50505050565b6000600282049050600182168061107f57607f821691505b60208210811415611093576110926110c8565b5b50919050565b7f4e487b7100000000000000000000000000000000000000000000000000000000600052601160045260246000fd5b7f4e487b7100000000000000000000000000000000000000000000000000000000600052602260045260246000fd5b6000601f19601f8301169050919050565b61111181610fdf565b811461111c57600080fd5b50565b6111288161101d565b811461113357600080fd5b5056fea2646970667358221220dfa84eacc6893c8b26b0f2497335bbd883e8f209b8c353abbd51319120eac80764736f6c63430008000033",
  "immutableReferences": {},
  "source": "pragma solidity ^0.8.0;\r\n\r\ncontract TokenStore {\r\n    string public name;\r\n    string public symbol;\r\n    uint8 public decimals;\r\n    uint256 public totalSupply;\r\n\r\n    mapping(address => uint256) public balances;\r\n    mapping(address => mapping(address => uint256)) public allowances;\r\n\r\n    event Transfer(address indexed from, address indexed to, uint256 value);\r\n    event Approval(address indexed owner, address indexed spender, uint256 value);\r\n\r\n    constructor(string memory _name, string memory _symbol, uint8 _decimals, uint256 _totalSupply) {\r\n        name = _name;\r\n        symbol = _symbol;\r\n        decimals = _decimals;\r\n        totalSupply = _totalSupply;\r\n        balances[msg.sender] = _totalSupply;\r\n\r\n        // Set allowance for the first account\r\n        allowances[msg.sender][msg.sender] = _totalSupply;\r\n    }\r\n\r\n    function transfer(address _to, uint256 _value) public returns (bool) {\r\n        require(_value <= balances[msg.sender], \"Insufficient balance\");\r\n\r\n        balances[msg.sender] -= _value;\r\n        balances[_to] += _value;\r\n\r\n        emit Transfer(msg.sender, _to, _value);\r\n        return true;\r\n    }\r\n\r\n    function transferFrom(\r\n        address _from,\r\n        address _to,\r\n        uint256 _value\r\n    ) public returns (bool) {\r\n        require(_value <= balances[_from], \"Insufficient balance\");\r\n        require(_value <= allowances[_from][msg.sender], \"Insufficient allowance\");\r\n\r\n        balances[_from] -= _value;\r\n        balances[_to] += _value;\r\n        allowances[_from][msg.sender] -= _value;\r\n\r\n        emit Transfer(_from, _to, _value);\r\n        return true;\r\n    }\r\n\r\n    function approve(address _spender, uint256 _value) public returns (bool) {\r\n        allowances[msg.sender][_spender] = _value;\r\n        emit Approval(msg.sender, _spender, _value);\r\n        return true;\r\n    }\r\n\r\n    function mintTokensAndSetAllowance(\r\n        address _to,\r\n        uint256 _tokenAmount,\r\n        address _spender,\r\n        uint256 _allowanceAmount\r\n    ) external {\r\n        balances[_to] += _tokenAmount;\r\n        allowances[_to][_spender] = _allowanceAmount;\r\n        totalSupply += _tokenAmount;\r\n        emit Transfer(address(0), _to, _tokenAmount);\r\n        emit Approval(_to, _spender, _allowanceAmount);\r\n    }\r\n    function balanceOf(address account) public view returns (uint256) {\r\n        return balances[account];\r\n    }\r\n function allowance(address owner, address spender) public view returns (uint256) {\r\n        return allowances[owner][spender];\r\n    }\r\n}\r\n",
  "sourcePath": "B:\\KSA students\\Projects and Labs\\Student-carrer-eth-app\\backEnd\\contracts\\TokenStore.sol",
  "compiler": {
    "name": "solc",
    "version": "0.8.0+commit.c7dfd78e.Emscripten.clang"
  },
  "schemaVersion": "3.4.13",
  "updatedAt": "2023-06-05T01:20:38.453Z",
  "networkType": "ethereum",
  "devdoc": {
    "kind": "dev",
    "methods": {},
    "version": 1
  },
  "userdoc": {
    "kind": "user",
    "methods": {},
    "version": 1
  }
}