{
  "contractName": "UsersStore",
  "abi": [
    {
      "inputs": [],
      "payable": false,
      "stateMutability": "nonpayable",
      "type": "constructor"
    },
    {
      "constant": true,
      "inputs": [],
      "name": "nextUserId",
      "outputs": [
        {
          "internalType": "uint256",
          "name": "",
          "type": "uint256"
        }
      ],
      "payable": false,
      "stateMutability": "view",
      "type": "function"
    },
    {
      "constant": true,
      "inputs": [
        {
          "internalType": "uint256",
          "name": "",
          "type": "uint256"
        }
      ],
      "name": "users",
      "outputs": [
        {
          "internalType": "uint256",
          "name": "id",
          "type": "uint256"
        },
        {
          "internalType": "address",
          "name": "publicAddress",
          "type": "address"
        },
        {
          "internalType": "string",
          "name": "name",
          "type": "string"
        },
        {
          "internalType": "string",
          "name": "email",
          "type": "string"
        },
        {
          "internalType": "string",
          "name": "role",
          "type": "string"
        }
      ],
      "payable": false,
      "stateMutability": "view",
      "type": "function"
    },
    {
      "constant": false,
      "inputs": [
        {
          "internalType": "address",
          "name": "_publicAddress",
          "type": "address"
        },
        {
          "internalType": "string",
          "name": "_name",
          "type": "string"
        },
        {
          "internalType": "string",
          "name": "_email",
          "type": "string"
        },
        {
          "internalType": "string",
          "name": "_role",
          "type": "string"
        }
      ],
      "name": "addUser",
      "outputs": [],
      "payable": false,
      "stateMutability": "nonpayable",
      "type": "function"
    },
    {
      "constant": true,
      "inputs": [
        {
          "internalType": "uint256",
          "name": "index",
          "type": "uint256"
        }
      ],
      "name": "getUser",
      "outputs": [
        {
          "internalType": "uint256",
          "name": "",
          "type": "uint256"
        },
        {
          "internalType": "address",
          "name": "",
          "type": "address"
        },
        {
          "internalType": "string",
          "name": "",
          "type": "string"
        },
        {
          "internalType": "string",
          "name": "",
          "type": "string"
        },
        {
          "internalType": "string",
          "name": "",
          "type": "string"
        }
      ],
      "payable": false,
      "stateMutability": "view",
      "type": "function"
    },
    {
      "constant": true,
      "inputs": [],
      "name": "getAllUsers",
      "outputs": [
        {
          "components": [
            {
              "internalType": "uint256",
              "name": "id",
              "type": "uint256"
            },
            {
              "internalType": "address",
              "name": "publicAddress",
              "type": "address"
            },
            {
              "internalType": "string",
              "name": "name",
              "type": "string"
            },
            {
              "internalType": "string",
              "name": "email",
              "type": "string"
            },
            {
              "internalType": "string",
              "name": "role",
              "type": "string"
            }
          ],
          "internalType": "struct UsersStore.User[]",
          "name": "",
          "type": "tuple[]"
        }
      ],
      "payable": false,
      "stateMutability": "view",
      "type": "function"
    }
  ],
  "bytecode": "0x6080604052600180553480156200001557600080fd5b50620000cb6101236040518060400160405280600881526020017f4a6f686e20446f650000000000000000000000000000000000000000000000008152506040518060400160405280601081526020017f6a6f686e406578616d706c652e636f6d000000000000000000000000000000008152506040518060400160405280600581526020017f41646d696e0000000000000000000000000000000000000000000000000000008152506200023b60201b60201c565b620001806104566040518060400160405280600a81526020017f4a616e6520536d697468000000000000000000000000000000000000000000008152506040518060400160405280601081526020017f6a616e65406578616d706c652e636f6d000000000000000000000000000000008152506040518060400160405280600481526020017f55736572000000000000000000000000000000000000000000000000000000008152506200023b60201b60201c565b620002356107896040518060400160405280600b81526020017f426f62204a6f686e736f6e0000000000000000000000000000000000000000008152506040518060400160405280600f81526020017f626f62406578616d706c652e636f6d00000000000000000000000000000000008152506040518060400160405280600481526020017f55736572000000000000000000000000000000000000000000000000000000008152506200023b60201b60201c565b620005e9565b6200024c84620003d260201b60201c565b156200028f576040517f08c379a00000000000000000000000000000000000000000000000000000000081526004016200028690620005b6565b60405180910390fd5b6200029962000480565b6040518060a0016040528060015481526020018673ffffffffffffffffffffffffffffffffffffffff168152602001858152602001848152602001838152509050600081908060018154018082558091505090600182039060005260206000209060050201600090919290919091506000820151816000015560208201518160010160006101000a81548173ffffffffffffffffffffffffffffffffffffffff021916908373ffffffffffffffffffffffffffffffffffffffff160217905550604082015181600201908051906020019062000377929190620004c5565b50606082015181600301908051906020019062000396929190620004c5565b506080820151816004019080519060200190620003b5929190620004c5565b505050506001600081548092919060010191905055505050505050565b600080600090505b60008054905081101562000475578273ffffffffffffffffffffffffffffffffffffffff16600082815481106200040d57fe5b906000526020600020906005020160010160009054906101000a900473ffffffffffffffffffffffffffffffffffffffff1673ffffffffffffffffffffffffffffffffffffffff161415620004675760019150506200047b565b8080600101915050620003da565b50600090505b919050565b6040518060a0016040528060008152602001600073ffffffffffffffffffffffffffffffffffffffff1681526020016060815260200160608152602001606081525090565b828054600181600116156101000203166002900490600052602060002090601f016020900481019282601f106200050857805160ff191683800117855562000539565b8280016001018555821562000539579182015b82811115620005385782518255916020019190600101906200051b565b5b5090506200054891906200054c565b5090565b6200057191905b808211156200056d57600081600090555060010162000553565b5090565b90565b600062000583601383620005d8565b91507f5573657220616c726561647920657869737473000000000000000000000000006000830152602082019050919050565b60006020820190508181036000830152620005d18162000574565b9050919050565b600082825260208201905092915050565b6112e180620005f96000396000f3fe608060405234801561001057600080fd5b50600436106100575760003560e01c8063365b98b21461005c578063a1e6a25514610090578063b0467deb146100ae578063c6361c22146100e2578063e2842d79146100fe575b600080fd5b61007660048036036100719190810190610d2d565b61011c565b6040516100879594939291906110af565b60405180910390f35b610098610347565b6040516100a5919061102c565b60405180910390f35b6100c860048036036100c39190810190610d2d565b61034d565b6040516100d9959493929190611047565b60405180910390f35b6100fc60048036036100f79190810190610c82565b610648565b005b6101066107cc565b6040516101139190610fca565b60405180910390f35b6000818154811061012957fe5b90600052602060002090600502016000915090508060000154908060010160009054906101000a900473ffffffffffffffffffffffffffffffffffffffff1690806002018054600181600116156101000203166002900480601f0160208091040260200160405190810160405280929190818152602001828054600181600116156101000203166002900480156102015780601f106101d657610100808354040283529160200191610201565b820191906000526020600020905b8154815290600101906020018083116101e457829003601f168201915b505050505090806003018054600181600116156101000203166002900480601f01602080910402602001604051908101604052809291908181526020018280546001816001161561010002031660029004801561029f5780601f106102745761010080835404028352916020019161029f565b820191906000526020600020905b81548152906001019060200180831161028257829003601f168201915b505050505090806004018054600181600116156101000203166002900480601f01602080910402602001604051908101604052809291908181526020018280546001816001161561010002031660029004801561033d5780601f106103125761010080835404028352916020019161033d565b820191906000526020600020905b81548152906001019060200180831161032057829003601f168201915b5050505050905085565b60015481565b6000806060806060600080549050861061039c576040517f08c379a00000000000000000000000000000000000000000000000000000000081526004016103939061100c565b60405180910390fd5b6103a4610b1a565b600087815481106103b157fe5b90600052602060002090600502016040518060a0016040529081600082015481526020016001820160009054906101000a900473ffffffffffffffffffffffffffffffffffffffff1673ffffffffffffffffffffffffffffffffffffffff1673ffffffffffffffffffffffffffffffffffffffff168152602001600282018054600181600116156101000203166002900480601f0160208091040260200160405190810160405280929190818152602001828054600181600116156101000203166002900480156104c35780601f10610498576101008083540402835291602001916104c3565b820191906000526020600020905b8154815290600101906020018083116104a657829003601f168201915b50505050508152602001600382018054600181600116156101000203166002900480601f0160208091040260200160405190810160405280929190818152602001828054600181600116156101000203166002900480156105655780601f1061053a57610100808354040283529160200191610565565b820191906000526020600020905b81548152906001019060200180831161054857829003601f168201915b50505050508152602001600482018054600181600116156101000203166002900480601f0160208091040260200160405190810160405280929190818152602001828054600181600116156101000203166002900480156106075780601f106105dc57610100808354040283529160200191610607565b820191906000526020600020905b8154815290600101906020018083116105ea57829003601f168201915b505050505081525050905080600001518160200151826040015183606001518460800151829250819150809050955095509550955095505091939590929450565b61065184610a71565b15610691576040517f08c379a000000000000000000000000000000000000000000000000000000000815260040161068890610fec565b60405180910390fd5b610699610b1a565b6040518060a0016040528060015481526020018673ffffffffffffffffffffffffffffffffffffffff168152602001858152602001848152602001838152509050600081908060018154018082558091505090600182039060005260206000209060050201600090919290919091506000820151816000015560208201518160010160006101000a81548173ffffffffffffffffffffffffffffffffffffffff021916908373ffffffffffffffffffffffffffffffffffffffff1602179055506040820151816002019080519060200190610775929190610b5f565b506060820151816003019080519060200190610792929190610b5f565b5060808201518160040190805190602001906107af929190610b5f565b505050506001600081548092919060010191905055505050505050565b60606000805480602002602001604051908101604052809291908181526020016000905b82821015610a6857838290600052602060002090600502016040518060a0016040529081600082015481526020016001820160009054906101000a900473ffffffffffffffffffffffffffffffffffffffff1673ffffffffffffffffffffffffffffffffffffffff1673ffffffffffffffffffffffffffffffffffffffff168152602001600282018054600181600116156101000203166002900480601f01602080910402602001604051908101604052809291908181526020018280546001816001161561010002031660029004801561090c5780601f106108e15761010080835404028352916020019161090c565b820191906000526020600020905b8154815290600101906020018083116108ef57829003601f168201915b50505050508152602001600382018054600181600116156101000203166002900480601f0160208091040260200160405190810160405280929190818152602001828054600181600116156101000203166002900480156109ae5780601f10610983576101008083540402835291602001916109ae565b820191906000526020600020905b81548152906001019060200180831161099157829003601f168201915b50505050508152602001600482018054600181600116156101000203166002900480601f016020809104026020016040519081016040528092919081815260200182805460018160011615610100020316600290048015610a505780601f10610a2557610100808354040283529160200191610a50565b820191906000526020600020905b815481529060010190602001808311610a3357829003601f168201915b505050505081525050815260200190600101906107f0565b50505050905090565b600080600090505b600080549050811015610b0f578273ffffffffffffffffffffffffffffffffffffffff1660008281548110610aaa57fe5b906000526020600020906005020160010160009054906101000a900473ffffffffffffffffffffffffffffffffffffffff1673ffffffffffffffffffffffffffffffffffffffff161415610b02576001915050610b15565b8080600101915050610a79565b50600090505b919050565b6040518060a0016040528060008152602001600073ffffffffffffffffffffffffffffffffffffffff1681526020016060815260200160608152602001606081525090565b828054600181600116156101000203166002900490600052602060002090601f016020900481019282601f10610ba057805160ff1916838001178555610bce565b82800160010185558215610bce579182015b82811115610bcd578251825591602001919060010190610bb2565b5b509050610bdb9190610bdf565b5090565b610c0191905b80821115610bfd576000816000905550600101610be5565b5090565b90565b600081359050610c1381611270565b92915050565b600082601f830112610c2a57600080fd5b8135610c3d610c3882611144565b611117565b91508082526020830160208301858383011115610c5957600080fd5b610c6483828461121d565b50505092915050565b600081359050610c7c81611287565b92915050565b60008060008060808587031215610c9857600080fd5b6000610ca687828801610c04565b945050602085013567ffffffffffffffff811115610cc357600080fd5b610ccf87828801610c19565b935050604085013567ffffffffffffffff811115610cec57600080fd5b610cf887828801610c19565b925050606085013567ffffffffffffffff811115610d1557600080fd5b610d2187828801610c19565b91505092959194509250565b600060208284031215610d3f57600080fd5b6000610d4d84828501610c6d565b91505092915050565b6000610d628383610f28565b905092915050565b610d73816111e1565b82525050565b610d82816111e1565b82525050565b6000610d9382611180565b610d9d81856111ae565b935083602082028501610daf85611170565b8060005b85811015610deb5784840389528151610dcc8582610d56565b9450610dd7836111a1565b925060208a01995050600181019050610db3565b50829750879550505050505092915050565b6000610e0882611196565b610e1281856111d0565b9350610e2281856020860161122c565b610e2b8161125f565b840191505092915050565b6000610e418261118b565b610e4b81856111bf565b9350610e5b81856020860161122c565b610e648161125f565b840191505092915050565b6000610e7a8261118b565b610e8481856111d0565b9350610e9481856020860161122c565b610e9d8161125f565b840191505092915050565b6000610eb56013836111d0565b91507f5573657220616c726561647920657869737473000000000000000000000000006000830152602082019050919050565b6000610ef56013836111d0565b91507f5573657220646f6573206e6f74206578697374000000000000000000000000006000830152602082019050919050565b600060a083016000830151610f406000860182610fac565b506020830151610f536020860182610d6a565b5060408301518482036040860152610f6b8282610e36565b91505060608301518482036060860152610f858282610e36565b91505060808301518482036080860152610f9f8282610e36565b9150508091505092915050565b610fb581611213565b82525050565b610fc481611213565b82525050565b60006020820190508181036000830152610fe48184610d88565b905092915050565b6000602082019050818103600083015261100581610ea8565b9050919050565b6000602082019050818103600083015261102581610ee8565b9050919050565b60006020820190506110416000830184610fbb565b92915050565b600060a08201905061105c6000830188610fbb565b6110696020830187610d79565b818103604083015261107b8186610dfd565b9050818103606083015261108f8185610dfd565b905081810360808301526110a38184610dfd565b90509695505050505050565b600060a0820190506110c46000830188610fbb565b6110d16020830187610d79565b81810360408301526110e38186610e6f565b905081810360608301526110f78185610e6f565b9050818103608083015261110b8184610e6f565b90509695505050505050565b6000604051905081810181811067ffffffffffffffff8211171561113a57600080fd5b8060405250919050565b600067ffffffffffffffff82111561115b57600080fd5b601f19601f8301169050602081019050919050565b6000819050602082019050919050565b600081519050919050565b600081519050919050565b600081519050919050565b6000602082019050919050565b600082825260208201905092915050565b600082825260208201905092915050565b600082825260208201905092915050565b60006111ec826111f3565b9050919050565b600073ffffffffffffffffffffffffffffffffffffffff82169050919050565b6000819050919050565b82818337600083830152505050565b60005b8381101561124a57808201518184015260208101905061122f565b83811115611259576000848401525b50505050565b6000601f19601f8301169050919050565b611279816111e1565b811461128457600080fd5b50565b61129081611213565b811461129b57600080fd5b5056fea365627a7a72315820708691abf72a96bbc9a4fb7a6b720a25619adb10f0f43c99ecc4a44717914e886c6578706572696d656e74616cf564736f6c63430005100040",
  "source": "pragma solidity  0.5.16;\r\npragma experimental ABIEncoderV2;\r\n\r\n\r\ncontract UsersStore {\r\n    struct User {\r\n        uint id;\r\n        address publicAddress;\r\n        string name;\r\n        string email;\r\n        string role;\r\n    }\r\n\r\n    User[] public users;\r\n    uint public nextUserId = 1;\r\n\r\n    constructor() public {\r\n        addUser(address(0x123), \"John Doe\", \"john@example.com\", \"Admin\");\r\n        addUser(address(0x456), \"Jane Smith\", \"jane@example.com\", \"User\");\r\n        addUser(address(0x789), \"Bob Johnson\", \"bob@example.com\", \"User\");\r\n    }\r\n\r\n    function addUser(address _publicAddress, string memory _name, string memory _email, string memory _role) public {\r\n        require(!userExists(_publicAddress), \"User already exists\");\r\n\r\n        User memory newUser = User({\r\n            id: nextUserId,\r\n            publicAddress: _publicAddress,\r\n            name: _name,\r\n            email: _email,\r\n            role: _role\r\n        });\r\n\r\n        users.push(newUser);\r\n        nextUserId++;\r\n    }\r\n\r\n    function userExists(address _publicAddress) private view returns (bool) {\r\n        for (uint i = 0; i < users.length; i++) {\r\n            if (users[i].publicAddress == _publicAddress) {\r\n                return true;\r\n            }\r\n        }\r\n        return false;\r\n    }\r\n\r\n    function getUser(uint index) public view returns (uint, address, string memory, string memory, string memory) {\r\n        require(index < users.length, \"User does not exist\");\r\n\r\n        User memory user = users[index];\r\n        return (user.id, user.publicAddress, user.name, user.email, user.role);\r\n    }\r\n\r\n    function getAllUsers() public view returns (User[] memory) {\r\n        return users;\r\n    }\r\n}\r\n",
  "sourcePath": "B:\\KSA students\\Projects and Labs\\Student-carrer-eth-app\\backEnd\\contracts\\UsersStore.sol",
  "compiler": {
    "name": "solc",
    "version": "0.5.16+commit.9c3226ce.Emscripten.clang"
  },
  "schemaVersion": "3.4.13",
  "updatedAt": "2023-05-17T14:42:40.901Z",
  "devdoc": {
    "methods": {}
  },
  "userdoc": {
    "methods": {}
  }
}