{
  "contractName": "UsersStore",
  "abi": [
    {
      "inputs": [],
      "stateMutability": "nonpayable",
      "type": "constructor"
    },
    {
      "inputs": [],
      "name": "nextUserId",
      "outputs": [
        {
          "internalType": "uint256",
          "name": "",
          "type": "uint256"
        }
      ],
      "stateMutability": "view",
      "type": "function",
      "constant": true
    },
    {
      "inputs": [
        {
          "internalType": "uint256",
          "name": "",
          "type": "uint256"
        }
      ],
      "name": "users",
      "outputs": [
        {
          "internalType": "uint256",
          "name": "id",
          "type": "uint256"
        },
        {
          "internalType": "address",
          "name": "publicAddress",
          "type": "address"
        },
        {
          "internalType": "string",
          "name": "name",
          "type": "string"
        },
        {
          "internalType": "string",
          "name": "email",
          "type": "string"
        },
        {
          "internalType": "string",
          "name": "role",
          "type": "string"
        }
      ],
      "stateMutability": "view",
      "type": "function",
      "constant": true
    },
    {
      "inputs": [
        {
          "internalType": "address",
          "name": "_publicAddress",
          "type": "address"
        },
        {
          "internalType": "string",
          "name": "_name",
          "type": "string"
        },
        {
          "internalType": "string",
          "name": "_email",
          "type": "string"
        },
        {
          "internalType": "string",
          "name": "_role",
          "type": "string"
        }
      ],
      "name": "addUser",
      "outputs": [],
      "stateMutability": "nonpayable",
      "type": "function"
    },
    {
      "inputs": [
        {
          "internalType": "uint256",
          "name": "index",
          "type": "uint256"
        }
      ],
      "name": "getUser",
      "outputs": [
        {
          "internalType": "uint256",
          "name": "",
          "type": "uint256"
        },
        {
          "internalType": "address",
          "name": "",
          "type": "address"
        },
        {
          "internalType": "string",
          "name": "",
          "type": "string"
        },
        {
          "internalType": "string",
          "name": "",
          "type": "string"
        },
        {
          "internalType": "string",
          "name": "",
          "type": "string"
        }
      ],
      "stateMutability": "view",
      "type": "function",
      "constant": true
    },
    {
      "inputs": [],
      "name": "getAllUsers",
      "outputs": [
        {
          "components": [
            {
              "internalType": "uint256",
              "name": "id",
              "type": "uint256"
            },
            {
              "internalType": "address",
              "name": "publicAddress",
              "type": "address"
            },
            {
              "internalType": "string",
              "name": "name",
              "type": "string"
            },
            {
              "internalType": "string",
              "name": "email",
              "type": "string"
            },
            {
              "internalType": "string",
              "name": "role",
              "type": "string"
            }
          ],
          "internalType": "struct UsersStore.User[]",
          "name": "",
          "type": "tuple[]"
        }
      ],
      "stateMutability": "view",
      "type": "function",
      "constant": true
    }
  ],
  "bytecode": "0x60806040526001805534801561001457600080fd5b506112c5806100246000396000f3fe608060405234801561001057600080fd5b50600436106100575760003560e01c8063365b98b21461005c578063a1e6a25514610090578063b0467deb146100ae578063c6361c22146100e2578063e2842d79146100fe575b600080fd5b61007660048036038101906100719190610cba565b61011c565b604051610087959493929190610f9b565b60405180910390f35b61009861031a565b6040516100a59190610f80565b60405180910390f35b6100c860048036038101906100c39190610cba565b610320565b6040516100d9959493929190610f9b565b60405180910390f35b6100fc60048036038101906100f79190610c0f565b610608565b005b610106610789565b6040516101139190610f1e565b60405180910390f35b6000818154811061012c57600080fd5b90600052602060002090600502016000915090508060000154908060010160009054906101000a900473ffffffffffffffffffffffffffffffffffffffff169080600201805461017b90611148565b80601f01602080910402602001604051908101604052809291908181526020018280546101a790611148565b80156101f45780601f106101c9576101008083540402835291602001916101f4565b820191906000526020600020905b8154815290600101906020018083116101d757829003601f168201915b50505050509080600301805461020990611148565b80601f016020809104026020016040519081016040528092919081815260200182805461023590611148565b80156102825780601f1061025757610100808354040283529160200191610282565b820191906000526020600020905b81548152906001019060200180831161026557829003601f168201915b50505050509080600401805461029790611148565b80601f01602080910402602001604051908101604052809291908181526020018280546102c390611148565b80156103105780601f106102e557610100808354040283529160200191610310565b820191906000526020600020905b8154815290600101906020018083116102f357829003601f168201915b5050505050905085565b60015481565b6000806060806060600080549050861061036f576040517f08c379a000000000000000000000000000000000000000000000000000000000815260040161036690610f60565b60405180910390fd5b60008087815481106103aa577f4e487b7100000000000000000000000000000000000000000000000000000000600052603260045260246000fd5b90600052602060002090600502016040518060a0016040529081600082015481526020016001820160009054906101000a900473ffffffffffffffffffffffffffffffffffffffff1673ffffffffffffffffffffffffffffffffffffffff1673ffffffffffffffffffffffffffffffffffffffff16815260200160028201805461043390611148565b80601f016020809104026020016040519081016040528092919081815260200182805461045f90611148565b80156104ac5780601f10610481576101008083540402835291602001916104ac565b820191906000526020600020905b81548152906001019060200180831161048f57829003601f168201915b505050505081526020016003820180546104c590611148565b80601f01602080910402602001604051908101604052809291908181526020018280546104f190611148565b801561053e5780601f106105135761010080835404028352916020019161053e565b820191906000526020600020905b81548152906001019060200180831161052157829003601f168201915b5050505050815260200160048201805461055790611148565b80601f016020809104026020016040519081016040528092919081815260200182805461058390611148565b80156105d05780601f106105a5576101008083540402835291602001916105d0565b820191906000526020600020905b8154815290600101906020018083116105b357829003601f168201915b505050505081525050905080600001518160200151826040015183606001518460800151955095509550955095505091939590929450565b610611846109fe565b15610651576040517f08c379a000000000000000000000000000000000000000000000000000000000815260040161064890610f40565b60405180910390fd5b60006040518060a0016040528060015481526020018673ffffffffffffffffffffffffffffffffffffffff16815260200185815260200184815260200183815250905060008190806001815401808255809150506001900390600052602060002090600502016000909190919091506000820151816000015560208201518160010160006101000a81548173ffffffffffffffffffffffffffffffffffffffff021916908373ffffffffffffffffffffffffffffffffffffffff160217905550604082015181600201908051906020019061072d929190610ada565b50606082015181600301908051906020019061074a929190610ada565b506080820151816004019080519060200190610767929190610ada565b5050506001600081548092919061077d9061117a565b91905055505050505050565b60606000805480602002602001604051908101604052809291908181526020016000905b828210156109f557838290600052602060002090600502016040518060a0016040529081600082015481526020016001820160009054906101000a900473ffffffffffffffffffffffffffffffffffffffff1673ffffffffffffffffffffffffffffffffffffffff1673ffffffffffffffffffffffffffffffffffffffff16815260200160028201805461084090611148565b80601f016020809104026020016040519081016040528092919081815260200182805461086c90611148565b80156108b95780601f1061088e576101008083540402835291602001916108b9565b820191906000526020600020905b81548152906001019060200180831161089c57829003601f168201915b505050505081526020016003820180546108d290611148565b80601f01602080910402602001604051908101604052809291908181526020018280546108fe90611148565b801561094b5780601f106109205761010080835404028352916020019161094b565b820191906000526020600020905b81548152906001019060200180831161092e57829003601f168201915b5050505050815260200160048201805461096490611148565b80601f016020809104026020016040519081016040528092919081815260200182805461099090611148565b80156109dd5780601f106109b2576101008083540402835291602001916109dd565b820191906000526020600020905b8154815290600101906020018083116109c057829003601f168201915b505050505081525050815260200190600101906107ad565b50505050905090565b600080600090505b600080549050811015610acf578273ffffffffffffffffffffffffffffffffffffffff1660008281548110610a64577f4e487b7100000000000000000000000000000000000000000000000000000000600052603260045260246000fd5b906000526020600020906005020160010160009054906101000a900473ffffffffffffffffffffffffffffffffffffffff1673ffffffffffffffffffffffffffffffffffffffff161415610abc576001915050610ad5565b8080610ac79061117a565b915050610a06565b50600090505b919050565b828054610ae690611148565b90600052602060002090601f016020900481019282610b085760008555610b4f565b82601f10610b2157805160ff1916838001178555610b4f565b82800160010185558215610b4f579182015b82811115610b4e578251825591602001919060010190610b33565b5b509050610b5c9190610b60565b5090565b5b80821115610b79576000816000905550600101610b61565b5090565b6000610b90610b8b84611034565b611003565b905082815260208101848484011115610ba857600080fd5b610bb3848285611106565b509392505050565b600081359050610bca81611261565b92915050565b600082601f830112610be157600080fd5b8135610bf1848260208601610b7d565b91505092915050565b600081359050610c0981611278565b92915050565b60008060008060808587031215610c2557600080fd5b6000610c3387828801610bbb565b945050602085013567ffffffffffffffff811115610c5057600080fd5b610c5c87828801610bd0565b935050604085013567ffffffffffffffff811115610c7957600080fd5b610c8587828801610bd0565b925050606085013567ffffffffffffffff811115610ca257600080fd5b610cae87828801610bd0565b91505092959194509250565b600060208284031215610ccc57600080fd5b6000610cda84828501610bfa565b91505092915050565b6000610cef8383610e7c565b905092915050565b610d00816110ca565b82525050565b610d0f816110ca565b82525050565b6000610d2082611074565b610d2a8185611097565b935083602082028501610d3c85611064565b8060005b85811015610d785784840389528151610d598582610ce3565b9450610d648361108a565b925060208a01995050600181019050610d40565b50829750879550505050505092915050565b6000610d958261107f565b610d9f81856110a8565b9350610daf818560208601611115565b610db881611250565b840191505092915050565b6000610dce8261107f565b610dd881856110b9565b9350610de8818560208601611115565b610df181611250565b840191505092915050565b6000610e096013836110b9565b91507f5573657220616c726561647920657869737473000000000000000000000000006000830152602082019050919050565b6000610e496013836110b9565b91507f5573657220646f6573206e6f74206578697374000000000000000000000000006000830152602082019050919050565b600060a083016000830151610e946000860182610f00565b506020830151610ea76020860182610cf7565b5060408301518482036040860152610ebf8282610d8a565b91505060608301518482036060860152610ed98282610d8a565b91505060808301518482036080860152610ef38282610d8a565b9150508091505092915050565b610f09816110fc565b82525050565b610f18816110fc565b82525050565b60006020820190508181036000830152610f388184610d15565b905092915050565b60006020820190508181036000830152610f5981610dfc565b9050919050565b60006020820190508181036000830152610f7981610e3c565b9050919050565b6000602082019050610f956000830184610f0f565b92915050565b600060a082019050610fb06000830188610f0f565b610fbd6020830187610d06565b8181036040830152610fcf8186610dc3565b90508181036060830152610fe38185610dc3565b90508181036080830152610ff78184610dc3565b90509695505050505050565b6000604051905081810181811067ffffffffffffffff8211171561102a57611029611221565b5b8060405250919050565b600067ffffffffffffffff82111561104f5761104e611221565b5b601f19601f8301169050602081019050919050565b6000819050602082019050919050565b600081519050919050565b600081519050919050565b6000602082019050919050565b600082825260208201905092915050565b600082825260208201905092915050565b600082825260208201905092915050565b60006110d5826110dc565b9050919050565b600073ffffffffffffffffffffffffffffffffffffffff82169050919050565b6000819050919050565b82818337600083830152505050565b60005b83811015611133578082015181840152602081019050611118565b83811115611142576000848401525b50505050565b6000600282049050600182168061116057607f821691505b60208210811415611174576111736111f2565b5b50919050565b6000611185826110fc565b91507fffffffffffffffffffffffffffffffffffffffffffffffffffffffffffffffff8214156111b8576111b76111c3565b5b600182019050919050565b7f4e487b7100000000000000000000000000000000000000000000000000000000600052601160045260246000fd5b7f4e487b7100000000000000000000000000000000000000000000000000000000600052602260045260246000fd5b7f4e487b7100000000000000000000000000000000000000000000000000000000600052604160045260246000fd5b6000601f19601f8301169050919050565b61126a816110ca565b811461127557600080fd5b50565b611281816110fc565b811461128c57600080fd5b5056fea2646970667358221220fb5d5feb03cb96655591a1edfe653d982f676a569335e463bb79f9ec9efb073364736f6c63430008000033",
  "immutableReferences": {},
  "source": "pragma solidity  0.8.0;\r\npragma experimental ABIEncoderV2;\r\n\r\n\r\ncontract UsersStore {\r\n    struct User {\r\n        uint id;\r\n        address publicAddress;\r\n        string name;\r\n        string email;\r\n        string role;\r\n    }\r\n\r\n    User[] public users;\r\n    uint public nextUserId = 1;\r\n\r\n    constructor() public {\r\n        // addUser(address(0x123), \"John Doe\", \"john@example.com\", \"Admin\");\r\n        // addUser(address(0x456), \"Jane Smith\", \"jane@example.com\", \"User\");\r\n        // addUser(address(0x789), \"Bob Johnson\", \"bob@example.com\", \"User\");\r\n    }\r\n\r\n    function addUser(address _publicAddress, string memory _name, string memory _email, string memory _role) public {\r\n        require(!userExists(_publicAddress), \"User already exists\");\r\n\r\n        User memory newUser = User({\r\n            id: nextUserId,\r\n            publicAddress: _publicAddress,\r\n            name: _name,\r\n            email: _email,\r\n            role: _role\r\n        });\r\n\r\n        users.push(newUser);\r\n        nextUserId++;\r\n    }\r\n\r\n    function userExists(address _publicAddress) private view returns (bool) {\r\n        for (uint i = 0; i < users.length; i++) {\r\n            if (users[i].publicAddress == _publicAddress) {\r\n                return true;\r\n            }\r\n        }\r\n        return false;\r\n    }\r\n\r\n    function getUser(uint index) public view returns (uint, address, string memory, string memory, string memory) {\r\n        require(index < users.length, \"User does not exist\");\r\n\r\n        User memory user = users[index];\r\n        return (user.id, user.publicAddress, user.name, user.email, user.role);\r\n    }\r\n\r\n    function getAllUsers() public view returns (User[] memory) {\r\n        return users;\r\n    }\r\n}\r\n",
  "sourcePath": "B:\\KSA students\\Projects and Labs\\Student-carrer-eth-app\\backEnd\\contracts\\UsersStore.sol",
  "compiler": {
    "name": "solc",
    "version": "0.8.0+commit.c7dfd78e.Emscripten.clang"
  },
  "schemaVersion": "3.4.13",
  "updatedAt": "2023-05-28T21:35:46.649Z",
  "networkType": "ethereum",
  "devdoc": {
    "kind": "dev",
    "methods": {},
    "version": 1
  },
  "userdoc": {
    "kind": "user",
    "methods": {},
    "version": 1
  }
}